:100000000C9462000C948A000C948A000C946F1E6D
:100010000C946F1E0C946F1E0C948A000C94791E25
:100020000C948A000C948A000C948A000C9454203E
:100030000C948A000C948A000C948A000C948A0018
:100040000C94251E0C948A000C94F31D0C94CD1D69
:100050000C948A000C948A000C948A000C948A00F8
:100060000C94351F0C948A00000000002400270027
:100070002A0000000000250028002B0000000008D6
:10008000000201000003040700000000000000005F
:1000900000000000230026002900040404040404D6
:1000A0000404020202020202030303030303010227
:1000B00004081020408001020408102001020408F6
:1000C0001020552111241FBECFEFD8E0DEBFCDBFD9
:1000D00011E0A0E0B1E0EAEBF2E502C005900D927C
:1000E000AA3FB107D9F725E0AAEFB1E001C01D9200
:1000F000A33CB207E1F710E0C2E6D0E004C02197CC
:10010000FE010E94EB27C136D107C9F70E94F321F7
:100110000C945B290C9400000F931F93CF93DF93F3
:10012000EC010EEF13E0D8018D919C916C2F6F774D
:10013000DC01ED91FC910190F081E02D0995F80131
:1001400080819181CC0FCD2FCC1FDD0B6C2F6F7771
:10015000DC01ED91FC910190F081E02DDF91CF91D8
:100160001F910F910994CF93DF93EB01A091FE03B0
:10017000B091FF038F70682F606EED91FC91119725
:100180000190F081E02DCD010995CE01DF91CF9155
:100190000C948C008091FE039091FF03DC01ED91A3
:1001A000FC910190F081E02D67EF09948091FE03AE
:1001B0009091FF03DC01ED91FC910190F081E02D25
:1001C00060EF0994FF920F931F93CF93DF93C82F93
:1001D000062FF42E152F0E94D6008091FE039091D9
:1001E000FF03DC01ED91FC910190F081E02D6C2F7B
:1001F0000995CF2DD12F0C0F1D2F111DC017D10721
:1002000029F0899190E00E948C00F8CFDF91CF9186
:100210001F910F91FF900C94CA008091DB02909186
:10022000DC02891B990B0895CF93DF930E94D600BF
:100230008091FE039091FF03DC01ED91FC91019010
:10024000F081E02D69E709958091FE039091FF030D
:10025000A0910104B0910204EC01E881F9810190C0
:10026000F081E02D6C9109958091FE039091FF0340
:10027000A0910104B0910204EC01E881F9810190A0
:10028000F081E02D11966C910995C2E080910004F7
:10029000C81760F4E0910104F0910204EC0FF11D25
:1002A000808190E00E948C00CF5FF0CFDF91CF91F2
:1002B0000C94CA00CF93DF93CEEFD3E0888199816D
:1002C000DC01ED91FC910190F081E02D69EF099541
:1002D00088819981DC01ED91FC910190F081E02D04
:1002E00062E0099588819981DC01ED91FC91019092
:1002F000F081E02D65E0DF91CF910994A091FE039C
:10030000B091FF03ED91FC9111970190F081E02DE8
:10031000682FCD01099410920304109204041092E6
:100320000504E6E0F4E0119284E0E634F807D9F73A
:10033000109246041092480410924704E0919104F0
:10034000F0919204309709F0099408950895089562
:10035000AF92BF92CF92DF92EF92FF920F931F93D3
:10036000CF93DF936C017B018B01040F151FEB0111
:100370005E01AE18BF08C017D10759F06991D601C8
:10038000ED91FC910190F081E02DC6010995892B3A
:1003900079F7C501DF91CF911F910F91FF90EF90F9
:1003A000DF90CF90BF90AF900895FC01538D448DA6
:1003B000252F30E0842F90E0821B930B541710F010
:1003C000CF96089501970895FC01918D828D98171D
:1003D00061F0A28DAE0FBF2FB11D5D968C91928DF5
:1003E0009F5F9F73928F90E008958FEF9FEF089526
:1003F000FC01918D828D981731F0828DE80FF11DEF
:10040000858D90E008958FEF9FEF0895FC01918D09
:10041000228D892F90E0805C9F4F821B91098F7302
:10042000992708958BE593E00E94060221E0892B2D
:1004300009F420E0822F089580E090E0892B29F0D4
:100440000E94120281110C9400000895FC01A48DF9
:10045000A80FB92FB11DA35ABF4F2C91848D90E0E6
:1004600001968F739927848FA689B7892C93A089C9
:10047000B1898C91837080648C93938D848D981353
:1004800006C00288F389E02D80818F7D80830895E6
:10049000EF92FF920F931F93CF93DF93EC0181E0D4
:1004A000888F9B8D8C8D98131AC0E889F98980817B
:1004B00085FF15C09FB7F894EE89FF896083E889AE
:1004C000F98980818370806480839FBF81E090E0A0
:1004D000DF91CF911F910F91FF90EF900895F62E2D
:1004E0000B8D10E00F5F1F4F0F731127E02E8C8DC7
:1004F0008E110CC00FB607FCFACFE889F98980810C
:1005000085FFF5CFCE010E942602F1CFEB8DEC0FD7
:10051000FD2FF11DE35AFF4FF0829FB7F8940B8F28
:10052000EA89FB8980818062CFCF8BE593E00C94D0
:100530004802682F8BE593E00C944802682F8BE506
:1005400093E00C944802CF93DF93EC01888D8823CD
:10055000B9F0AA89BB89E889F9898C9185FD03C026
:10056000808186FD0DC00FB607FCF7CF8C9185FF0B
:10057000F2CF808185FFEDCFCE010E942602E9CF28
:10058000DF91CF910895833081F028F4813099F084
:100590008230A9F008958730A9F08830C9F08430FE
:1005A000B1F4809180008F7D03C0809180008F77AF
:1005B00080938000089584B58F7784BD089584B5B5
:1005C0008F7DFBCF8091B0008F778093B00008952E
:1005D0008091B0008F7DF9CFCF93DF93282F30E04B
:1005E000F901E458FF4F8491F901E255FF4FD4918E
:1005F000F901E656FF4FC491CC23A1F081110E946E
:10060000C302EC2FF0E0EE0FFF1FE057FF4FA59164
:10061000B491EC91ED2381E090E009F480E0DF916A
:10062000CF91089580E090E0FACF1F93CF93DF93AE
:10063000282F30E0F901E458FF4F8491F901E25589
:10064000FF4FD491F901E656FF4FC491CC23A9F096
:10065000162F81110E94C302EC2FF0E0EE0FFF1F56
:10066000EE58FF4FA591B4918FB7F894EC9111110A
:1006700008C0D095DE23DC938FBFDF91CF911F910F
:100680000895DE2BF8CFCF93DF9390E0FC01E25585
:10069000FF4F249186569F4FFC0184918823C9F017
:1006A00090E0880F991FFC01E859FF4FA591B49184
:1006B000FC01EE58FF4FC591D49161110DC09FB759
:1006C000F8948C91209582238C9388812823288309
:1006D0009FBFDF91CF910895623051F49FB7F89496
:1006E0003C91822F809583238C93E8812E2BEFCF32
:1006F0008FB7F894EC912E2B2C938FBFEACF8E30CE
:1007000008F08E508770806480937C0080917A001E
:10071000806480937A0080917A0086FDFCCF80917E
:1007200078009091790008958230910538F0880F13
:10073000991F880F991F05970197F1F708953FB703
:10074000F89480918B0290918C02A0918D02B091CF
:100750008E0226B5A89B05C02F3F19F00196A11D5A
:10076000B11D3FBFBA2FA92F982F8827BC01CD01FB
:10077000620F711D811D911D42E0660F771F881F5A
:10078000991F4A95D1F708958F929F92AF92BF9289
:10079000CF92DF92EF92FF926B017C010E949F0348
:1007A0004B015C01C114D104E104F104B9F00E94D1
:1007B0009F03681979098A099B09683E734081057E
:1007C000910580F321E0C21AD108E108F10888EE12
:1007D000880E83E0981EA11CB11CE4CFFF90EF901F
:1007E000DF90CF90BF90AF909F908F9008958F92A1
:1007F0009F92AF92BF92CF92DF92EF92FF926B01E6
:100800007C010E949F034B015C0184E0C81AD1085F
:10081000E108F108C80CD91CEA1CFB1CC814D90457
:10082000EA04FB0438F40E949F0386169706A80684
:10083000B906C8F30E949F036C157D058E059F05C0
:10084000C8F3FF90EF90DF90CF90BF90AF909F9054
:100850008F9008952091B0002F7D2093B0008530B7
:10086000910528F0BC0190E080E00C94F703089516
:10087000E0EBF0E0208120622083BC0190E080E08A
:100880000C94F703CF92DF92EF92FF92CF93DF9316
:10089000EC01072E000C880B990B0E94B2266B010D
:1008A0007C0120E030E040E45FE30E94622720E02A
:1008B00030E048E452E40E9408260E947A26C617D7
:1008C000D707D4F020E030E040EA5FE3C701B6018B
:1008D0000E94622720E030E048E452E40E940826AB
:1008E00020E030E040E85FE30E9497250E947A26EE
:1008F00021E06C177D070CF420E0822F90E0DF915F
:10090000CF91FF90EF90DF90CF9008958F929F92BC
:10091000AF92BF92CF92DF92EF92FF920F931F930D
:10092000CF93DF93FC0120813181E091D702F091D8
:10093000D80201E010E02E173F070CF045C0D901A6
:10094000AA0FBB1FE091D502F091D602EA0FFB1F60
:10095000A080B1808901009510950170112720FDBC
:1009600027C02CE93FEFEA016B017C014901840EAD
:10097000951EB401C5010E94420421E030E0892B9C
:10098000D1F48C0E9D1EB401C5010E94420422E0E8
:1009900030E0892B81F4BE01680D791DC5010E94EC
:1009A000420423E030E0892B31F40FEF1FEF0CC03D
:1009B00024E630E0D8CFF60180819181019682173C
:1009C000930784F491838083C801DF91CF911F91B5
:1009D0000F91FF90EF90DF90CF90BF90AF909F90DE
:1009E0008F90089511821082F70180819181019684
:1009F000E9CF20916502260F3327331F21323105BD
:100A0000ECF420913103FC0190E080E0243069F0A7
:100A100082E00895A09165022191AC014B5B5D4F8E
:100A2000A40FB52FB11D2C930196861798F38091D2
:100A30006502680F6093650280E0089581E0089583
:100A40001092310381E08093300310920B0361E038
:100A500082E10E94150361E083E10E941503E9EB46
:100A6000F0E080818E7F808380818D7F808388E429
:100A70008093B80085E48093BC000895CF93DF9302
:100A800091E0909344028823B9F0C091B800D091CE
:100A9000BA008091BC008A7B8093BC0060E082E158
:100AA0000E94150360E083E10E9415030E94200567
:100AB000D093BA00C093B800DF91CF9108958F9280
:100AC0009F92AF92BF92CF92DF92EF92FF920F93DD
:100AD0001F93CF93DF93D0915A03D13208F0D7C040
:100AE000182FC09159030E949F036B017C018091D4
:100AF000310381116BC082E0809331031093300386
:100B00008FEF80932F0310922E03D0932D03A9E330
:100B1000B3E0EDE0F3E080E0D81391C010920C0355
:100B200080910C03CC0FC82BC0930C0380910B0356
:100B3000813009F088C010920B030E949F036B0163
:100B40007C0180910C038093BB00809133039091D2
:100B50003403A0913503B0913603892B8A2B8B2B5C
:100B6000A1F00E949F030091330310913403209160
:100B70003503309136036C197D098E099F090617DC
:100B800017072807390708F442C08091BC0083FD8D
:100B9000D8CF85EC8093BC000E949F036B017C0141
:100BA00080913103823009F450C080912F038F3F30
:100BB00009F46FC080912F03803209F46CC08091DA
:100BC0002F03803309F469C084E026C08091330389
:100BD00090913403A0913503B0913603892B8A2B71
:100BE0008B2B09F484CF0E949F0380903303909055
:100BF0003403A0903503B09036036C197D098E093B
:100C00009F0986169706A806B90608F070CF80914E
:100C100032030E943E0585E01092380310925A0379
:100C200010923703DF91CF911F910F91FF90EF90BA
:100C3000DF90CF90BF90AF909F908F9008959D913F
:100C400091938F5F69CF85EEA5CF8091330390910B
:100C50003403A0913503B0913603892B8A2B8B2B5B
:100C600009F49ECF0E949F03009133031091340337
:100C700020913503309136036C197D098E099F0947
:100C8000061717072807390708F08ACFC0CF81E079
:100C9000C3CF80E0C1CF82E0BFCF83E0BDCFCF9292
:100CA000DF92EF92FF920F931F93CF93DF93D82F92
:100CB000C62F613208F098C00E949F036B017C012F
:100CC0008091310381116BC081E080933103809367
:100CD00030039FEF90932F0310922E039C0F90935D
:100CE0002D0380930C0380910C03DD0FD82BD09340
:100CF0000C0380910B03813009F078C010920B0334
:100D00000E949F036B017C0180910C038093BB00C8
:100D10008091330390913403A0913503B091360351
:100D2000892B8A2B8B2BA1F00E949F030091330308
:100D30001091340320913503309136036C197D09ED
:100D40008E099F09061717072807390708F448C0B6
:100D50008091BC0083FDD8CF85EC8093BC000E94BD
:100D60009F036B017C0180913103813009F440C005
:100D700080912E038C1710F4C0912E03EDE0F3E068
:100D8000ADEDB2E080E08C1355C08C2FDF91CF9198
:100D90001F910F91FF90EF90DF90CF900895809179
:100DA000330390913403A0913503B0913603892B1E
:100DB0008A2B8B2B09F484CF0E949F03009133036D
:100DC0001091340320913503309136036C197D095D
:100DD0008E099F09061717072807390708F070CFF3
:100DE000809132030E943E05C0E0CFCF85EEB5CFA3
:100DF0008091330390913403A0913503B091360371
:100E0000892B8A2B8B2B09F4AECF0E949F03009174
:100E100033031091340320913503309136036C195C
:100E20007D098E099F09061717072807390708F05B
:100E30009ACFD6CF91919D938F5FA5CF0895E091E2
:100E4000DC028091DB02E81730F4F0E0E352FD4F62
:100E5000808190E008958FEF9FEF08959091DC02DC
:100E60008091DB022FEF3FEF981748F4E92FF0E075
:100E7000E352FD4F208130E09F5F9093DC02C90177
:100E80000895CF92DF92EF92FF920F931F93CF932B
:100E9000DF937C01CB018A0120913703222389F063
:100EA000EB016B01C40ED51ECC15DD0569F069910F
:100EB000D701ED91FC910190F081E02DC7010995DA
:100EC000F3CF642F0E94F904C801DF91CF911F91E5
:100ED0000F91FF90EF90DF90CF900895CF93DF9325
:100EE0001F92CDB7DEB76983209137032223F9F033
:100EF00020915A03203258F021E030E0FC01338386
:100F0000228390E080E00F90DF91CF91089580914F
:100F10003803E82FF0E0E75CFC4F998190838F5F06
:100F20008093380380935A0381E090E0ECCF61E036
:100F3000CE0101960E94F904F7CFCF93C82F81E02C
:100F40008093370382E580935903109238031092FF
:100F50005A0388E994E00E946E076C2F88E994E0B8
:100F60000E946E0781E00E945F056AE070E080E009
:100F700090E0CF910C94C40390E080E00895DF925C
:100F8000EF92FF920F931F93CF93DF93EC01D62E36
:100F90007A01890188818C3008F067C061E08D2D6D
:100FA0000E9443038881282F30E0F901EE0FFF1FD4
:100FB000E20FF31FEC55FB4F9D2D9F736081607C0A
:100FC000692B608320E232E02E193F0937FF02C00F
:100FD0002D5F3F4F3595279535952795298320E639
:100FE00039E0201B310B37FF02C02D5F3F4F359595
:100FF0002795359527952A832CE0622F0E94DF27BD
:10100000829FB001112430E020E0AB01420F531F5A
:10101000FA01EE0FFF1FE40FF51FEC55FB4F908117
:1010200096FD16C02F5F3F4F2C30310571F78111AF
:101030000FC01092800082E08093810010928500A2
:1010400010928400B19A80916F00826080936F004B
:10105000E8818E2F90E0FC01EE0FFF1FE80FF91FD3
:10106000EC55FB4F8081806480838881DF91CF9134
:101070001F910F91FF90EF90DF900895CF938630EE
:10108000B0F421E030E0082E02C0220F331F0A9492
:10109000E2F74091C5025091C602672B51F42095AA
:1010A0003095242335233093C6022093C502CF9177
:1010B0000895242B352B3093C6022093C5029091BE
:1010C00042029111F4CFC82F0E947F03BC018C2FE4
:1010D000CF910C94B3005F926F927F928F929F9208
:1010E000AF92BF92CF92DF92EF92FF920F931F9336
:1010F000CF93DF93833008F061C0D1E0D80FDD0FCC
:10110000DD0FDD0F5D2ED53110F044E1542EC62FDA
:10111000082FD8508D2E912CC401880F991F9C0147
:1011200022503C4F5901D12CC12C10E077247394EC
:10113000D515C8F58EEF8D0F8231F8F4F601E80D64
:10114000F91DE75BFB4F90819230B8F48C2F87211B
:1011500066246394811101C0612C7601EE0CFF1CA2
:10116000913089F417293FE5E30EF11CF501EE0DEE
:10117000FF1D862D90E091838083770CDF5F8FEFDA
:10118000C81AD80AD5CF882371F3F701E15AFF4F67
:10119000EA0DFB1D80819181019729F362E08D2F7B
:1011A0000E944303E0CF011119C0F8948BB16C2F5A
:1011B00068276C7F612368276BB97894DF91CF91A2
:1011C0001F910F91FF90EF90DF90CF90BF90AF9065
:1011D0009F908F907F906F905F9008950130D1F431
:1011E000C123F89495B1812F8F73809589239C2F0B
:1011F0009F73892B85B988B1612F62956695669535
:10120000637060956823C295C695C695C370C62B5A
:10121000C8B9D3CF1F70F89498B1812F880F880F69
:1012200080958923C123CC0FCC0FC82BF1CF8F928F
:101230009F92AF92BF92CF92DF92EF92FF920F9365
:101240001F93CF93DF93EB01843108F098C0082FF0
:1012500010E0F801E75BFB4F9081933009F49CC0EC
:10126000943009F08CC08250823108F081C0F801BE
:10127000E65DFD4FC080D12C7601EE0CFF1C4B01CA
:10128000603282E078070CF03EC0F701EC0DFD1DE6
:10129000E556FA4F8181A8E88A2E912C881A910888
:1012A00087FD9394880C991C880C991C092C000CC0
:1012B000AA08BB08828128E532E0281B310987FD96
:1012C0003395220F331F220F331F032E000C440BC4
:1012D000550B281939094A095B09DB01653B710582
:1012E00014F0A4EBB0E0B7FF02C0B0E0A0E00E94B1
:1012F0005D2524EB30E040E050E00E943325820E73
:10130000931EA41EB51EF701EC0DFD1DE556FA4F08
:1013100020812C3068F5318188E890E0831B9109A9
:1013200037FD9395880F991F880F991F8816990686
:101330007CF0328188E592E0831B910937FD93951B
:10134000880F991F880F991F881699060CF4C401FD
:101350000297880F991F4FB7F89430E0F901EE0F0C
:10136000FF1FE20FF31FEC55FB4F928381834FBFAA
:10137000000F111FF801E35AFB4FD183C083DF91A7
:10138000CF911F910F91FF90EF90DF90CF90BF9082
:10139000AF909F908F9008957B01D82F833041F0BC
:1013A0008BEF800F823020F087EF800F833058F46E
:1013B00061E08D2F0E944303E114F10461F460E0C9
:1013C0008D2F0E941503000F111FF801E35AFB4FE8
:1013D000F182E082D4CF8FEFE816F10411F461E0DE
:1013E000EFCFF801E458FF4FE491E33021F148F4E6
:1013F000E130B9F0E230D1F080E8E816F1047CF792
:10140000DECFE73011F1E83041F1E430A9F7809107
:101410008000806280938000F0928B00E0928A00CE
:10142000D2CF84B5806884BDE7BCCDCF84B580625F
:1014300084BDE8BCC8CF8091800080688093800024
:10144000F0928900E0928800BECF8091B000806861
:101450008093B000E092B300B6CF8091B00080627C
:101460008093B000E092B400AECF9EEF980F92311F
:1014700080F4E82FF0E0DF01A75BBB4F9C91913037
:1014800041F4EE0FFF1FE35AFB4F608371830C940E
:10149000150308950F931F93CF93082F10E0F801C1
:1014A000ED56FD4F9081C62FC923025C1D4F41119F
:1014B00004C0D8019C919C1771F1682F8091FE03A4
:1014C0009091FF036F706069DC01ED91FC910190D8
:1014D000F081E02D09958091FE039091FF036C2F20
:1014E0006F77DC01ED91FC910190F081E02D099581
:1014F0008091FE039091FF036C2F70E0660F672FC1
:10150000661F770BDC01ED91FC910190F081E02DDD
:101510000995F801C083CF911F910F9108958330F1
:1015200040F5282F30E0F901EA56FD4F6083672B24
:1015300001F12D563D4FF9016081811106C099B12D
:101540009C7F692341E00C944A0A813049F493B1AD
:1015500026B19F73F0E42F9F90011124922BF1CFBD
:1015600026B130E035952795359527952F70622364
:10157000E9CF0895A82FB0E0A65DBD4FEC918E2F66
:1015800090E0FC01EE0FFF1FE80FF91FE556FA4F40
:101590008081282F30E0F901EE0FFF1FE20FF31FCB
:1015A000EC55FB4F90819F7B90832CE0622F0E9433
:1015B000DF27829FC001112430E020E0AC01420F00
:1015C000531FFA01EE0FFF1FE40FF51FEC55FB4F01
:1015D000408146FD11C02F5F3F4F2C30310571F720
:1015E0001092810082E08093810081E080938100ED
:1015F0008093800010926F008C9190912802891343
:1016000008C0882319F08150809328028FEF8C93B3
:1016100008959923D9F3E0912902EF5FE09329021D
:10162000F0E0E750FE4F8083F1CFFC0101900020F5
:10163000E9F73197BF01681B790BAC0181E70C9486
:10164000E200CF93DF93DB01909128029C3078F584
:1016500030912902682F70E0FB01E65DFD4F3323D6
:10166000E1F0C32FD0E0C750DE4F88818083315036
:1016700030932902808123E0829FC0011124855686
:101680009A4F1A161B0674F4141615065CF49A0188
:10169000AD01DF91CF910C94BF0790839F5F909332
:1016A0002802E8CF20E639E040E252E0F2CF83E3BF
:1016B00091E0DF91CF910C94150B8F929F92AF9296
:1016C000BF92EF92FF920F931F93CF93DF93CDB70B
:1016D000DEB7A1970FB6F894DEBF0FBECDBF7C0179
:1016E000FA01CB0119A2223008F42AE08E010F5D25
:1016F0001F4F822E912CB12CA12CBF01A50194016A
:101700000E946525F901CA016A3074F5605DD8014F
:101710006E938D01232B242B252B79F790E080E00D
:10172000109789F0FD0101900020E9F73197AF0192
:101730004A1B5B0BD701ED91FC910280F381E02DF8
:10174000B801C7010995A1960FB6F894DEBF0FBE88
:10175000CDBFDF91CF911F910F91FF90EF90BF9080
:10176000AF909F908F900895695CD1CFFF920F93B7
:101770001F93CF93DF93CDB7DEB72C970FB6F894B6
:10178000DEBF0FBECDBF66E082E50E944F06F82E99
:101790001092DC028093DB028E010F5F1F4F80915D
:1017A000DC02F81649F088E994E00E942E07F8015F
:1017B000819391938F01F3CF89819A819093FE0257
:1017C0008093FD028B819C81909300038093FF02A4
:1017D0008B859C852D813E81220F331F220F331F65
:1017E000AC01559547955595479543705527242B42
:1017F000352B30930203209301032F813885220F6C
:10180000331F220F331FAC01E4E055954795EA954D
:10181000E1F743705527242B352B30930403209395
:10182000030329853A85220F331F220F331FAC0192
:10183000A6E055954795AA95E1F743705527242BC7
:10184000352B30930603209305039C01209530959A
:1018500021703327309308032093070321E030E001
:1018600081FF02C030E020E030930A032093090397
:1018700060E080E02C960FB6F894DEBF0FBECDBFBF
:10188000DF91CF911F910F91FF900C949D078F9244
:101890009F92AF92BF92CF92DF92EF92FF920F93FF
:1018A0001F93CF93DF937C01EB016C0182E0C80EA4
:1018B000D11C4701E5E08E0E911C10E000E0F6011E
:1018C00041916F0150E070E060E02AE0CE010E949B
:1018D0005D0B5C01E881F9810190F081E02D6EE201
:1018E000CE0109958A0D9B1D080F191FC814D90434
:1018F00031F7F701458150E070E060E02AE0CE0169
:101900000E945D0B800F911FDF91CF911F910F916E
:10191000FF90EF90DF90CF90BF90AF909F908F900F
:1019200008959F92AF92BF92CF92DF92EF92FF9273
:101930000F931F93CF93DF93C82ED12CE601C25093
:10194000DC4FFE01E55BFF4F90819F3709F49FC09C
:10195000963061F490914102992341F0663071050F
:1019600029F0109241029FEF909300017B01182F04
:101970000EEF080F023108F564307105F1F0F60141
:10198000E65DFD4F80818C30C0F490E0FC01EE0FED
:10199000FF1FE80FF91FE556FA4FE0818E2F90E008
:1019A000FC01EE0FFF1FE80FF91FEC55FB4F808184
:1019B00086FF03C0812F0E94BA0A52EF952E910E26
:1019C00085E0891558F061E070E032E0E316F1043B
:1019D00011F070E060E0892D0E943E080231C8F4E9
:1019E000E12FE695E695E695F0E0ED56FD4F208176
:1019F000312F377081E090E001C0880F3A95EAF707
:101A0000E114F10421F03BE0E316F10401F5822B2F
:101A100080835601AA0CBB1CF501E35AFB4F1182CF
:101A200010828CE0E816F10408F0C4C0F701E55E0E
:101A3000F24F0C94EB273B0D680D2A0D790D970D95
:101A4000DA0DCE0DDA0DDA0DDA0D470D530D809556
:101A50008223DECF35E03915D0F0023120F460E08A
:101A6000812F0E944303C55BDF4F88818F3779F058
:101A700082E088830CC0023150F460E0812F0E9424
:101A80004303C55BDF4F88818F3709F01882DF91F0
:101A9000CF911F910F91FF90EF90DF90CF90BF906B
:101AA000AF909F900895023190F762E0812F0E94DD
:101AB0004303C55BDF4F88818F3711F08BE088834C
:101AC000F501E35AFB4F81E090E091838083DFCF03
:101AD0000231E8F660E0812F0E94150361E0812F5A
:101AE0000E944303C55BDF4F88818F3781F281E01D
:101AF000C0CF133041F08BEF810F823020F087EFA1
:101B0000810F833020F661E0812F0E94430361E062
:101B1000812F0E94430360E0812F0E941503C55B63
:101B2000DF4F88818F3709F4B2CF83E0A2CF023133
:101B300008F0ADCFC55BDF4F88818F3711F084E0AF
:101B40008883F601E65DFD4F80818F3FA9F090E02C
:101B5000FC01EE0FFF1FE80FF91FE556FA4FE08179
:101B60008E2F90E0FC01EE0FFF1FE80FF91FEC55E0
:101B7000FB4F808186FD8BCF4FEF5FEF6FEF7FEFE5
:101B8000812FDF91CF911F910F91FF90EF90DF9008
:101B9000CF90BF90AF909F900C94210B12511230B8
:101BA00008F075CFC55BDF4F88818F3709F46FCFA1
:101BB00086E05FCF87E491E0DF91CF911F910F9195
:101BC000FF90EF90DF90CF90BF90AF909F900C94DC
:101BD000150B0F931F93CF93DF9381E08093420205
:101BE00080914102882329F0109241028FEF809367
:101BF0000001109296021092930210923E021092EF
:101C000097021092940210923F0210929802109242
:101C10009502109240020AE212E0C0E0DFEF82EF8C
:101C20008C0F62E070E0863030F08EEF8C0F8231E6
:101C300028F461E070E08C2F0E94910CF801D193A0
:101C40008F01CF5FC43159F71092C6021092C502BE
:101C5000109229021092280210924202DF91CF9135
:101C60001F910F910895EF92FF920F931F93CF93BF
:101C7000DF93D82F8B01C42FF22E6F3F760709F424
:101C800048C081E080933703D09359031092380302
:101C900010925A0388E994E00E946E078F2D0E94EB
:101CA0005F058091260290912702009711F00E9413
:101CB00094036C2FC13208F060E28D2F0E944F0612
:101CC0001092DC028093DB02EC2EF12C90E0E816FF
:101CD000F9060CF588E591E00E94150BD0930602F9
:101CE0000093070206E012E0C801865092408E156C
:101CF0009F05BCF40F5F1F4F9091DB028091DC02C7
:101D0000981779F088E994E00E942E07F801818302
:101D1000EBCF00E0CECF8E159F0504F785E791E06D
:101D2000DBCF62E06C0F46E052E087E7DF91CF91B6
:101D30001F910F91FF90EF900C94E2000F931F936F
:101D400090E0FC01E255FF4F7491FC01E656FF4F15
:101D5000E4916111672FF0E0EE0FFF1FE057FF4F96
:101D60008591949189019A013F70462F672F0E94B7
:101D70001021611571058105910529F06F5F7F4F75
:101D80008F4F9F4F9F701F910F9108952F923F92F9
:101D90004F925F926F927F928F929F92AF92BF927B
:101DA000CF92DF92EF92FF920F931F93CF93DF9327
:101DB000CDB7DEB729970FB6F894DEBF0FBECDBF03
:101DC000F62E8A01833C09F4E7C408F0AAC08637DE
:101DD00009F4BFC208F069C08D3609F464C4F8F490
:101DE000893609F4A2C48B3609F4FEC329960FB6CE
:101DF000F894DEBF0FBECDBFDF91CF911F910F9141
:101E0000FF90EF90DF90CF90BF90AF909F908F901A
:101E10007F906F905F904F903F902F9008958F36F6
:101E200009F4BCC3803711F7B4E0B617F8F6FA012D
:101E3000F0808EEF8F0D8231C8F6E180C280D380B2
:101E40001481EF2DF0E0E65DFD4F80818C30C0F411
:101E500090E0FC01EE0FFF1FE80FF91FE556FA4F67
:101E6000E0818E2F90E0FC01EE0FFF1FE80FF91FBD
:101E7000EC55FB4F808186FF03C08F2D0E94BA0A6C
:101E8000F0E81F9FA00111244D0D511D20E8C29EB6
:101E9000B00111246E0D711D8F2D0E94210B64E085
:101EA00070E08F2D0E94910CA1CF803C09F44EC4AC
:101EB000F0F4883709F433C38A3709F097CF31E05B
:101EC000361708F093CFDA0111968C91B0E88B9F0A
:101ED00090011124FA018081820F932F911D0097A8
:101EE00009F459C390930201809301017FCF813C93
:101EF00009F445C4823C09F079CF0E94B60B0091E9
:101F000007031091080380EF90E00E949E0282EC8C
:101F100090E00E949E02C8018F7799270E949E023E
:101F200065C4893C09F44BC508F0E9C0863C09F456
:101F300062C498F4843C09F43CC4853C09F056CF53
:101F40000E94B60B009103031091040380EF90E010
:101F50000E949E0285EC90E038C4873C09F458C486
:101F6000883C09F043CFDA0114962C911497CC9059
:101F7000D12CF12CE12C59E1CC0CDD1CEE1CFF1C0A
:101F80005A95D1F711968C9190E0B0E0A0E062E113
:101F9000880F991FAA1FBB1F6A95D1F7C82AD92A93
:101FA000EA2AFB2AF801828190E0B0E0A0E07BE021
:101FB000880F991FAA1FBB1F7A95D1F7C82AD92A63
:101FC000EA2AFB2A838190E0B0E0A0E0E4E0880FF9
:101FD000991FAA1FBB1FEA95D1F7C82AD92AEA2A56
:101FE000FB2A822F90E0B0E0A0E0F3E0B695A79541
:101FF00097958795FA95D1F7C82AD92AEA2AFB2A14
:1020000030E0B9017595679575956795F62FF17074
:10201000BF2ED80115961C911F73B6E0220F331FF7
:10202000BA95E1F7122B60E0812F0E94430320E470
:1020300032E44FE050E0C114D104E104F10411F0A6
:10204000A70196016B2D812F0E949E0E6B017C01D2
:1020500080EF90E00E949E0288EC90E00E949E0239
:10206000C701B601B9E19695879577956795BA95B9
:10207000D1F70E949502C701B60102E196958795B6
:10208000779567950A95D1F76F77772788279927EE
:102090000E949502C701B6012BE09695879577952A
:1020A00067952A95D1F76F777727882799270E9418
:1020B0009502C701B60134E09695879577956795A7
:1020C0003A95D1F76F777727882799270E9495024D
:1020D00043E0CC0CDD1CEE1CFF1C4A95D1F7C70178
:1020E000B6016877772788279927212F229526958B
:1020F0002770622B0E9495021F71812F3EC38C3C7A
:1021000011F40C94EA1B08F0CDC08A3C09F4B7C462
:102110008B3C09F06BCE82E08093C9041092CD0411
:102120008FB7F894C0909902D0909A02E0909B02E9
:10213000F0909C028FBF30EDC30E37E0D31EE11C40
:10214000F11C22242394312C80ED94E09093D6024C
:102150008093D5028091CD0490E09093D802809333
:10216000D70280919A0590E09093DA028093D90289
:102170008091C904853011F00C94D61B8091D20453
:102180009091D304885891098D35910508F008C5C0
:102190008091CD04843009F0D7C48091D40490910B
:1021A000D5048097479708F0CFC48091D6049091CA
:1021B000D7040997099708F0C7C41092D402109267
:1021C000D3028FEF9FEFDC018093CF029093D00278
:1021D000A093D102B093D20283E090E09093CC021E
:1021E0008093CB02C090CF02D090D002E090D10279
:1021F000F090D2021092CF021092D0021092D1022F
:102200001092D20280EF90E00E949E028BEC90E050
:102210000E949E02C701B60129E1969587957795A0
:1022200067952A95D1F70E949502C701B60132E160
:1022300096958795779567953A95D1F76F77772734
:10224000882799270E949502C701B6014BE0969511
:102250008795779567954A95D1F76F777727882780
:1022600099270E949502C701B60154E0969587957B
:10227000779567955A95D1F76F77772788279927AC
:102280000E94950263E0CC0CDD1CEE1CFF1C6A95DD
:10229000D1F7C701B60168777727882799270E9469
:1022A0009502A4C28E3C11F40C940F1C10F40C94F3
:1022B000031C8F3C09F09ACDDA012C91822F90E01B
:1022C00095958795182F1F732170322E19821A82C7
:1022D0001B821C821D8262E0812F0E94430361E009
:1022E000812F0E9415036AEF70E080E090E00E9469
:1022F000C40361E0812F0E94430360E0812F0E94AC
:10230000150364E170E080E090E00E94C40361E0A6
:10231000812F0E9415038BE990E00197F1F762E0AD
:10232000812F0E94430383E290E00197F1F7B1E12E
:10233000EB2EB7E2FB2E812F0E94EC02892B11F0CD
:102340000C94F91CB1E0EB1AF108A9F701E00C9428
:10235000081DDA0111969C91119795FF05C081E93E
:1023600091E00E94150B42CDFA01808131E096FB8D
:10237000222720F9232798719830A9F1F0F49111C0
:1023800035CD309337038093590310923803109260
:102390005A0382E0E82EEF14F0F4F801EE0DF11D7F
:1023A00061816795662767958081680F88E994E069
:1023B0000E946E07E394E394EECF9031B1F198312F
:1023C00009F014CD2091000112160CF463C08FEFB8
:1023D000809300010BCD81E00E945F0583E191E0D5
:1023E0000197F1F703CD12969C91129713964C9199
:1023F000B6E06B1313C0E0E84E9FB0011124690FE3
:10240000711DD80115964C9115974795442747950E
:1024100014969C91490F0E94330EE8CC47954427AF
:102420004795490F6FEF7FEFF6CFE0910001E7305E
:102430001CF081EB91E095CF12963C911297139688
:102440009C91B6E06B131FC0F0E89F9FA001112480
:10245000430F511DD80115969C9115979795992773
:10246000979514963C91930FEF5FE0930001B5E0D0
:10247000EB02F0011124E356FD4F80835283418328
:1024800093832483B3CC979599279795930F4FEF18
:102490005FEFEACF90E0622F022E000C770B35E061
:1024A000492F50E06417750764F0349FF001359FA1
:1024B000F00D1124E356FD4F4081481719F09F5F3E
:1024C000EFCF90E085E0492F50E0641775071CF1CD
:1024D0009830F8F4FA0131968E9FD0018F9FB00D9D
:1024E0001124A356BD4F3C91849FF001859FF00DB0
:1024F0001124E356FD4F308311964D915C91129754
:102500005283418313963C911397338314963C91E5
:1025100034839F5FD8CF21502093000167CCFA010C
:102520008181F0E88F9F90011124DA018C91820F54
:10253000932F911D009721F09093270280932602FC
:1025400080914102811152CC10E08EEE810F8230D9
:1025500028F466E070E0812F0E94910C1F5F143117
:10256000A1F781E0809341021092DC021092DB021D
:102570001092380310925A030E94200586EA91E0D7
:102580009093900280938F0287EA91E09093920259
:10259000809391022BCC81E090E0A4CCF1E0F6177F
:1025A00008F024CCDA0111966C9170E0B2E0FB16D1
:1025B000B1F0FA018281F0E88F9FC0011124682BED
:1025C000792B23E0F21659F0DA0113968C9190E002
:1025D00090E4899F902D88271124682B792BF8018E
:1025E00080810E94170902CC80EF0E947E018CE658
:1025F0000E947E011EEF1231F0F480E00E947E0105
:1026000081E00E947E018BE00E947E0181E00E94B9
:102610007E0181E00E947E0181E00E947E01112303
:1026200021F08DEF810F823030F485E00E947E0131
:1026300081E00E947E0184EF810F863078F482E091
:102640000E947E018AE00E947E018DEF810F823020
:1026500038F089EF810F833048F402C01130A9F7B8
:1026600083E00E947E0188E00E947E01123130F4F6
:1026700084E00E947E018EE00E947E0180EF810F47
:10268000823030F486E00E947E0181E00E947E016B
:102690008FE70E947E011F5F123109F0ACCF87EFF8
:1026A0000E947E01A3CB662309F4A0CBDA010C9132
:1026B00080EF0E947E018EE60E947E01802F0E94A4
:1026C0007E01043160F710E0F801E75BFB4F808189
:1026D0000E947E01000F111FF801E35AFB4F7F019A
:1026E00080818F770E947E01D7018D919C919C0102
:1026F0002078232B39F0880F892F881F990B8F772B
:102700000E947E01F801E35AFB4F808191819C0178
:102710002227307C232B19F2990F880B990F982FC1
:10272000881F8F770E947E01BACF80EF0E947E01C2
:102730008AE60E947E0112EF8FE7163008F4812F9F
:102740000E947E011F5F1630B9F7A9CF0E94B60B19
:102750000091FD021091FE0280EF90E00E949E0227
:1027600080EC90E00E949E02C8018F7799270E941A
:102770009E02001F0027001F802F90E0CFCB0E94F9
:10278000B60B0091FF021091000380EF90E00E94D1
:102790009E0281EC90E0E6CF0E94B60B0091090307
:1027A00010910A0380EF90E00E949E0283EC90E07B
:1027B000B0CB0E94B60B009101031091020380EF91
:1027C00090E00E949E0284EC90E00E949E02C8016C
:1027D0008F7799270E949902C801880F892F881F37
:1027E000990B91958F7799270E94990287EF90E036
:1027F0000E949E02FBCA0E94B60B00910503109135
:10280000060380EF90E00E949E0286EC90E0DDCF10
:10281000FA018481C080D12CF12CE12C59E1CC0C3F
:10282000DD1CEE1CFF1C5A95D1F7418150E070E091
:1028300060E0A2E1440F551F661F771FAA95D1F7EC
:10284000C42AD52AE62AF72A428150E070E060E0E7
:10285000BBE0440F551F661F771FBA95D1F7C42AF6
:10286000D52AE62AF72A438150E070E060E094E040
:10287000440F551F661F771F9A95D1F7C42AD52A92
:10288000E62AF72A482F50E070E060E023E07695D2
:102890006795579547952A95D1F7C42AD52AE62AF0
:1028A000F72AA6802581F0E42F9F9001112490E063
:1028B000982F88279295990F907E282B392BB12C31
:1028C000C50196958795282B392BD80117969C9092
:1028D0002032310510F430E020E0B1E6CB16BAEE3C
:1028E000DB06E104F10430F040E6C42E4AEED42EBB
:1028F000E12CF12CF8942115310529F4C701B6011A
:102900000E94C40373CA50E040E060E271EA87E0CD
:1029100090E00E94332529013A018901A4EFB1E03A
:10292000A70196010E945225A30192010E946525EC
:1029300029013A01B694BA2CAA24B794A7949A28EC
:10294000892D90E0FC01E255FF4FD49086569F4FB1
:10295000FC012491E22FF0E0EE0FFF1FEE58FF4F35
:10296000E590F490FC018491E82FF0E0EE0FFF1F5A
:10297000E859FF4FA591B4918C918D298C93812CAE
:10298000912C5401CD2CC09484149504A604B70452
:10299000A1F0D7018C918D298C93C8010E949403DA
:1029A000F70180818C218083C8010E949403FFEF8E
:1029B0008F1A9F0AAF0ABF0AE7CF789417CAFA01A5
:1029C0008181282F30E0C080F0E1CF9E600111248A
:1029D000C90143E0969587954A95E1F7C82AD92A17
:1029E000D8011396AC901397B12C12969C91129724
:1029F000E92EF12CEE0CFF1C322F2227E22AF32ABB
:102A0000C50176E0969587957A95E1F7E82AF92A47
:102A100014968C901497E5E0AA0CBB1CEA95E1F79C
:102A2000912CC4019695879596958795A82AB92AE1
:102A300015961C9180FA17F961E0812F0E944303DB
:102A4000959487949924939400E080FC02C0912C83
:102A500001E0602F812F0E941503C6010E9494039C
:102A6000692D812F0E941503C7010E949403602FD6
:102A7000812F0E941503C5010E949403B7C9FA0172
:102A8000D180F0808F2D880FFD2CF294F694F6946F
:102A9000B3E0FB22F82AE3808281880F1E2D129575
:102AA000169516951370182B61E08F2D0E94430325
:102AB00060E08F2D0E9415038D2D8F7190E00E9494
:102AC000940361E08F2D0E9415038E2D8F7190E08D
:102AD0000E94940360E08F2D0E94150360E0812F17
:102AE0000E9443032FEF3FEF40E050E061E0812F71
:102AF0000E949E0E6B0180EF90E00E949E028AEC85
:102B000090E00E949E028D2D869590E00E94990291
:102B1000C60196958795969587958F7799270E94F8
:102B2000990285E0CC0CDD1C8A95E1F7F0E6CF2216
:102B3000DD24812F8695869586959601282BC901DF
:102B40000E9499021770D9CA8091CD04843440F153
:102B50008091D4049091D504825491098E9700F508
:102B600090E080E040E050E0BA01FC01EA52FB4F07
:102B700020813181295031092930310588F4FC0147
:102B8000E852FB4F20813181275131092231310533
:102B900028F1208131812650310927303105B8F1E3
:102BA0008091CD048A3108F467C08091D00490915F
:102BB000D104843F914080F51092D4021092D30248
:102BC0008FEF9FEFDC018093CF029093D002A09310
:102BD000D102B093D2028BE090E000CB440F551F9E
:102BE000661F771F416004968038910509F0BDCFBC
:102BF00080E290E09093D4028093D3024093CF027E
:102C00005093D0026093D1027093D202E5CA440F70
:102C1000551F661F771FE7CF8091D2049091D30490
:102C200085974B9748F5E9ECF4E082E090E0812C41
:102C3000912C54019C012F5F3F4F4091CD044217CE
:102C4000130609F00CF4F6C043855485475051092A
:102C50004730510508F0EDC02585368523513109EF
:102C60002F30310508F4D7C0258536852A50310923
:102C70002930310508F4D8C08091CD048A3108F498
:102C800041C08091D0049091D1048032934008F4E7
:102C900093CF8091D2049091D304C697869790F5F4
:102CA0008091D4049091D504C697869758F5E8EDA5
:102CB000F4E083E090E0812C912C54019C012F5F83
:102CC0003F4F4091CD044217130609F00CF4DAC0CF
:102CD000DF0112974D915C914C5051094B305105D9
:102CE00008F0CFC020813181255231092B313105C7
:102CF00008F4B9C0208131812C5031092A303105C6
:102D000008F4BAC08091CD04823238F18091D204A7
:102D10009091D3040697079700F5E9ECF4E082E080
:102D200090E040E050E0BA01DC0111962091CD0422
:102D30002A171B0609F00CF4D1C0238534852E51C7
:102D400031092731310508F4B4C0238534852C506E
:102D500031092B30310508F4BBC01F821E823A8234
:102D600029828091CD048D3008F4E9C049E753E011
:102D7000BE016A5F7F4FCE0101960E948604892BB7
:102D800009F0DDC049E753E0BE016A5F7F4FCE0125
:102D900001960E948604019709F0D1C049E753E0EB
:102DA000BE016A5F7F4FCE0101960E9486048C01AE
:102DB000892B09F0C4C0412C512C32012091CD0443
:102DC00089819A812817190609F00CF4A9C049E7EE
:102DD00053E0BE016A5F7F4FCE0101960E948604D8
:102DE0005C0149E753E0BE016A5F7F4FCE01019667
:102DF0000E948604E1E0AE16B10409F088C0892B78
:102E000009F09DC0440C551C661C771C689440F862
:102E10000F5F1F4FD3CF880C991CAA1CBB1C689452
:102E200080F80296349606CF880C991CAA1CBB1C0D
:102E3000F8CFC9010197959587959093D402809317
:102E4000D3020C972CF41092D4021092D30214CF18
:102E50008092CF029092D002A092D102B092D20280
:102E600084E090E0BBC9880C991CAA1CBB1C689428
:102E700080F80296349622CF880C991CAA1CBB1CA1
:102E8000F8CFC9010197959587959093D4028093C7
:102E9000D3020C972CF41092D4021092D30232CFAA
:102EA0008092CF029092D002A092D102B092D20230
:102EB00092CE440F551F661F771F416025853685CA
:102EC0003496235031092530310538F402962CCF41
:102ED000440F551F661F771FF1CFCD0101979595C0
:102EE00087959093D4028093D30240972CF410924C
:102EF000D4021092D30231CF4093CF025093D0022C
:102F00006093D1027093D2028CE090E067C9AB2845
:102F1000B1F40197A1F4440C551C661C771C78CFC2
:102F20001093D4020093D3024092CF025092D00269
:102F30006092D1027092D20281E090E04FC91F826C
:102F40001E823A8229828091D7029091D802181667
:102F500019060CF07EC0E091D502F091D60222E075
:102F600030E03A8329838281938189974E9708F0D4
:102F700070C083E090E09A838983848195810B9768
:102F80000A9708F066C04CEB51E0BE016A5F7F4FC4
:102F9000CE0101960E9486048C01892B09F059C04C
:102FA0004CEB51E0BE016A5F7F4FCE0101960E945B
:102FB0008604019709F04DC0412C512C320120911B
:102FC000D7023091D80289819A81821793070CF039
:102FD000E5C04CEB51E0BE016A5F7F4FCE01019628
:102FE0000E9486045C010330110539F14CEB51E07D
:102FF000BE016A5F7F4FCE0101960E9486044C019C
:103000000330110561F44CEB51E0BE016A5F7F4F64
:10301000CE0101960E94860488169906D1F4A11467
:10302000B10409F4AEC0AA94AB2899F4892889F4B4
:10303000440C551C661C771CAEC04CEB51E0BE0125
:103040006A5F7F4FCE0101960E948604A816B906DA
:1030500069F2E091D502F091D60282819381C69700
:10306000869778F5848195814B97459750F5DF01D8
:1030700016965F0126ECA20EB11C20E030E040E085
:1030800050E060E070E080E090E00D911C911197BD
:103090000950110908301105A0F412960D911C91E8
:1030A0001397015111090D30110508F487C01296CC
:1030B0000D911C911397045011090530110508F466
:1030C000A3C08091CD04893380F182819381895797
:1030D00091098335910548F584819581CA9789972F
:1030E00020F59F012A5F3F4F812C912C540143E032
:1030F00050E0D9016D917C9111976A507109693046
:10310000710598F412966D917C911397665171092F
:103110006131710508F47CC012966D917C91665006
:1031200071096730710508F4A3C08091CD04823223
:1031300009F0A3C0828193810A97099708F09DC086
:10314000A091CD04B0E0A150B048AA0FBB1FAE0FB4
:10315000BF1F8D919C910A97099708F08EC010921D
:10316000D4021092D3028FEF9FEFDC018093CF0245
:103170009093D002A093D102B093D20286E090E067
:103180002DC88A94892809F064CF440C551C661C0C
:10319000771C689440F80F5F1F4F11CF1093D40233
:1031A0000093D3024092CF025092D0026092D1029B
:1031B0007092D20282E090E00C94EE1001E00E9446
:1031C000F12721601496AA16BB0609F05ECF209362
:1031D000CF023093D0024093D1025093D20200E24A
:1031E0000E940C282093CD023093CE0285E090E01F
:1031F0009093CC028093CB0280E390E09093D40232
:103200008093D3020C94F21001E00E94F127DACFF0
:10321000D501C401880F991FAA1FBB1F4C015D0176
:10322000689480F84E5F5F4F2C5F3F4F4B335105E2
:1032300009F05FCF9F012A583F4FD9012D913C9152
:103240002A5031092930310508F06FCF2CE130E0E8
:103250003093D4022093D3028092CF029092D00276
:10326000A092D102B092D2028AE090E00C94EE10CB
:10327000880C991CAA1CBB1CD5CF828193818957CD
:1032800091098335910560F58091CD04813240F13B
:1032900084819581CA97899718F59F012A5F3F4FCE
:1032A000812C912C540143E050E0D9016D917C9127
:1032B00011976A5071096930710590F412966D91F9
:1032C0007C9113976651710961317105A0F11296D5
:1032D0006D917C91665071096730710508F458C092
:1032E000828193818C549109C59708F085C08091A3
:1032F000CD04843009F051C084819581809747972F
:1033000008F04BC0868197810997099708F045C05E
:103310001092D4021092D3028FEF9FEFDC018093C2
:10332000CF029093D002A093D102B093D20287E053
:1033300090E00C94EE10D501C401880F991FAA1FCC
:10334000BB1F4C015D01689480F84E5F5F4F2C5F9E
:103350003F4F4332510509F0A8CF9F012A5B3F4FF1
:10336000D9012D913C912A5031092930310508F0BD
:10337000B7CF20E130E03093D4022093D302809283
:10338000CF029092D002A092D102B092D202F6CE99
:10339000880C991CAA1CBB1CD8CF8091CD04843406
:1033A00058F18481958189549109C39728F59F012B
:1033B0002A5F3F4FBF016A577F4F812C912C5401E8
:1033C000D9014D915C9111974950510949305105EE
:1033D00098F412964D915C911397465151094131E1
:1033E000510508F4A3C012964D915C9146505109C5
:1033F0004730510508F4B9C08091CD048634C0F13E
:10340000828193810C970B9798F584819581099718
:10341000099770F5868197818C974F9748F580853D
:10342000918589974D9720F59F01265F3F4F812C0D
:10343000912C540145E050E0D9016D917C91119798
:103440006C5071096B30710598F412966D917C91F6
:1034500013976E5171096731710508F48BC012968C
:103460006D917C91695071096930710508F4B2C0A1
:103470008091CD04883508F4BCC082819381855841
:1034800091098B35910508F0B4C0848195818254EF
:1034900091098E9708F0ADC08F01045C1F4F8DE13C
:1034A00090E030E020E04091CD044450550B84176B
:1034B000950714F5A80142505109DA014D915C912C
:1034C000495051094830510508F093C0BC016F5F65
:1034D0007F4FD8014D915C9111974750510947306A
:1034E000510508F47CC04D915C914851510942311D
:1034F000510508F47BC0CB01019795958795909372
:10350000D4028093D3028A970CF473C0C901330F9D
:10351000AA0BBB0B8093CF029093D002A093D10251
:10352000B093D20289E090E00C94EE10D501C40172
:10353000880F991FAA1FBB1F4C015D01689480F87A
:103540002C5F3F4F6217730709F03ACF20E230E05B
:103550003093D4022093D3028092CF029092D00273
:10356000A092D102B092D202E2CE880C991CAA1C81
:10357000BB1CE6CFD501C401880F991FAA1FBB1F32
:103580004C015D01689480F84E5F5F4F2C5F3F4FA8
:103590004534510509F050CF9F0126573F4FD901BF
:1035A0002D913C912C5031092B30310508F060CF22
:1035B00020E230E03093D4022093D3028092CF02F5
:1035C0009092D002A092D102B092D20288E090E014
:1035D0000C94EE10880C991CAA1CBB1CD5CF220F92
:1035E000331F216002960C5F1F4F5DCF220F331FE8
:1035F000F9CF8091CD04803279F58281938106974D
:10360000069750F5848195810997099728F59F01C0
:103610002A5F3F4FBF01625C7F4F812C912C540188
:10362000D9014D915C911197465051094630510591
:1036300098F412964D915C91139749515109433179
:10364000510508F475C012964D915C91495051098D
:103650004930510508F48EC02091D7023091D8022C
:1036600039872887263031050CF49BC08F010A5F0B
:103670001F4F73E0272E312CE5ECCE2EEDE9DE2E28
:10368000ECE1EE2EE1E8FE2E8885998528163906B4
:103690000CF075C0D8016D917C91F8013497A08031
:1036A000B18090E080E00E94B0262B013C01B50182
:1036B00090E080E00E94B0264B015C012DEC3CECD8
:1036C0004CE45FE30E9462279B01AC01C301B2019D
:1036D0000E940326F0E0E0E087FD14C02DEC3CECF6
:1036E0004CE45FE3C301B2010E9462279B01AC017D
:1036F000C501B4010E940326E2E0F0E087FD02C0AC
:10370000E1E0F0E0A701960163E971E080E091E07B
:103710000E94CF276F01FF0FEE08FF08C626D726AD
:10372000E826F926BFEF2B1A3B0A0E5F1F4FACCFDE
:10373000D501C401880F991FAA1FBB1F4C015D0151
:10374000689480F82C5F3F4F6217730709F068CFC9
:103750002EE030E03093D4022093D3028092CF0247
:103760009092D002A092D102B092D2028FE090E06B
:103770000C94EE10880C991CAA1CBB1CE3CFC092C1
:10378000CF02D092D002E092D102F092D20280E237
:1037900090E09093D4028093D3028FEF9FEF0C942C
:1037A000EE10E2E0E093C9041092CD042FB7F89434
:1037B0008091990290919A02A0919B02B0919C02F3
:1037C0002FBF8C159D05AE05BF0510F40C94A410F9
:1037D0000C94F210F89482E08093B0008093B100D2
:1037E00094E69093B3001092B200809370007894A6
:1037F0008093C9041092CD048091CA0460E00E94B5
:1038000043030C94F60E8091B10084608093B10064
:103810008091B00081608093B0000C94F60EDA01C4
:1038200013962C911397CC90D12CF12CE12C61E1C3
:10383000CC0CDD1CEE1CFF1C6A95D1F711968C9107
:1038400090E0B0E0A0E07AE0880F991FAA1FBB1FAC
:103850007A95D1F7C82AD92AEA2AFB2AFA01828165
:1038600090E0B0E0A0E0E3E0880F991FAA1FBB1F23
:10387000EA95D1F7C82AD92AEA2AFB2A822F90E0B2
:10388000B0E0A0E0F4E0B695A79597958795FA95F6
:10389000D1F7C82AD92AEA2AFB2A122F1F70A3E0DF
:1038A000AA2EB12C09E0B8EC2B2E82E4382E11118F
:1038B0004DC01092700061E083E00E94430360E01D
:1038C00083E00E94150381E08093B0000093B10073
:1038D0002092B3003092B40080E699E00E94380450
:1038E00088E592E00E942A0448E1842E912C412C24
:1038F000512C50E8652E712CD701C60184219521E9
:10390000A621B721892B8A2B8B2BE9F080EB94E041
:103910000E94380488E592E00E942A047694679415
:1039200057944794F1E08F1A910831F768E270E0FC
:1039300080E090E00E94C40361E0A61AB10809F09B
:10394000B6CF0C94F60E88E592E0E2CF113071F715
:103950001092700061E083E00E94430360E083E026
:103960000E9415031093B0000093B1002EED209338
:10397000B3003AE43093B40089E793E00E9438043E
:1039800089E793E00E942A0489E793E00E943804C3
:1039900098E1892E912C412C512C20E8622E712C1B
:1039A000D701C60184219521A621B721892B8A2B15
:1039B0008B2BB1F089E793E00E942A0489E793E01A
:1039C0000E943804769467945794479441E0841A8F
:1039D000910831F78091B0008F7D8093B000A6CF21
:1039E00089E793E00E94380489E793E00E942A0463
:1039F000E9CFF1E1EF2EF7E2FF2E812F0E94EC02DA
:103A0000019709F068C0E1E0EE1AF108B1F702E0B1
:103A100068E2C62ED12CE12C77E0F72E882483941F
:103A2000912C01110AC051E1A52E57E2B52E812F2C
:103A30000E94EC02892B09F450C00E949F032B01C5
:103A40003C0141E1A42E47E2B42E002309F44CC00E
:103A50000E949F0364197509860997096F317105E2
:103A60008105910508F04CC0F1105AC0E39437E08D
:103A7000F32E31E0C31AD108A1F6F9809B818F2D76
:103A8000890F2A81820F2C81820F2D8128134AC031
:103A9000011148C03110F92E64E170E080E090E03F
:103AA0000E94C40380EF90E00E949E028FEC90E0A1
:103AB0000E949E028F2D869590E00E949E028F2D7F
:103AC000817090E00E949E02812F90E0880F991FE4
:103AD00083290C948E0F00E09BCFF1E0AF1AB10860
:103AE00009F0A5CF03E0A9CF812F0E94EC02019736
:103AF00009F0AECF21E0A21AB108B1F704E0A8CFD7
:103B0000E1E0F0E0EC0FFD1FEE0DF11D808194016E
:103B10000F2C01C0220F0A94EAF7822B8083A4CFD6
:103B2000FA94A7CFFF24FA94B7CF85ED8093BC0019
:103B30008091330390913403A0913503B091360303
:103B40000796A11DB11D23E0B695A795979587957A
:103B50002A95D1F72091BC0024FD03C010923103B7
:103B6000089540913303509134036091350370916F
:103B70003603452B462B472B69F30097A105B1056A
:103B800041F025E32A95F1F700000197A109B10959
:103B9000E1CF809132030C943E051F920F920FB635
:103BA0000F9211242F933F934F935F936F937F93C3
:103BB0008F939F93AF93BF93EF93FF938BE593E026
:103BC0000E942602FF91EF91BF91AF919F918F913B
:103BD0007F916F915F914F913F912F910F900FBE09
:103BE0000F901F9018951F920F920FB60F921124ED
:103BF0002F938F939F93EF93FF93E0916B03F0913B
:103C00006C038081E0917103F091720382FD1BC00F
:103C10009081809174038F5F8F7320917503821759
:103C200041F0E0917403F0E0E55AFC4F958F8093EA
:103C30007403FF91EF919F918F912F910F900FBE81
:103C40000F901F9018958081F4CF1F920F920FB69E
:103C50000F9211242F933F938F939F93AF93BF9312
:103C60008091990290919A02A0919B02B0919C023E
:103C700030918A0223E0230F2D3758F50196A11DBC
:103C8000B11D20938A028093990290939A02A09387
:103C90009B02B0939C0280918B0290918C02A09128
:103CA0008D02B0918E020196A11DB11D80938B02F1
:103CB00090938C02A0938D02B0938E02BF91AF912E
:103CC0009F918F913F912F910F900FBE0F901F905A
:103CD000189526E8230F0296A11DB11DD2CF1F9281
:103CE0000F920FB60F9211240F900FBE0F901F90DE
:103CF00018951F920F920FB60F9211242F933F9396
:103D00004F935F936F937F938F939F93AF93BF93E3
:103D1000EF93FF938091CA040E94EC022091CE049D
:103D20003091CF042F5F3F4F3093CF042093CE04C8
:103D30009091CD04953618F096E09093C904909137
:103D4000C904943009F466C0B8F49230F1F09330AD
:103D500009F444C09091CC04992309F46BC08111FB
:103D60007AC08091CB04882309F463C08091CB048E
:103D700061E00E9415035EC0953009F457C096308B
:103D800049F791E090939A054FC08111E3CF2091BC
:103D9000CE043091CF042436310528F41092CF049C
:103DA0001092CE04D7CF10929A051092CD04E091D4
:103DB000CD0491E09E0F9093CD04F0E02091CE04CD
:103DC0003091CF04EE0FFF1FE753FB4F308727835F
:103DD0001092CF041092CE0493E019C0813009F004
:103DE000B9CFE091CD0491E09E0F9093CD04F0E027
:103DF0002091CE043091CF04EE0FFF1FE753FB4F0D
:103E0000308727831092CF041092CE0494E09093D1
:103E1000C904A0CF882359F22091CE043091CF0459
:103E20002536310508F496CF95E0F1CF811192CF78
:103E3000B5CF2D9AFF91EF91BF91AF919F918F9147
:103E40007F916F915F914F913F912F910F900FBE96
:103E50000F901F9018958091CB04882321F08091BA
:103E6000CB0460E086CF2D98E5CF1F920F920FB65E
:103E70000F9211242F933F934F935F936F937F93F0
:103E80008F939F93AF93BF93EF93FF938091B9006C
:103E9000887F803609F44AC0F0F5883209F4A7C05B
:103EA00018F5803109F49BC0B8F4882309F4F9C0EF
:103EB000883009F494C0FF91EF91BF91AF919F9129
:103EC0008F917F916F915F914F913F912F910F90C3
:103ED0000FBE0F901F901895883109F488C080326A
:103EE00051F780932F0314C0803409F49DC040F42F
:103EF0008033B9F38833F9F680932F0385ECB0C093
:103F0000803509F485C0883509F496C0883499F65F
:103F10000E94951DD0CF883909F48CC038F58837B8
:103F200029F050F4883611F0803729F683E0809329
:103F300031031092870257C0883809F47BC080395A
:103F400019F0803809F0B7CF80918702803208F0ED
:103F500071C0E091870281E08E0F8093870280918B
:103F6000BB00F0E0E959FD4F80833DC0803B39F054
:103F7000E0F4803A09F479C0883A09F09CCF84E0F3
:103F8000809331031092660210926502E0918F02D5
:103F9000F091900209958091650281110FC081E036
:103FA000809365021092450209C0803C09F4A6CFB7
:103FB000883C09F4A3CF883B09F07DCFE0916602ED
:103FC00081E08E0F80936602F0E0EB5BFD4F808115
:103FD0008093BB00909166028091650229C0809118
:103FE0000C038093BB0085EC8093BC0064CF909160
:103FF0002E0380912D03981758F5E0912E0381E050
:104000008E0F80932E03F0E0E35FFC4F8081E9CFB9
:10401000E0912E0381E08E0F80932E038091BB00F0
:10402000F0E0E35FFC4F808390912E0380912D039D
:104030009817C8F285E8D8CFE0912E0381E08E0F63
:1040400080932E038091BB00F0E0E35FFC4F808300
:104050008091300381115CCF81E080930B0384EA6F
:104060008093BC001092310326CF85EC8093BC0076
:104070001092310380918702803230F4E091870200
:10408000F0E0E959FD4F10826091870270E0E09105
:104090009102F091920287E692E0099510928702D0
:1040A0000ACF10922F0334CF1F920F920FB60F92A8
:1040B00011242F933F934F935F936F937F938F932D
:1040C0009F93AF93BF93CF93DF93EF93FF93809131
:1040D0004302C091C804D0E087FF24C0109285003D
:1040E00010928400809143028F5F809343028091FD
:1040F0004302082E000C990B8C179D0724F4809125
:1041000043028C30C4F18091840090918500049624
:1041100080349C4908F47AC0809184009091850095
:10412000049676C080914302082E000C990B8C17E0
:104130009D07C4F6E09143028E2FEE0F990BFC0110
:10414000EE0FFF1FE80FF91FEC55FB4F808186FF34
:10415000C9CFE09143028E2FEE0F990BFC01EE0FB9
:10416000FF1FE80FF91FEC55FB4F808160E08F7354
:104170000E941503B7CF2091840030918500E09113
:1041800043028E2FEE0F990BFC01EE0FFF1FE80F7D
:10419000F91FEC55FB4F81819281820F931F909301
:1041A000890080938800E09143028E2FEE0F990BD7
:1041B000FC01EE0FFF1FE80FF91FEC55FB4F80814C
:1041C00086FF11C0E09143028E2FEE0F990BFC0188
:1041D000EE0FFF1FE80FF91FEC55FB4F808161E0E8
:1041E0008F730E941503FF91EF91DF91CF91BF91E3
:1041F000AF919F918F917F916F915F914F913F917F
:104200002F910F900FBE0F901F90189580E49CE99E
:1042100090938900809388008FEF80934302E3CFCF
:10422000CF92DF92EF92FF920F931F93E82FF92F17
:1042300005C0015011092109310961F190819623CE
:104240009417B9F305C0015011092109310911F181
:10425000908196239413F7CFC12CD12CE12CF12C13
:104260000AC08FEFC81AD80AE80AF80A0C151D050B
:104270002E053F0579F080818623841791F36C2DFC
:104280007D2D8E2D9F2D1F910F91FF90EF90DF9030
:10429000CF90089560E070E080E090E01F910F9172
:1042A000FF90EF90DF90CF900895CF92DF92EF9242
:1042B000FF9210925E0310925D0368EEC62E63E0DB
:1042C000D62EE12CF12CC0925F03D0926003E092D5
:1042D0006103F09262038DE091E090935C03809320
:1042E0005B0385EC90E0909368038093670384EC14
:1042F00090E090936A038093690380EC90E0909340
:104300006C0380936B0381EC90E090936E03809339
:104310006D0382EC90E09093700380936F0386ECC2
:1043200090E0909372038093710310927403109243
:10433000750310927603109277038FE191E09093CA
:10434000F9038093F8031092FA031092FB03109282
:10435000FC031092FD031092970410920004109237
:104360000204109201040E948B0110929B0410928F
:104370009A04C0929C04D0929D04E0929E04F09214
:104380009F0485E291E090939904809398048BE0D8
:104390008093CA041092CC04EBE9F5E02FEB35E0F2
:1043A0004FEF68EB7BE08091C8048C30D0F491E053
:1043B000980F9093C804808390E0DC01AA0FBB1F84
:1043C000A80FB91FAC55BB4F12967C936E931197F3
:1043D00033962E173F0739F7FF90EF90DF90CF907D
:1043E00008954083F5CF789484B5826084BD84B508
:1043F000816084BD85B5826085BD85B5816085BDE0
:1044000080916E00816080936E0010928100809197
:10441000810082608093810080918100816080931F
:104420008100809180008160809380008091B10044
:1044300084608093B1008091B00081608093B0006F
:1044400080917A00846080937A0080917A00826003
:1044500080937A0080917A00816080937A008091C5
:104460007A00806880937A001092C10083E1809383
:10447000000480910104909102040E94C328C0911D
:104480000004D0E0CE0101960E94272890930204F8
:1044900080930104FC01EC0FFD1F108212E0DC018F
:1044A0001C9325E011962C93AE014250510967EE02
:1044B00071E002960E944C2987E199E0909386046E
:1044C000809385048BE698E090938804809387041A
:1044D0008EE398E090938A04809389048FE89AE0B1
:1044E00090938C0480938B0481E99CE090938E04DC
:1044F00080938D0485E39AE09093900480938F04D9
:1045000086EC9EE0909396048093950489EE9DE05E
:104510009093920480939104E0916B03F0916C036B
:104520001083E0916B03F0916C031082E0916703BC
:10453000F09168031082E0916903F0916A0380E1D1
:10454000808310927303E0916F03F091700386E013
:104550008083E0916D03F0916E03808180618083A0
:10456000E0916D03F0916E03808188608083E0911B
:104570006D03F0916E03808180688083E0916D030C
:10458000F0916E0380818F7D80838BE593E0909323
:10459000FF038093FE038091970481114FC061E077
:1045A0008DE00E94430362ED70E080E090E00E94A5
:1045B000C40361E08DE00E94150368E270E080E0D2
:1045C00090E00E94C40360E08DE00E94150362ED5C
:1045D00070E080E090E00E94C40361E08DE00E9402
:1045E000150368E270E080E090E00E94C40360E0A0
:1045F0008DE00E9415036AEF70E080E090E00E9479
:10460000C403C5E062ED70E080E090E00E94C40366
:1046100061E08DE00E94150368E270E080E090E0C8
:104620000E94C40360E08DE00E941503C15051F761
:104630006DE770E080E090E00E94C4030E945A01A0
:104640008091000481110E9414010E94E90D1092D2
:10465000DC021092DB021092380310925A030E947F
:10466000200586EA91E09093900280938F0287EA7A
:1046700091E0909392028093910260EF85E50E9411
:104680009D076BEF80E00E949D070E94B60B25E01E
:10469000F22E00E010E07724739432E0E32E809154
:1046A0009602882349F069B18091930268236C7F58
:1046B00040E080E00E944A0A80919702882379F0C6
:1046C00063B186B16F73B0E48B9FC0011124682B76
:1046D00080919402682340E081E00E944A0A809120
:1046E0009802882359F066B1809195028F70669583
:1046F0006695682340E082E00E944A0A8091FE03AA
:104700009091FF03EC01E881F9810084F185E02DAF
:104710000995892B09F427C18091FE039091FF032D
:10472000DC01ED91FC910284F385E02D09958F3F2A
:10473000980721F3382F20914604222309F467C0FB
:10474000873F09F055C010924604809106048137D6
:1047500051F0893709F03EC080910004882371F23E
:104760000E941401CBCFE0919304F0919404309710
:1047700029F28091470490914804DC011197B7FD1C
:10478000DC01B595A7957A2F4EEF53E09A0190E0A2
:104790004E5F5F4F2F5F3F4F971770F4EA016F81B5
:1047A000E9016F83EA018885879588278795860FB9
:1047B000E9018F839F5FECCFBB27A250BC4F1796B8
:1047C0008C911797882311F018961C9286E094E03C
:1047D000099594CFE0919504F0919604309709F4EF
:1047E0008DCF60914704615047E054E0099586CF32
:1047F0002091470430914804F901E250FC4F808732
:104800002F5F3F4F309348042093470477CF209188
:104810000304222309F466C087FD64C09FEF920F52
:1048200090930304E92FF0E0E250FC4F8087911150
:1048300065CF80910404882309F460CF803D09F49A
:1048400046C060F4803921F1E0918904F0918A0436
:10485000803C09F440C01092040450CF843F29F1F9
:10486000853F81F1803EB9F7E0918504F09186049F
:10487000309789F360910604D0E86D9FC001112440
:1048800060910704680F792F711D8091050418C08D
:10489000E0918704F09188043097E9F26091060472
:1048A00020E8629FC0011124EBCFE0918D04F091CC
:1048B0008E046091060470E080910704309759F2ED
:1048C0000995C9CFE0918F04F0919004F2CFE09167
:1048D0008B04F0918C04309709F4BDCF60910604ED
:1048E00070E0D3CF303FB8F4282F207F30E08F70B6
:1048F00080930504203F310561F1BCF4203C310573
:1049000029F164F42039310509F0F8CEE09203046E
:1049100020930404F3CE9C013327ECCF203D3105D6
:10492000A9F0203E310591F3E9CE293F3105C1F0D0
:1049300034F4C901845F9109029740F3DFCE2F3F21
:10494000310509F0DBCE0E948B01D8CE70920304B2
:10495000DFCF709246041092480410924704CECEE6
:104960000E945A01CBCE8FB7F89480909902909014
:104970009A02A0909B02B0909C028FBF8091C702C8
:104980009091C802A091C902B091CA024091010160
:104990005091020170E060E0881A990AAA0ABB0AE5
:1049A000481559056A057B0508F051C0840F951F0D
:1049B000A61FB71F8093C7029093C802A093C90295
:1049C000B093CA028EEFC82E83E0D82EC2EFC63055
:1049D000C8F4F601E55BFF4F8081823099F4809145
:1049E000C5029091C6020C2E02C0959587950A9437
:1049F000E2F780FF07C08C2F0E947F03BC018C2F41
:104A00000E94B300CF5F8FEFC81AD80AC630F9F6FC
:104A10008091000187FD1BC0C0E02C2F30E0809109
:104A20000001082E000C990B8217930784F0F29E68
:104A3000F001F39EF00D1124E356FD4F6181728168
:104A40002481438180810E94330ECF5FE6CF011520
:104A5000110509F424CE0E941202882309F41FCE06
:104A60000E9400001CCE052E97FB1EF400940E94AD
:104A70004A2557FD07D00E94652507FC03D04EF458
:104A80000C944A2550954095309521953F4F4F4FB6
:104A90005F4F089590958095709561957F4F8F4FEA
:104AA0009F4F08950E948725A59F900DB49F900D5C
:104AB000A49F800D911D11240895B7FF0C945225D9
:104AC0000E945225821B930B0895A1E21A2EAA1B65
:104AD000BB1BFD010DC0AA1FBB1FEE1FFF1FA217AE
:104AE000B307E407F50720F0A21BB30BE40BF50BAB
:104AF000661F771F881F991F1A9469F76095709534
:104B0000809590959B01AC01BD01CF010895A29FB6
:104B1000B001B39FC001A39F700D811D1124911D91
:104B2000B29F700D811D1124911D08955058BB270F
:104B3000AA270E94AE250C9428270E941A2738F035
:104B40000E94212720F039F49F3F19F426F40C9499
:104B500017270EF4E095E7FB0C941127E92F0E942C
:104B6000392758F3BA17620773078407950720F0AF
:104B700079F4A6F50C945B270EF4E0950B2EBA2F72
:104B8000A02D0B01B90190010C01CA01A001112453
:104B9000FF27591B99F0593F50F4503E68F11A16FF
:104BA000F040A22F232F342F4427585FF3CF469590
:104BB00037952795A795F0405395C9F77EF41F16B2
:104BC000BA0B620B730B840BBAF09150A1F0FF0F7C
:104BD000BB1F661F771F881FC2F70EC0BA0F621F68
:104BE000731F841F48F4879577956795B795F79558
:104BF0009E3F08F0B0CF9395880F08F09927EE0FED
:104C00009795879508950E94ED2608F481E0089510
:104C10000E941C260C9428270E94212758F00E94ED
:104C20001A2740F029F45F3F29F00C941127511105
:104C30000C945C270C9417270E94392768F399235A
:104C4000B1F3552391F3951B550BBB27AA27621788
:104C50007307840738F09F5F5F4F220F331F441F95
:104C6000AA1FA9F335D00E2E3AF0E0E832D09150C9
:104C70005040E695001CCAF72BD0FE2F29D0660FB6
:104C8000771F881FBB1F261737074807AB07B0E8F9
:104C900009F0BB0B802DBF01FF2793585F4F3AF0FF
:104CA0009E3F510578F00C9411270C945C275F3FD0
:104CB000E4F3983ED4F3869577956795B795F79585
:104CC0009F5FC9F7880F911D9695879597F908956D
:104CD000E1E0660F771F881FBB1F62177307840709
:104CE000BA0720F0621B730B840BBA0BEE1F88F718
:104CF000E09508950E9481266894B1110C945C2778
:104D000008950E94412788F09F5798F0B92F99275E
:104D1000B751B0F0E1F0660F771F881F991F1AF0A6
:104D2000BA95C9F714C0B13091F00E945B27B1E089
:104D300008950C945B27672F782F8827B85F39F088
:104D4000B93FCCF3869577956795B395D9F73EF43F
:104D500090958095709561957F4F8F4F9F4F0895E7
:104D6000E89409C097FB3EF4909580957095619505
:104D70007F4F8F4F9F4F9923A9F0F92F96E9BB27BB
:104D80009395F695879577956795B795F111F8CF37
:104D9000FAF4BB0F11F460FF1BC06F5F7F4F8F4FA2
:104DA0009F4F16C0882311F096E911C0772321F098
:104DB0009EE8872F762F05C0662371F096E8862F30
:104DC00070E060E02AF09A95660F771F881FDAF787
:104DD000880F9695879597F90895990F0008550FB4
:104DE000AA0BE0E8FEEF16161706E807F907C0F071
:104DF00012161306E407F50798F0621B730B840B79
:104E0000950B39F40A2661F0232B242B252B21F452
:104E100008950A2609F4A140A6958FEF811D811DF2
:104E2000089597F99F6780E870E060E008959FEF2C
:104E300080EC089500240A94161617061806090631
:104E4000089500240A941216130614060506089500
:104E5000092E0394000C11F4882352F0BB0F40F488
:104E6000BF2B11F460FF04C06F5F7F4F8F4F9F4FC8
:104E7000089557FD9058440F551F59F05F3F71F04A
:104E80004795880F97FB991F61F09F3F79F08795B1
:104E90000895121613061406551FF2CF4695F1DF3A
:104EA00008C0161617061806991FF1CF86957105CA
:104EB000610508940895E894BB2766277727CB01FE
:104EC00097F908950E9475270C9428270E941A27A5
:104ED00038F00E94212720F0952311F00C9411271F
:104EE0000C94172711240C945C270E94392770F327
:104EF000959FC1F3950F50E0551F629FF001729F7F
:104F0000BB27F00DB11D639FAA27F00DB11DAA1F8D
:104F1000649F6627B00DA11D661F829F2227B00DDA
:104F2000A11D621F739FB00DA11D621F839FA00D65
:104F3000611D221F749F3327A00D611D231F849FB5
:104F4000600D211D822F762F6A2F11249F5750400C
:104F50009AF0F1F088234AF0EE0FFF1FBB1F661F87
:104F6000771F881F91505040A9F79E3F510580F050
:104F70000C9411270C945C275F3FE4F3983ED4F324
:104F8000869577956795B795F795E7959F5FC1F7F4
:104F9000FE2B880F911D9695879597F90895DB0153
:104FA0008F939F930E945225BF91AF91A29F800D36
:104FB000911DA39F900DB29F900D11240895991BF0
:104FC00079E004C0991F961708F0961B881F7A9500
:104FD000C9F780950895EE0FFF1F0590F491E02D1D
:104FE0000994002E083090F0982F872F762F652F88
:104FF000542F432F322F22270850F4CF220F331F74
:10500000441F551F661F771F881F991F0A95B2F707
:10501000002D089597FD1094002E083098F0085048
:10502000232F342F452F562F672F782F892F912D1F
:10503000F4CF1594979587957795679557954795EC
:10504000379527950A95AAF71124002D08950F93F7
:105050001F93CF93DF938230910510F482E090E0AC
:10506000E091C105F091C20530E020E0B0E0A0E0A1
:10507000309799F42115310509F44AC0281B390BE2
:1050800024303105D8F58A819B816115710589F13C
:10509000FB0193838283FE0111C040815181028113
:1050A000138148175907E0F04817590799F41097EA
:1050B00061F012960C93129713961C933296CF01BF
:1050C000DF91CF911F910F9108950093C105109327
:1050D000C205F4CF2115310551F04217530738F0BE
:1050E000A901DB019A01BD01DF01F801C1CFEF0188
:1050F000F9CF9093C2058093C105CDCFFE01E20F99
:10510000F31F819391932250310939832883D7CF9C
:105110002091BF053091C005232B41F4209105015A
:10512000309106013093C0052093BF052091030103
:10513000309104012115310541F42DB73EB740915E
:10514000070150910801241B350BE091BF05F09138
:10515000C005E217F307A0F42E1B3F0B28173907F1
:1051600078F0AC014E5F5F4F2417350748F04E0FC3
:105170005F1F5093C0054093BF05819391939FCFCC
:10518000F0E0E0E09CCFCF93DF930097E9F0FC01E3
:10519000329713821282A091C105B091C205ED0130
:1051A00030E020E01097A1F420813181820F931F1D
:1051B0002091BF053091C0052817390709F061C05B
:1051C000F093C005E093BF05DF91CF910895EA0108
:1051D000CE17DF07E8F54A815B819E014115510535
:1051E000B1F7E901FB83EA8349915991C40FD51FB7
:1051F000EC17FD0761F4808191810296840F951F61
:10520000E90199838883828193819B838A83F0E07B
:10521000E0E012968D919C9113970097B9F52D912E
:105220003C911197CD010296820F931F2091BF05EB
:105230003091C0052817390739F6309751F510928B
:10524000C2051092C105B093C005A093BF05BCCFA5
:10525000D383C28340815181840F951FC817D9071A
:1052600061F44E5F5F4F88819981480F591F5183C8
:1052700040838A819B81938382832115310509F0C4
:10528000B0CFF093C205E093C1059ECFFD01DC01D4
:10529000C0CF13821282D7CFFB01DC0141505040B6
:1052A00048F001900D920020C9F701C01D924150B5
:0A52B0005040E0F70895F894FFCF96
:1052BA00FF13000000C3058000000000004802A898
:1052CA0001D501A3020602E401F80100000000472B
:1052DA000C000000006E074107BC071E070D012ED7
:1052EA00071F074D617820736572766F73206174AA
:1052FA0074616368656400556E6B6E6F776E2070BB
:10530A00696E206D6F6465004932433A20546F6FAD
:10531A00206D616E792062797465732072656365A8
:10532A0069766564004932433A20546F6F20666596
:10533A00772062797465732072656365697665643E
:10534A000031302D62697420616464726573736917
:10535A006E67206E6F7420737570706F72746564F7
:10536A0000746F6F206D616E792071756572696561
:10537A0073002F686F6D652F6A6775696C6C65328B
:10538A002F41726475696E6F2F5341354669726D8C
:10539A006174615F69722F5341354669726D617438
:0A53AA00615F69722E696E6F0000EA
:00000001FF
