:100000000C945D000C9485000C9485000C94DC0F1E
:100010000C94DC0F0C94DC0F0C9485000C94850080
:100020000C9485000C9485000C9485000C940511AB
:100030000C9485000C9485000C9485000C9485002C
:100040000C94920F0C9485000C94600F0C943A0F52
:100050000C9485000C9485000C9485000C9485000C
:100060000C94E60F0C94850000000000240027008B
:100070002A0000000000250028002B0004040404CE
:100080000404040402020202020203030303030342
:10009000010204081020408001020408102001021F
:1000A00004081020000000080002010000030407FB
:1000B0000000000000000000C11111241FBECFEF9E
:1000C000D8E0DEBFCDBF12E0A0E0B1E0EAE4FEE29E
:1000D00002C005900D92A430B107D9F724E0A4E046
:1000E000B2E001C01D92AD3DB207E1F710E0CDE5F1
:1000F000D0E004C02197FE010E94E915CC35D1075C
:10010000C9F70E945A120C9423170C9400000F9305
:100110001F93CF93DF93EC010AEE13E0D8018D918A
:100120009C916C2F6F77DC01ED91FC910190F08137
:10013000E02D0995F80180819181CC0FCD2FCC1F46
:10014000DD0B6C2F6F77DC01ED91FC910190F0815C
:10015000E02DDF91CF911F910F910994CF93DF9301
:10016000EB01A091EA03B091EB038F70682F606EF2
:10017000ED91FC9111970190F081E02DCD01099551
:10018000CE01DF91CF910C9487008091EA0390918A
:10019000EB03DC01ED91FC910190F081E02D67EF24
:1001A00009948091EA039091EB03DC01ED91FC91BD
:1001B0000190F081E02D60EF0994FF920F931F935F
:1001C000CF93DF93C82F062FF42E152F0E94D10056
:1001D0008091EA039091EB03DC01ED91FC91019099
:1001E000F081E02D6C2F0995CF2DD12F0C0F1D2FF5
:1001F000111DC017D10729F0899190E00E94870056
:10020000F8CFDF91CF911F910F91FF900C94C50013
:10021000CF93DF930E94D1008091EA039091EB038A
:10022000DC01ED91FC910190F081E02D69E70995E9
:100230008091EA039091EB03A091ED03B091EE035E
:10024000EC01E881F9810190F081E02D6C91099534
:100250008091EA039091EB03A091ED03B091EE033E
:10026000EC01E881F9810190F081E02D11966C910B
:100270000995C2E08091EC03C81760F4E091ED03AA
:10028000F091EE03EC0FF11D808190E00E94870059
:10029000CF5FF0CFDF91CF910C94C500CF93DF9368
:1002A000CAEED3E088819981DC01ED91FC91019047
:1002B000F081E02D69EF099588819981DC01ED914C
:1002C000FC910190F081E02D62E00995888199818F
:1002D000DC01ED91FC910190F081E02D65E0DF9172
:1002E000CF910994A091EA03B091EB03ED91FC91B9
:1002F00011970190F081E02D682FCD0109941092A3
:10030000EF031092F0031092F103E2EFF3E0119289
:1003100084E0E233F807D9F71092320410923404E3
:1003200010923304E0917D04F0917E04309709F03F
:1003300009940895AF92BF92CF92DF92EF92FF920D
:100340000F931F93CF93DF936C017B018B01040FFD
:10035000151FEB015E01AE18BF08C017D10759F099
:100360006991D601ED91FC910190F081E02DC601DB
:100370000995892B79F7C501DF91CF911F910F91D5
:10038000FF90EF90DF90CF90BF90AF900895FC0169
:10039000538D448D252F30E0842F90E0821B930BEA
:1003A000541710F0CF96089501970895FC01918D90
:1003B000828D981761F0A28DAE0FBF2FB11D5D9693
:1003C0008C91928D9F5F9F73928F90E008958FEF35
:1003D0009FEF0895FC01918D828D981731F0828DE9
:1003E000E80FF11D858D90E008958FEF9FEF089540
:1003F000FC01918D228D892F90E0805C9F4F821BA4
:1004000091098F739927089587E493E00E94F8017A
:1004100021E0892B09F420E0822F089580E090E00C
:10042000892B29F00E94040281110C940000089588
:10043000FC01A48DA80FB92FB11DA35ABF4F2C9159
:10044000848D90E001968F739927848FA689B78950
:100450002C93A089B1898C91837080648C93938D47
:10046000848D981306C00288F389E02D80818F7DEA
:1004700080830895EF92FF920F931F93CF93DF93A2
:10048000EC0181E0888F9B8D8C8D98131AC0E889D0
:10049000F989808185FF15C09FB7F894EE89FF899F
:1004A0006083E889F98980818370806480839FBF3D
:1004B00081E090E0DF91CF911F910F91FF90EF903D
:1004C0000895F62E0B8D10E00F5F1F4F0F7311274D
:1004D000E02E8C8D8E110CC00FB607FCFACFE88988
:1004E000F989808185FFF5CFCE010E941802F1CFF6
:1004F000EB8DEC0FFD2FF11DE35AFF4FF0829FB7FC
:10050000F8940B8FEA89FB8980818062CFCFCF93EB
:10051000DF93EC01888D8823B9F0AA89BB89E8892B
:10052000F9898C9185FD03C0808186FD0DC00FB6D1
:1005300007FCF7CF8C9185FFF2CF808185FFEDCF4F
:10054000CE010E941802E9CFDF91CF91089590E08B
:10055000FC01EC55FF4F2491FC01E057FF4F349113
:10056000FC01E458FF4FE491EE23C9F0222339F057
:10057000233001F1A8F4213019F1223029F1F0E003
:10058000EE0FFF1FEE58FF4FA591B4918FB7F8946F
:10059000EC91611126C030953E233C938FBF0895A6
:1005A0002730A9F02830C9F0243049F78091800025
:1005B0008F7D03C0809180008F7780938000DFCF94
:1005C00084B58F7784BDDBCF84B58F7DFBCF8091E1
:1005D000B0008F778093B000D2CF8091B0008F7D34
:1005E000F9CF3E2BDACFCF93DF9390E0FC01E057B9
:1005F000FF4F249184589F4FFC0184918823C9F0B8
:1006000090E0880F991FFC01E859FF4FA591B49124
:10061000FC01EE58FF4FC591D49161110DC09FB7F9
:10062000F8948C91209582238C93888128232883A9
:100630009FBFDF91CF910895623051F49FB7F89436
:100640003C91822F809583238C93E8812E2BEFCFD2
:100650008FB7F894EC912E2B2C938FBFEACF8E306E
:1006600008F08E508770806480937C0080917A00BF
:10067000806480937A0080917A0086FDFCCF80911F
:1006800078009091790008953FB7F8948091BB026B
:100690009091BC02A091BD02B091BE0226B5A89B6C
:1006A00005C02F3F19F00196A11DB11D3FBFBA2F04
:1006B000A92F982F8827BC01CD01620F711D811DC4
:1006C000911D42E0660F771F881F991F4A95D1F749
:1006D00008958F929F92AF92BF92CF92DF92EF9246
:1006E000FF926B017C010E9444034B015C01C11429
:1006F000D104E104F104B9F00E94440368197909B6
:100700008A099B09683E73408105910580F321E0C9
:10071000C21AD108E108F10888EE880E83E0981E1D
:10072000A11CB11CE4CFFF90EF90DF90CF90BF9061
:10073000AF909F908F90089520919302260F3327BA
:10074000331F21323105ECF420911D03FC0190E0B0
:1007500080E0243069F082E00895A0919302219115
:10076000AC014F585D4FA40FB52FB11D2C930196CE
:10077000861798F380919302680F6093930280E04C
:10078000089581E0089510921D0381E080931C0379
:100790001092F70261E082E10E94A70261E083E12A
:1007A0000E94A702E9EBF0E080818E7F8083808148
:1007B0008D7F808388E48093B80085E48093BC00BB
:1007C0000895CF93DF9391E0909370028823B9F05E
:1007D000C091B800D091BA008091BC008A7B809310
:1007E000BC0060E082E10E94A70260E083E10E9419
:1007F000A7020E94C303D093BA00C093B800DF9150
:10080000CF9108958F929F92AF92BF92CF92DF9235
:10081000EF92FF920F931F93CF93DF93D0914603F4
:10082000D13208F0D7C0182FC09145030E9444036D
:100830006B017C0180911D0381116BC082E080936C
:100840001D0310931C038FEF80931B0310921A0358
:10085000D0931903A5E2B3E0E9EFF2E080E0D8130A
:1008600091C01092F8028091F802CC0FC82BC0936F
:10087000F8028091F702813009F088C01092F702E7
:100880000E9444036B017C018091F8028093BB00BD
:1008900080911F0390912003A0912103B091220326
:1008A000892B8A2B8B2BA1F00E94440300911F03FC
:1008B0001091200320912103309122036C197D09AE
:1008C0008E099F09061717072807390708F442C041
:1008D0008091BC0083FDD8CF85EC8093BC000E9442
:1008E00044036B017C0180911D03823009F450C0E8
:1008F00080911B038F3F09F46FC080911B038032EE
:1009000009F46CC080911B03803309F469C084E052
:1009100026C080911F0390912003A0912103B091E4
:100920002203892B8A2B8B2B09F484CF0E9444034A
:1009300080901F0390902003A0902103B090220389
:100940006C197D098E099F0986169706A806B906B7
:1009500008F070CF80911E030E94E10385E01092A1
:1009600024031092460310922303DF91CF911F912D
:100970000F91FF90EF90DF90CF90BF90AF909F903E
:100980008F9008959D9191938F5F69CF85EEA5CF4C
:1009900080911F0390912003A0912103B091220325
:1009A000892B8A2B8B2B09F49ECF0E944403009144
:1009B0001F031091200320912103309122036C1911
:1009C0007D098E099F09061717072807390708F0C0
:1009D0008ACFC0CF81E0C3CF80E0C1CF82E0BFCF5C
:1009E00083E0BDCF089508950895E0916F0280914E
:1009F0006E02E81730F4F0E0E25BFD4F808190E09A
:100A000008958FEF9FEF089590916F0280916E028D
:100A10002FEF3FEF981748F4E92FF0E0E25BFD4F2E
:100A2000208130E09F5F90936F02C901089580910B
:100A30006E0290916F02891B990B0895CF92DF92FD
:100A4000EF92FF920F931F93CF93DF937C01CB0123
:100A50008A0120912303222389F0EB016B01C40E4C
:100A6000D51ECC15DD0569F06991D701ED91FC919A
:100A70000190F081E02DC7010995F3CF642F0E940A
:100A80009C03C801DF91CF911F910F91FF90EF90D0
:100A9000DF90CF900895CF93DF931F92CDB7DEB74D
:100AA0006983209123032223F9F020914603203209
:100AB00058F021E030E0FC013383228390E080E0B5
:100AC0000F90DF91CF91089580912403E82FF0E0FB
:100AD000EB5DFC4F998190838F5F8093240380931B
:100AE000460381E090E0ECCF61E0CE0101960E94E8
:100AF0009C03F7CF90E080E00895DF92EF92FF92A1
:100B00000F931F93CF93DF93EC01D62E7A018901C7
:100B100088818C3008F067C061E08D2D0E94F3025F
:100B20008881282F30E0F901EE0FFF1FE20FF31F3D
:100B3000E057FB4F9D2D9F736081607C692B608324
:100B400020E232E02E193F0937FF02C02D5F3F4FF0
:100B50003595279535952795298320E639E0201B83
:100B6000310B37FF02C02D5F3F4F359527953595E7
:100B700027952A832CE0622F0E94DD15829FB00109
:100B8000112430E020E0AB01420F531FFA01EE0FB9
:100B9000FF1FE40FF51FE057FB4F908196FD16C035
:100BA0002F5F3F4F2C30310571F781110FC010922C
:100BB000800082E080938100109285001092840072
:100BC000B19A80916F00826080936F00E8818E2FD0
:100BD00090E0FC01EE0FFF1FE80FF91FE057FB4FFD
:100BE0008081806480838881DF91CF911F910F91F4
:100BF000FF90EF90DF900895CF938630B0F421E01E
:100C000030E0082E02C0220F331F0A94E2F7409111
:100C1000F1025091F202672B51F420953095242374
:100C200035233093F2022093F102CF910895242BC3
:100C3000352B3093F2022093F10290914C029111E6
:100C4000F4CFC82F0E942F03BC018C2FCF910C949E
:100C5000AE005F926F927F928F929F92AF92BF92FF
:100C6000CF92DF92EF92FF920F931F93CF93DF9378
:100C7000833008F061C0D1E0D80FDD0FDD0FDD0F4C
:100C80005D2ED53110F044E1542EC62F082FD850D8
:100C90008D2E912CC401880F991F9C0126513C4F29
:100CA0005901D12CC12C10E077247394D515C8F5C7
:100CB0008EEF8D0F8231F8F4F601E80DF91DEB5C33
:100CC000FB4F90819230B8F48C2F87216624639477
:100CD000811101C0612C7601EE0CFF1C913089F46A
:100CE00017293FE5E30EF11CF501EE0DFF1D862DE2
:100CF00090E091838083770CDF5F8FEFC81AD80A6A
:100D0000D5CF882371F3F701E15AFF4FEA0DFB1DA0
:100D100080819181019729F362E08D2F0E94F30277
:100D2000E0CF011119C0F8948BB16C2F68276C7F4C
:100D3000612368276BB97894DF91CF911F910F9150
:100D4000FF90EF90DF90CF90BF90AF909F908F90EB
:100D50007F906F905F9008950130D1F4C123F89493
:100D600095B1812F8F73809589239C2F9F73892B39
:100D700085B988B1612F62956695669563706095B7
:100D80006823C295C695C695C370C62BC8B9D3CF84
:100D90001F70F89498B1812F880F880F8095892350
:100DA000C123CC0FCC0FC82BF1CF8F929F92AF9263
:100DB000BF92CF92DF92EF92FF920F931F93CF9348
:100DC000DF93EB01843108F098C0082F10E0F801A0
:100DD000EB5CFB4F9081933009F49CC0943009F098
:100DE0008CC08250823108F081C0F801EC5CFD4F6C
:100DF000C080D12C7601EE0CFF1C4B01603282E0EA
:100E000078070CF03EC0F701EC0DFD1DEB54FB4FD5
:100E10008181A8E88A2E912C881A910887FD9394E5
:100E2000880C991C880C991C092C000CAA08BB087A
:100E3000828128E532E0281B310987FD3395220F96
:100E4000331F220F331F032E000C440B550B2819A0
:100E500039094A095B09DB01653B710514F0A4EB14
:100E6000B0E0B7FF02C0B0E0A0E00E94A41524EB00
:100E700030E040E050E00E947A15820E931EA41EDE
:100E8000B51EF701EC0DFD1DEB54FB4F20812C30FE
:100E900068F5318188E890E0831B910937FD9395CF
:100EA000880F991F880F991F881699067CF0328148
:100EB00088E592E0831B910937FD9395880F991F70
:100EC000880F991F881699060CF4C4010297880FA1
:100ED000991F4FB7F89430E0F901EE0FFF1FE20FB2
:100EE000F31FE057FB4F928381834FBF000F111F09
:100EF000F801E75BFB4FD183C083DF91CF911F9156
:100F00000F91FF90EF90DF90CF90BF90AF909F90A8
:100F10008F9008957B01D82F833041F08BEF800FA5
:100F2000823020F087EF800F833058F461E08D2FFE
:100F30000E94F302E114F10461F460E08D2F0E943D
:100F4000A702000F111FF801E75BFB4FF182E0825F
:100F5000D4CF8FEFE816F10411F461E0EFCFF80180
:100F6000EC55FF4FE491E33021F148F4E130B9F062
:100F7000E230D1F080E8E816F1047CF7DECFE7300C
:100F800011F1E83041F1E430A9F7809180008062EE
:100F900080938000F0928B00E0928A00D2CF84B5DB
:100FA000806884BDE7BCCDCF84B5806284BDE8BCD9
:100FB000C8CF80918000806880938000F092890083
:100FC000E0928800BECF8091B00080688093B0002E
:100FD000E092B300B6CF8091B00080628093B00001
:100FE000E092B400AECF9EEF980F923180F4E82FDC
:100FF000F0E0DF01AB5CBB4F9C91913041F4EE0F10
:10100000FF1FE75BFB4F608371830C94A702089579
:101010000F931F93CF93082F10E0F801E154FD4F79
:101020009081C62FC923085B1D4F411104C0D80110
:101030009C919C1771F1682F8091EA039091EB03CA
:101040006F706069DC01ED91FC910190F081E02D01
:1010500009958091EA039091EB036C2F6F77DC0187
:10106000ED91FC910190F081E02D09958091EA03CA
:101070009091EB036C2F70E0660F672F661F770B64
:10108000DC01ED91FC910190F081E02D0995F801D2
:10109000C083CF911F910F910895833040F5282F81
:1010A00030E0F901EE53FD4F6083672B01F12154CD
:1010B0003D4FF9016081811106C099B19C7F692380
:1010C00041E00C940808813049F493B126B19F7334
:1010D000F0E42F9F90011124922BF1CF26B130E044
:1010E00035952795359527952F706223E9CF08957B
:1010F000A82FB0E0AC5CBD4FEC918E2F90E0FC01CE
:10110000EE0FFF1FE80FF91FEB54FB4F8081282FD4
:1011100030E0F901EE0FFF1FE20FF31FE057FB4F26
:1011200090819F7B90832CE0622F0E94DD15829F2F
:10113000C001112430E020E0AC01420F531FFA013E
:10114000EE0FFF1FE40FF51FE057FB4F408146FDF8
:1011500011C02F5F3F4F2C30310571F71092810085
:1011600082E08093810081E0809381008093800001
:1011700010926F008C9190913202891308C08823DD
:1011800019F08150809332028FEF8C930895992348
:10119000D9F3E0913302EF5FE0933302F0E0ED5FCB
:1011A000FD4F8083F1CFFC0101900020E9F73197DA
:1011B000BF01681B790BAC0181E70C94DD00CF9374
:1011C000DF93DB01909132029C3078F5309133024D
:1011D000682F70E0FB01EC5CFD4F3323E1F0C32F7F
:1011E000D0E0CD5FDD4F8881808331503093330272
:1011F000808123E0829FC00111248B549B4F1A16DB
:101200001B0674F4141615065CF49A01AD01DF9107
:10121000CF910C947D0590839F5F90933202E8CF2D
:1012200020E639E040E252E0F2CF83E391E0DF9143
:10123000CF910C94D3088F929F92AF92BF92EF926E
:10124000FF920F931F93CF93DF93CDB7DEB7A19794
:101250000FB6F894DEBF0FBECDBF7C01FA01CB0103
:1012600019A2223008F42AE08E010F5D1F4F822E52
:10127000912CB12CA12CBF01A50194010E94AC15A9
:10128000F901CA016A3074F5605DD8016E938D0171
:10129000232B242B252B79F790E080E0109789F001
:1012A000FD0101900020E9F73197AF014A1B5B0B6C
:1012B000D701ED91FC910280F381E02DB801C701C7
:1012C0000995A1960FB6F894DEBF0FBECDBFDF9192
:1012D000CF911F910F91FF90EF90BF90AF909F9093
:1012E0008F900895695CD1CF8F929F92AF92BF92F9
:1012F000CF92DF92EF92FF920F931F93CF93DF93E2
:101300007C01EB016C0182E0C80ED11C4701E5E0D5
:101310008E0E911C10E000E0F60141916F0150E04B
:1013200070E060E02AE0CE010E941B095C01E881C8
:10133000F9810190F081E02D6EE2CE0109958A0DD0
:101340009B1D080F191FC814D90431F7F7014581F7
:1013500050E070E060E02AE0CE010E941B09800F9F
:10136000911FDF91CF911F910F91FF90EF90DF9030
:10137000CF90BF90AF909F908F9008959F92AF9223
:10138000BF92CF92DF92EF92FF920F931F93CF9372
:10139000DF93C82ED12CE601C651DC4FFE01E55B80
:1013A000FF4F90819F3709F49FC0963061F4909170
:1013B0004B02992341F06630710529F010924B02DF
:1013C0009FEF909300017B01182F0EEF080F023161
:1013D00008F564307105F1F0F601EC5CFD4F808199
:1013E0008C30C0F490E0FC01EE0FFF1FE80FF91FF6
:1013F000EB54FB4FE0818E2F90E0FC01EE0FFF1FBE
:10140000E80FF91FE057FB4F808186FF03C0812F53
:101410000E94780852EF952E910E85E0891558F0BC
:1014200061E070E032E0E316F10411F070E060E09A
:10143000892D0E94FC050231C8F4E12FE695E6955E
:10144000E695F0E0E154FD4F2081312F377081E0C7
:1014500090E001C0880F3A95EAF7E114F10421F019
:101460003BE0E316F10401F5822B80835601AA0CC0
:10147000BB1CF501E75BFB4F118210828CE0E81684
:10148000F10408F0C4C0F701E85BF54F0C94E915CE
:10149000680A950A570AA60AC40A070BFB0A070B33
:1014A000070B070B740A800A80958223DECF35E094
:1014B0003915D0F0023120F460E0812F0E94F30250
:1014C000C55BDF4F88818F3779F082E088830CC05D
:1014D000023150F460E0812F0E94F302C55BDF4FC0
:1014E00088818F3709F01882DF91CF911F910F917A
:1014F000FF90EF90DF90CF90BF90AF909F900895B6
:10150000023190F762E0812F0E94F302C55BDF4F4A
:1015100088818F3711F08BE08883F501E75BFB4F03
:1015200081E090E091838083DFCF0231E8F660E0D4
:10153000812F0E94A70261E0812F0E94F302C55B08
:10154000DF4F88818F3781F281E0C0CF133041F0C7
:101550008BEF810F823020F087EF810F833020F6F0
:1015600061E0812F0E94F30261E0812F0E94F3026B
:1015700060E0812F0E94A702C55BDF4F88818F3713
:1015800009F4B2CF83E0A2CF023108F0ADCFC55B42
:10159000DF4F88818F3711F084E08883F601EC5C9F
:1015A000FD4F80818F3FA9F090E0FC01EE0FFF1FFF
:1015B000E80FF91FEB54FB4FE0818E2F90E0FC0108
:1015C000EE0FFF1FE80FF91FE057FB4F808186FDEC
:1015D0008BCF4FEF5FEF6FEF7FEF812FDF91CF91D9
:1015E0001F910F91FF90EF90DF90CF90BF90AF9041
:1015F0009F900C94DF081251123008F075CFC55B34
:10160000DF4F88818F3709F46FCF86E05FCF87E4A3
:1016100091E0DF91CF911F910F91FF90EF90DF90BC
:10162000CF90BF90AF909F900C94D3080F931F93CF
:10163000CF93DF9381E080934C0280914B0288230B
:1016400029F010924B028FEF809300011092C2029A
:101650001092BF02109248021092C3021092C00270
:10166000109249021092C4021092C10210924A02D2
:1016700004E312E0C0E0DFEF82EF8C0F62E070E085
:10168000863030F08EEF8C0F823128F461E070E00C
:101690008C2F0E94BE09F801D1938F01CF5FC43116
:1016A00059F71092F2021092F10210923302109246
:1016B000320210924C02DF91CF911F910F91089549
:1016C0004F925F926F927F928F929F92AF92BF9252
:1016D000DF92EF92FF920F931F93CF93DF93D82E59
:1016E0008B01D42FC22F6F3F760709F490C081E0A1
:1016F00080932303D0924503109224031092460353
:1017000084E894E00E944B058C2F0E940204809193
:101710003002909131028230910538F0880F991F84
:10172000880F991F05970197F1F70E9444034B0119
:101730005C0180911D0381116CC0CD2FD13208F066
:10174000C0E281E080931D0380931C039FEF909380
:101750001B0310921A039C0F909319038093F802B5
:101760009091F8028D2D880F892B8093F80280913B
:10177000F702813009F09EC01092F7020E944403E4
:101780004B015C018091F8028093BB0080911F03A4
:1017900090912003A0912103B0912203892B8A2BE1
:1017A0008B2BA1F00E94440340901F035090200314
:1017B0006090210370902203681979098A099B09B6
:1017C000461657066806790608F444C08091BC00A6
:1017D00083FDD8CF85EC8093BC000E9444034B016D
:1017E0005C0180911D03813009F466C080911A0369
:1017F0008C1710F4C0911A03A9EFB2E0EEE4F2E006
:1018000080E08C1761F19D9191938F5FFACF00E09A
:101810008CCF80911F0390912003A0912103B09160
:101820002203892B8A2B8B2B09F483CF0E9444033C
:1018300040901F035090200360902103709022037A
:10184000681979098A099B094616570668067906B8
:1018500008F06FCF80911E030E94E103C0E0109258
:101860006F02C0936E02ED2EF12C8C2F90E0E816E3
:10187000F9060CF043C088E591E00E94D308D092AD
:1018800010020093110200E112E0C8018051924061
:101890008E159F05D4F50F5F1F4F90916E028091BA
:1018A0006F02981791F184E894E00E940405F80112
:1018B0008183EBCF85EE8FCF80911F039091200322
:1018C000A0912103B0912203892B8A2B8B2B09F441
:1018D00088CF0E94440340901F03509020036090E3
:1018E000210370902203681979098A099B09461619
:1018F00057066806790608F074CFACCF8E159F05A1
:101900000CF0BDCF85E791E0B8CF62E06D0F40E10C
:1019100052E087E7DF91CF911F910F91FF90EF90F9
:10192000DF90BF90AF909F908F907F906F905F906F
:101930004F900C94DD00EF92FF920F931F93CF9383
:10194000DF938956823108F033C0EA01162FE82F61
:10195000F0E0E355F34F0C94E915F10ED80C580E56
:10196000D80CB00ED80C360EDA0DD80CD80CD80C1A
:10197000D80CD80CBF0CD80CA00DD80C200E998117
:1019800095FF0AC081E991E0DF91CF911F910F91FE
:10199000FF90EF900C94D308888131E096FB2227CA
:1019A00020F9232798719830D1F148F49923A9F0B0
:1019B000DF91CF911F910F91FF90EF90089590319B
:1019C00009F44CC09831A1F72091000112160CF4D3
:1019D00072C08FEF80930001EBCF3093230380938D
:1019E0004503109224031092460302E0011778F495
:1019F000FE01E00FF11D6181679566276795808183
:101A0000680F84E894E00E944B050E5FEFCF81E001
:101A10000E94020483E191E00197F1F7C9CF9A8116
:101A20004B816630A1F430E8439FB0011124690F67
:101A3000711D4D814795442747959C81490FDF9142
:101A4000CF911F910F91FF90EF900C94600B4795F1
:101A500044274795490F6FEF7FEFF1CFE0910001E9
:101A6000E7301CF081EB91E08FCF3A819B816630AB
:101A7000D9F460E8969FA0011124430F511D9D8168
:101A80009795992797953C81930FEF5FE09300011D
:101A900035E0E302F0011124E753FD4F80835283C8
:101AA00041839383248384CF979599279795930FA8
:101AB0004FEF5FEFEACF90E0622F022E000C770B22
:101AC00035E0492F50E06417750764F0349FF0014A
:101AD000359FF00D1124E753FD4F4081481719F051
:101AE0009F5FEFCF90E085E0492F50E064177507C6
:101AF0001CF19830F8F4FA0131968E9FD0018F9F37
:101B0000B00D1124A753BD4F3C91849FF001859FD8
:101B1000F00D1124E753FD4F308311964D915C91E8
:101B200012975283418313963C91139733831496F3
:101B30003C9134839F5FD8CF21502093000138CF50
:101B4000898160E8869F900111248881820F932FFC
:101B5000911D009721F09093310280933002809183
:101B60004B02811125CFC0E08EEE8C0F823028F41D
:101B700066E070E08C2F0E94BE09CF5FC431A1F7F0
:101B800081E080934B0210926F0210926E021092CD
:101B90002403109246030E94C30382EF94E09093C3
:101BA00092028093910283EF94E090939602809347
:101BB0009502FECE653008F4FBCE18818EEF810FC2
:101BC000823108F0F5CE0981EA80FB80CC81E12FDB
:101BD000F0E0EC5CFD4F80818C30C0F490E0FC01C3
:101BE000EE0FFF1FE80FF91FEB54FB4FE0818E2F24
:101BF00090E0FC01EE0FFF1FE80FF91FE057FB4FCD
:101C0000808186FF03C0812F0E94780880E8C89FEA
:101C1000A00111244F0D511D90E8E99EB00111243F
:101C2000600F711D812F0E94DF0864E070E0812F3A
:101C3000DF91CF911F910F91FF90EF900C94BE090F
:101C4000623008F4B5CE8981E0E88E9F90011124BE
:101C50008881820F932F911D009729F090930201A4
:101C600080930101A5CE81E090E0F8CF623008F4C6
:101C70009FCE698170E0123091F08A81F0E88F9FE9
:101C8000C0011124682B792B133049F08B8190E02F
:101C900090E4899F902D88271124682B792B8881C7
:101CA000DF91CF911F910F91FF90EF900C94D5068B
:101CB00080EF0E9472018CE60E947201CEEF84EFE9
:101CC0008C0F863020F582E00E9472018AE00E942B
:101CD00072018DEF8C0F8230E0F089EF8C0F833032
:101CE000F0F417C0C23158F780E00E94720181E021
:101CF0000E9472018BE00E94720181E00E947201D9
:101D000081E00E94720181E00E947201D8CFC1304F
:101D100001F783E00E94720188E00E947201C231E3
:101D200030F484E00E9472018EE00E94720180EF24
:101D30008C0F823030F486E00E94720181E00E94B4
:101D400072018FE70E947201CF5FC23159F687EFAF
:101D5000DF91CF911F910F91FF90EF900C94720142
:101D6000662309F425CEC88180EF0E9472018EE6B9
:101D70000E9472018C2F0E947201C43140F7D0E0A2
:101D8000FE01EB5CFB4F80810E947201CC0FDD1FD6
:101D90008E01075B1B4FF80180818F770E947201D3
:101DA000F801808191819C012078232B39F0880FE4
:101DB000892F881F990B8F770E947201C75BDB4FB9
:101DC000888199819C012227307C232B09F4BFCF85
:101DD000990F880B990F982F881F8F770E94720197
:101DE000B6CF80EF0E9472018AE60E947201C2EFB4
:101DF0008FE7C63008F48C2F0E947201CF5FC63087
:101E0000B9F7A5CF85ED8093BC0080911F03909119
:101E10002003A0912103B09122030796A11DB11DBB
:101E200023E0B695A795979587952A95D1F72091A8
:101E3000BC0024FD03C010921D03089540911F03B0
:101E4000509120036091210370912203452B462B72
:101E5000472B69F30097A105B10541F025E32A95C9
:101E6000F1F700000197A109B109E1CF80911E03AC
:101E70000C94E1031F920F920FB60F9211242F932F
:101E80003F934F935F936F937F938F939F93AF9302
:101E9000BF93EF93FF9387E493E00E941802FF91B2
:101EA000EF91BF91AF919F918F917F916F915F91D2
:101EB0004F913F912F910F900FBE0F901F9018954B
:101EC0001F920F920FB60F9211242F938F939F930F
:101ED000EF93FF93E0915703F09158038081E091D5
:101EE0005D03F0915E0382FD1BC0908180916003D1
:101EF0008F5F8F7320916103821741F0E09160033F
:101F0000F0E0E95BFC4F958F80936003FF91EF91C8
:101F10009F918F912F910F900FBE0F901F9018954A
:101F20008081F4CF1F920F920FB60F9211242F933E
:101F30003F938F939F93AF93BF938091C5029091EE
:101F4000C602A091C702B091C8023091BA0223E044
:101F5000230F2D3758F50196A11DB11D2093BA020C
:101F60008093C5029093C602A093C702B093C802A3
:101F70008091BB029091BC02A091BD02B091BE02C3
:101F80000196A11DB11D8093BB029093BC02A0934A
:101F9000BD02B093BE02BF91AF919F918F913F91CF
:101FA0002F910F900FBE0F901F90189526E8230FCA
:101FB0000296A11DB11DD2CF1F920F920FB60F92A4
:101FC00011240F900FBE0F901F9018951F920F9223
:101FD0000FB60F9211242F933F934F935F936F93FC
:101FE0007F938F939F93AF93BF93EF93FF938091D2
:101FF000B900887F803609F44AC0F0F5883209F4C8
:10200000A7C018F5803109F49BC0B8F4882309F4FF
:10201000F9C0883009F494C0FF91EF91BF91AF915E
:102020009F918F917F916F915F914F913F912F91F0
:102030000F900FBE0F901F901895883109F488C03B
:10204000803251F780931B0314C0803409F49DC083
:1020500040F48033B9F38833F9F680931B0385ECA1
:10206000B0C0803509F485C0883509F496C088343D
:1020700099F60E94020FD0CF883909F48CC038F548
:10208000883729F050F4883611F0803729F683E03C
:1020900080931D031092B70257C0883809F47BC0A3
:1020A000803919F0803809F0B7CF8091B7028032BB
:1020B00008F071C0E091B70281E08E0F8093B70203
:1020C0008091BB00F0E0E956FD4F80833DC0803B2E
:1020D00039F0E0F4803A09F479C0883A09F09CCFED
:1020E00084E080931D031092940210929302E09179
:1020F0009102F091920209958091930281110FC093
:1021000081E0809393021092710209C0803C09F42F
:10211000A6CF883C09F4A3CF883B09F07DCFE0919E
:10212000940281E08E0F80939402F0E0EF58FD4F0F
:1021300080818093BB00909194028091930229C08A
:102140008091F8028093BB0085EC8093BC0064CF43
:1021500090911A0380911903981758F5E0911A038A
:1021600081E08E0F80931A03F0E0E750FD4F8081ED
:10217000E9CFE0911A0381E08E0F80931A038091DA
:10218000BB00F0E0E750FD4F808390911A038091EF
:1021900019039817C8F285E8D8CFE0911A0381E0B7
:1021A0008E0F80931A038091BB00F0E0E750FD4F43
:1021B000808380911C0381115CCF81E08093F702C2
:1021C00084EA8093BC0010921D0326CF85EC809397
:1021D000BC0010921D038091B702803230F4E09170
:1021E000B702F0E0E956FD4F10826091B70270E04F
:1021F000E0919502F091960287E992E0099510929C
:10220000B7020ACF10921B0334CF1F920F920FB662
:102210000F9211242F933F934F935F936F937F936C
:102220008F939F93AF93BF93CF93DF93EF93FF93DE
:1022300080914D02C091B404D0E087FF24C0109279
:1022400085001092840080914D028F5F80934D0233
:1022500080914D02082E000C990B8C179D0724F4D9
:1022600080914D028C30C4F1809184009091850062
:10227000049680349C4908F47AC08091840090913F
:102280008500049676C080914D02082E000C990BB3
:102290008C179D07C4F6E0914D028E2FEE0F990B1F
:1022A000FC01EE0FFF1FE80FF91FE057FB4F808185
:1022B00086FFC9CFE0914D028E2FEE0F990BFC01E6
:1022C000EE0FFF1FE80FF91FE057FB4F808160E022
:1022D0008F730E94A702B7CF2091840030918500B0
:1022E000E0914D028E2FEE0F990BFC01EE0FFF1FB8
:1022F000E80FF91FE057FB4F81819281820F931FF6
:102300009093890080938800E0914D028E2FEE0F0C
:10231000990BFC01EE0FFF1FE80FF91FE057FB4F71
:10232000808186FF11C0E0914D028E2FEE0F990B38
:10233000FC01EE0FFF1FE80FF91FE057FB4F8081F4
:1023400061E08F730E94A702FF91EF91DF91CF911F
:10235000BF91AF919F918F917F916F915F914F91BD
:102360003F912F910F900FBE0F901F90189580E412
:102370009CE990938900809388008FEF80934D02B1
:10238000E3CFCF92DF92EF92FF9210924A03109226
:10239000490368EEC62E63E0D62EE12CF12CC092E4
:1023A0004B03D0924C03E0924D03F0924E038DE02C
:1023B00091E0909348038093470385EC90E09093DD
:1023C00054038093530384EC90E0909356038093DE
:1023D000550380EC90E0909358038093570381EC71
:1023E00090E090935A038093590382EC90E090938D
:1023F0005C0380935B0386EC90E090935E03809394
:102400005D031092600310926103109262031092B8
:1024100063038FE191E09093E5038093E4031092CE
:10242000E6031092E7031092E8031092E90310927A
:1024300083041092EC031092EE031092ED030E94BD
:102440007F011092870410928604C0928804D09273
:102450008904E0928A04F0928B0485E291E09093E3
:10246000850480938404E5EBF4E029ED34E04FEF3C
:1024700068EB7BE08091B4048C30D0F491E0980F4D
:102480009093B404808390E0DC01AA0FBB1FA80FD7
:10249000B91FA057BB4F12967C936E93119733963A
:1024A0002E173F0739F7FF90EF90DF90CF900895F8
:1024B0004083F5CF789484B5826084BD84B5816013
:1024C00084BD85B5826085BD85B5816085BD8091FF
:1024D0006E00816080936E00109281008091810077
:1024E000826080938100809181008160809381006F
:1024F000809180008160809380008091B100846031
:102500008093B1008091B00081608093B000809191
:102510007A00846080937A0080917A008260809350
:102520007A0080917A00816080937A0080917A00AD
:10253000806880937A001092C10088E18093EC0358
:102540008091ED039091EE030E948B16C091EC03F5
:10255000D0E0CE0101960E94EF159093EE03809398
:10256000ED03FC01EC0FFD1F108212E0DC011C9357
:1025700025E011962C93AE01425051096CEE71E0AA
:1025800002960E94141785ED96E090937204809352
:10259000710489E296E090937404809373048CEF45
:1025A00095E090937604809375048DE498E0909381
:1025B0007804809377048EEB99E090937A0480936B
:1025C000790483EF97E090937C0480937B048BE9FC
:1025D0009CE0909382048093810486E19BE0909339
:1025E0007E0480937D04E0915703F091580310839B
:1025F000E0915703F09158031082E0915303F0915A
:1026000054031082E0915503F091560380E18083DA
:1026100010925F03E0915B03F0915C0386E080839E
:10262000E0915903F0915A03808180618083E091A9
:102630005903F0915A03808188608083E0915903A7
:10264000F0915A03808180688083E0915903F09172
:102650005A0380818F7D808387E493E09093EB031E
:102660008093EA038091830481114FC061E08DE083
:102670000E94F30262ED70E080E090E00E94690346
:1026800061E08DE00E94A70268E270E080E090E0E7
:102690000E94690360E08DE00E94A70262ED70E095
:1026A00080E090E00E94690361E08DE00E94A70253
:1026B00068E270E080E090E00E94690360E08DE0F5
:1026C0000E94A7026AEF70E080E090E00E94690338
:1026D000C5E062ED70E080E090E00E94690361E097
:1026E0008DE00E94A70268E270E080E090E00E9426
:1026F000690360E08DE00E94A702C15051F76DE7C9
:1027000070E080E090E00E9469030E944E01809199
:10271000EC0381110E9408010E94160B25E0F22EA5
:1027200000E010E07724739432E0E32E8091C2023F
:10273000882349F069B18091BF0268236C7F40E033
:1027400080E00E9408088091C302882379F063B179
:1027500086B16F73B0E48B9FC0011124682B809108
:10276000C002682340E081E00E9408088091C40212
:10277000882359F066B18091C1028F706695669585
:10278000682340E082E00E9408088091EA0390916B
:10279000EB03EC01E881F9810084F185E02D0995D6
:1027A000892B09F427C18091EA039091EB03DC01A6
:1027B000ED91FC910284F385E02D09958F3F9807F8
:1027C00021F3382F20913204222309F467C0873F78
:1027D00009F055C0109232048091F203813751F014
:1027E000893709F03EC08091EC03882371F20E9482
:1027F0000801CBCFE0917F04F0918004309729F25B
:102800008091330490913404DC011197B7FDDC0111
:10281000B595A7957A2F4AEE53E09A0190E04E5F66
:102820005F4F2F5F3F4F971770F4EA016F81E90107
:102830006F83EA018885879588278795860FE90148
:102840008F839F5FECCFBB27A651BC4F17968C910F
:102850001797882311F018961C9282EF93E0099540
:1028600094CFE0918104F0918204309709F48DCFE8
:1028700060913304615043EF53E0099586CF209176
:10288000330430913404F901E651FC4F80872F5F07
:102890003F4F309334042093330477CF2091EF03DC
:1028A000222309F466C087FD64C09FEF920F9093C6
:1028B000EF03E92FF0E0E651FC4F8087911165CFDF
:1028C0008091F003882309F460CF803D09F446C06D
:1028D00060F4803921F1E0917504F0917604803C38
:1028E00009F440C01092F00350CF843F29F1853F96
:1028F00081F1803EB9F7E0917104F0917204309754
:1029000089F36091F203D0E86D9FC00111246091BA
:10291000F303680F792F711D8091F10318C0E091C6
:102920007304F09174043097E9F26091F20320E8A7
:10293000629FC0011124EBCFE0917904F0917A04F9
:102940006091F20370E08091F303309759F209959A
:10295000C9CFE0917B04F0917C04F2CFE091770441
:10296000F0917804309709F4BDCF6091F20370E0E4
:10297000D3CF303FB8F4282F207F30E08F70809382
:10298000F103203F310561F1BCF4203C310529F110
:1029900064F42039310509F0F8CEE092EF0320937A
:1029A000F003F3CE9C013327ECCF203D3105A9F095
:1029B000203E310591F3E9CE293F3105C1F034F4D1
:1029C000C901845F9109029740F3DFCE2F3F3105A3
:1029D00009F0DBCE0E947F01D8CE7092EF03DFCFEB
:1029E000709232041092340410923304CECE0E94BE
:1029F0004E01CBCE8FB7F8948090C5029090C6025E
:102A0000A090C702B090C8028FBF8091F30290914E
:102A1000F402A091F502B091F602409101015091AB
:102A2000020170E060E0881A990AAA0ABB0A4815F8
:102A300059056A057B0508F051C0840F951FA61F34
:102A4000B71F8093F3029093F402A093F502B09322
:102A5000F6028AEEC82E83E0D82EC2EFC630C8F444
:102A6000F601E55BFF4F8081823099F48091F1029D
:102A70009091F2020C2E02C0959587950A94E2F788
:102A800080FF07C08C2F0E942F03BC018C2F0E9457
:102A9000AE00CF5F8FEFC81AD80AC630F9F6809122
:102AA000000187FD1BC0C0E02C2F30E080910001A9
:102AB000082E000C990B8217930784F0F29EF00108
:102AC000F39EF00D1124E753FD4F61817281248143
:102AD000438180810E94600BCF5FE6CF0115110515
:102AE00009F424CE0E940402882309F41FCE0E9418
:102AF00000001CCE052E97FB1EF400940E94911539
:102B000057FD07D00E94AC1507FC03D04EF40C947F
:102B1000911550954095309521953F4F4F4F5F4F00
:102B2000089590958095709561957F4F8F4F9F4F39
:102B300008950E94CE15A59F900DB49F900DA49F5F
:102B4000800D911D11240895B7FF0C9499150E94D2
:102B50009915821B930B0895A1E21A2EAA1BBB1B89
:102B6000FD010DC0AA1FBB1FEE1FFF1FA217B30759
:102B7000E407F50720F0A21BB30BE40BF50B661F6F
:102B8000771F881F991F1A9469F760957095809533
:102B900090959B01AC01BD01CF010895A29FB001AA
:102BA000B39FC001A39F700D811D1124911DB29F81
:102BB000700D811D1124911D0895991B79E004C0A9
:102BC000991F961708F0961B881F7A95C9F780956C
:102BD0000895EE0FFF1F0590F491E02D09940F93D7
:102BE0001F93CF93DF938230910510F482E090E041
:102BF000E091DB04F091DC0430E020E0B0E0A0E004
:102C0000309799F42115310509F44AC0281B390B76
:102C100024303105D8F58A819B816115710589F1D0
:102C2000FB0193838283FE0111C0408151810281A7
:102C3000138148175907E0F04817590799F410977E
:102C400061F012960C93129713961C933296CF0153
:102C5000DF91CF911F910F9108950093DB041093A2
:102C6000DC04F4CF2115310551F04217530738F039
:102C7000A901DB019A01BD01DF01F801C1CFEF011C
:102C8000F9CF9093DC048093DB04CDCFFE01E20FFB
:102C9000F31F819391932250310939832883D7CF31
:102CA0002091D9043091DA04232B41F420910501BD
:102CB000309106013093DA042093D9042091030166
:102CC000309104012115310541F42DB73EB74091F3
:102CD000070150910801241B350BE091D904F091B4
:102CE000DA04E217F307A0F42E1B3F0B281739076D
:102CF00078F0AC014E5F5F4F2417350748F04E0F58
:102D00005F1F5093DA044093D904819391939FCF2E
:102D1000F0E0E0E09CCFCF93DF930097E9F0FC0177
:102D2000329713821282A091DB04B091DC04ED0192
:102D300030E020E01097A1F420813181820F931FB1
:102D40002091D9043091DA042817390709F061C0BD
:102D5000F093DA04E093D904DF91CF910895EA016A
:102D6000CE17DF07E8F54A815B819E0141155105C9
:102D7000B1F7E901FB83EA8349915991C40FD51F4B
:102D8000EC17FD0761F4808191810296840F951FF5
:102D9000E90199838883828193819B838A83F0E010
:102DA000E0E012968D919C9113970097B9F52D91C3
:102DB0003C911197CD010296820F931F2091D90467
:102DC0003091DA042817390739F6309751F5109207
:102DD000DC041092DB04B093DA04A093D904BCCFD6
:102DE000D383C28340815181840F951FC817D907AF
:102DF00061F44E5F5F4F88819981480F591F51835D
:102E000040838A819B81938382832115310509F058
:102E1000B0CFF093DC04E093DB049ECFFD01DC0136
:102E2000C0CF13821282D7CFFB01DC01415050404A
:102E300048F001900D920020C9F701C01D92415049
:0A2E40005040E0F70895F894FFCF2A
:102E4A00FF13000000DD048000000000003A029A2F
:102E5A0001C7018702F801D601EA010000000074E7
:102E6A0009000000004B051E057A05F40417050445
:102E7A0005F5044D617820736572766F732061746D
:102E8A0074616368656400556E6B6E6F776E20704F
:102E9A00696E206D6F6465004932433A20546F6F42
:102EAA00206D616E7920627974657320726563653D
:102EBA0069766564004932433A20546F6F2066652B
:102ECA0077206279746573207265636569766564D3
:102EDA000031302D626974206164647265737369AC
:102EEA006E67206E6F7420737570706F727465648C
:102EFA0000746F6F206D616E7920717565726965F6
:102F0A0073002F686F6D652F6A6775696C6C65321F
:102F1A002F41726475696E6F2F4669726D617461B3
:102F2A005374616E64617264554E4F2F4669726DB7
:102F3A006174615374616E64617264554E4F2E6997
:042F4A006E6F0000A6
:00000001FF
