:100000000C940D030C9435030C9435030C941A1BBB
:100010000C941A1B0C941A1B0C9435030C94350386
:100020000C9435030C9435030C9435030C94431C49
:100030000C9435030C9435030C9435030C94350360
:100040000C94D01A0C9435030C949E1A0C94781AC4
:100050000C9435030C9435030C9435030C94350340
:100060000C94241B0C94350300000000003E5B4FF1
:100070005B3E3E6B4F6B3E1C3E7C3E1C183C7E3C08
:10008000181C577D571C1C5E7F5E1C00183C180016
:10009000FFE7C3E7FF0018241800FFE7DBE7FF30A6
:1000A000483A060E2629792926407F050507407F14
:1000B00005253F5A3CE73C5A7F3E1C1C08081C1C87
:1000C0003E7F14227F22145F5F005F5F06097F017D
:1000D0007F006689956A606060606094A2FFA29468
:1000E00008047E040810207E201008082A1C080836
:1000F0001C2A08081E101010100C1E0C1E0C303884
:100100003E3830060E3E0E06000000000000005F84
:1001100000000007000700147F147F14242A7F2AA0
:100120001223130864623649562050000807030062
:10013000001C2241000041221C002A1C7F1C2A08AE
:10014000083E080800807030000808080808000011
:1001500060600020100804023E5149453E00427F85
:10016000400072494949462141494D331814127FD4
:100170001027454545393C4A494931412111090774
:100180003649494936464949291E000014000000F5
:1001900040340000000814224114141414140041C7
:1001A00022140802015909063E415D594E7C121184
:1001B000127C7F494949363E414141227F414141BC
:1001C0003E7F494949417F090909013E4141517337
:1001D0007F0808087F00417F41002040413F017FA8
:1001E000081422417F404040407F021C027F7F0470
:1001F00008107F3E4141413E7F090909063E4151B9
:10020000215E7F09192946264949493203017F01A8
:10021000033F4040403F1F2040201F3F4038403FA9
:10022000631408146303047804036159494D4300BF
:100230007F4141410204081020004141417F0402F6
:10024000010204404040404000030708002054548D
:1002500078407F284444383844444428384444286B
:100260007F385454541800087E090218A4A49C78BE
:100270007F0804047800447D40002040403D007F1A
:100280001028440000417F40007C047804787C08FA
:100290000404783844444438FC18242418182424CE
:1002A00018FC7C08040408485454542404043F44B3
:1002B000243C4040207C1C2040201C3C4030403CE2
:1002C00044281028444C9090907C4464544C440042
:1002D00008364100000077000000413608000201A6
:1002E0000204023C2623263C1EA1A161123A404092
:1002F000207A38545455592155557941225454780F
:1003000042215554784020545579400C1E527212A7
:100310003955555559395454545939555454580030
:1003200000457C410002457D420001457C407D1234
:1003300011127DF0282528F07C5455450020545496
:100340007C547C0A097F4932494949323A44444441
:100350003A324A4848303A4141217A3A424020787C
:10036000009DA0A07D3D4242423D3D4040403D3C7D
:1003700024FF2424487E4943662B2FFC2F2BFF09A2
:1003800029F620C0887E0903205454794100004496
:100390007D413048484A32384040227A007A0A0A81
:1003A000727D0D19317D2629292F282629292926F4
:1003B00030484D4020380808080808080808382F39
:1003C00010C8ACBA2F102834FA00007B00000814C3
:1003D0002A142222142A14085500550055AA55AA99
:1003E00055AAFF55FF55FF000000FF00101010FF39
:1003F00000141414FF001010FF00FF1010F010F094
:10040000141414FC001414F700FF0000FF00FF1484
:1004100014F404FC141417101F10101F101F1414D0
:10042000141F00101010F0000000001F101010101A
:100430001F10101010F010000000FF10101010100E
:1004400010101010FF10000000FF140000FF00FF4C
:1004500000001F10170000FC04F4141417101714E8
:1004600014F404F40000FF00F7141414141414140A
:10047000F700F7141414171410101F101F1414147D
:10048000F4141010F010F000001F101F0000001FE7
:1004900014000000FC140000F010F01010FF10FF1A
:1004A000141414FF141010101F00000000F010FFAF
:1004B000FFFFFFFFF0F0F0F0F0FFFFFF0000000093
:1004C00000FFFF0F0F0F0F0F3844443844FC4A4A17
:1004D0004A347E02020606027E027E0263554941CC
:1004E000633844443C04407E201E2006027E020203
:1004F00099A5E7A5991C2A492A1C4C7201724C3017
:100500004A4D4D303048784830BC625A463D3E49ED
:100510004949007E0101017E2A2A2A2A2A44445F91
:10052000444440514A444040444A51400000FF0185
:1005300003E080FF000008086B6B08361236243693
:10054000060F090F060000181800000010100030F8
:1005500040FF0101001F01011E00191D1712003C80
:100560003C3C3C00000000000001020304050608BA
:10057000090A0B0D0E1012131517191B1D20222529
:10058000272A2D3033373A3E4145494D52565B5F5D
:1005900064696E74797F858B91979DA4ABB2B9C065
:1005A000C7CFD6DEE6EEF7FF000102030507090B11
:1005B0000E1114181D22282E363D464F59646F7CAB
:1005C0008997A6B6C7D9EBFF0000000024002700DA
:1005D0002A0000000000250028002B000404040469
:1005E00004040404020202020202030303030303DD
:1005F00001020408102040800102040810200102BA
:100600000408102000000008000201000003040795
:100610000000000000000000FF1C11241FBECFEFEF
:10062000D8E0DEBFCDBF12E0A0E0B1E0E2E5F5E446
:1006300002C005900D92A436B107D9F725E0A4E6D3
:10064000B2E001C01D92AA34B207E1F713E0CDE099
:10065000D3E004C02197FE010E944D21CC30D10788
:10066000C9F70E94981D0C94A7220C9400000F93C8
:100670001F93CF93082F10E0F801EF54FC4F9081A7
:10068000C62FC92302551C4FD8019C91C91769F187
:10069000682F80915704909158046069DC01ED91B6
:1006A000FC910190F081E02D099580915704909183
:1006B00058046C2F6F77DC01ED91FC910190F08173
:1006C000E02D099580915704909158046C2F70E0AB
:1006D000660F672F661F770BDC01ED91FC9101908F
:1006E000F081E02D0995F801C083CF911F910F9102
:1006F00008958091570490915804DC01ED91FC918C
:100700000190F081E02D67EF09940F931F93CF9331
:10071000DF93EC0107E514E0D8018D919C916C2FDB
:100720006F77DC01ED91FC910190F081E02D09954E
:10073000F80180819181CC0FCD2FCC1FDD0B6C2F68
:100740006F77DC01ED91FC910190F081E02DDF915C
:10075000CF911F910F910994809157049091580463
:10076000DC01ED91FC910190F081E02D60EF0994A6
:10077000FF920F931F93CF93DF93C82F062FF42E72
:10078000152F0E94AC038091570490915804DC010E
:10079000ED91FC910190F081E02D6C2F0995CF2D0A
:1007A000D12F0C0F1D2F111DC017D10729F08991D2
:1007B00090E00E948503F8CFDF91CF911F910F91B8
:1007C000FF900C947903CF93DF930E94AC03809148
:1007D000570490915804DC01ED91FC910190F08157
:1007E000E02D69E709958091570490915804A091F4
:1007F0005A04B0915B04EC01E881F9810190F08129
:10080000E02D6C9109958091570490915804A09126
:100810005A04B0915B04EC01E881F9810190F08108
:10082000E02D11966C910995C2E080915904C8178A
:1008300060F4E0915A04F0915B04EC0FF11D8081AB
:1008400090E00E948503CF5FF0CFDF91CF910C94B1
:100850007903CF93DF93C7E5D4E088819981DC01E8
:10086000ED91FC910190F081E02D69EF099588816F
:100870009981DC01ED91FC910190F081E02D62E025
:10088000099588819981DC01ED91FC910190F081BD
:10089000E02D65E0DF91CF910994A0915704B091CC
:1008A0005804ED91FC9111970190F081E02D682F93
:1008B000CD01099410925C0410925D0410925E04C4
:1008C000EFE5F4E0119284E0EF39F807D9F71092E0
:1008D0009F041092A1041092A004E091EA04F09108
:1008E000EB04309709F009940895833028F4E82F39
:1008F000F0E0EB5DFC4F60830895AF92BF92CF9222
:10090000DF92EF92FF920F931F93CF93DF936C01CF
:100910007B018B01040F151FEB015E01AE18BF08B0
:10092000C017D10759F06991D601ED91FC91019062
:10093000F081E02DC6010995892B79F7C501DF917A
:10094000CF911F910F91FF90EF90DF90CF90BF90CC
:10095000AF900895FC01538D448D252F30E0842FF6
:1009600090E0821B930B541710F0CF9608950197D7
:100970000895FC01918D828D981761F0A28DAE0FC4
:10098000BF2FB11D5D968C91928D9F5F9F73928F4B
:1009900090E008958FEF9FEF0895FC01918D828D77
:1009A000981731F0828DE80FF11D858D90E0089544
:1009B0008FEF9FEF0895FC01918D228D892F90E09C
:1009C000805C9F4F821B91098F739927089584EB58
:1009D00093E00E94DB0421E0892B09F420E0822FC0
:1009E000089580E090E0892B29F00E94E7048111AE
:1009F0000C9400000895FC01A48DA80FB92FB11D1F
:100A0000A35ABF4F2C91848D90E001968F73992744
:100A1000848FA689B7892C93A089B1898C91837022
:100A200080648C93938D848D981306C00288F3891B
:100A3000E02D80818F7D80830895EF92FF920F9348
:100A40001F93CF93DF93EC0181E0888F9B8D8C8D7A
:100A500098131AC0E889F989808185FF15C09FB76E
:100A6000F894EE89FF896083E889F9898081837031
:100A7000806480839FBF81E090E0DF91CF911F91E0
:100A80000F91FF90EF900895F62E0B8D10E00F5F01
:100A90001F4F0F731127E02E8C8D8E110CC00FB6D7
:100AA00007FCFACFE889F989808185FFF5CFCE016F
:100AB0000E94FB04F1CFEB8DEC0FFD2FF11DE35AEB
:100AC000FF4FF0829FB7F8940B8FEA89FB898081F2
:100AD0008062CFCFCF93DF93EC01888D8823B9F06C
:100AE000AA89BB89E889F9898C9185FD03C0808139
:100AF00086FD0DC00FB607FCF7CF8C9185FFF2CFB6
:100B0000808185FFEDCFCE010E94FB04E9CFDF910C
:100B1000CF91089590E0FC01EC5FF94F2491FC0126
:100B2000E051FA4F3491FC01E452FA4FE491EE2384
:100B3000C9F0222339F0233001F1A8F4213019F152
:100B4000223029F1F0E0EE0FFF1FEE52FA4FA5918F
:100B5000B4918FB7F894EC91611126C030953E2383
:100B60003C938FBF08952730A9F02830C9F0243076
:100B700049F7809180008F7D03C0809180008F773E
:100B800080938000DFCF84B58F7784BDDBCF84B5C1
:100B90008F7DFBCF8091B0008F778093B000D2CF54
:100BA0008091B0008F7DF9CF3E2BDACFCF93DF93CA
:100BB00090E0FC01E051FA4F249184529A4FFC01DD
:100BC00084918823D1F090E0880F991FFC01E853AD
:100BD000FA4FA591B491FC01EE52FA4FC591D49110
:100BE00061110EC09FB7F8948C91E22FE0958E238F
:100BF0008C932881E223E8839FBFDF91CF910895F2
:100C00008FB7F894EC91E22BEC938FBFF6CF3FB700
:100C1000F8948091210390912203A0912303B09135
:100C2000240326B5A89B05C02F3F19F00196A11DEE
:100C3000B11D3FBFBA2FA92F982F8827BC01CD0126
:100C4000620F711D811D911D42E0660F771F881F85
:100C5000991F4A95D1F708958F929F92AF92BF92B4
:100C6000CF92DF92EF92FF926B017C010E94070608
:100C70004B015C01C114D104E104F104B9F00E94FC
:100C80000706681979098A099B09683E734081053E
:100C9000910580F321E0C21AD108E108F10888EE3D
:100CA000880E83E0981EA11CB11CE4CFFF90EF904A
:100CB000DF90CF90BF90AF909F908F9008958F92CC
:100CC0009F92AF92BF92CF92DF92EF92FF921F93CB
:100CD000CF93DF93FC014A01AA24BB24C82DC32E65
:100CE000D42EE52EFF241C2DD22F8085882361F081
:100CF000889E40011124C92D8C9D600111241D2D59
:100D0000829FD0011124DB2FA685E184F284938594
:100D1000A91322C0CB01880F991F680F791F6E0D90
:100D20007F1DA385A60FB72FB11DCC93A485A60F59
:100D3000B72FB11D1C938585680F711DFB01D083F2
:100D4000DF91CF911F91FF90EF90DF90CF90BF90F8
:100D5000AF909F908F900895660F771F660F771F53
:100D60006E0D7F1D252F332744275527882349F0F3
:100D700090E0829F7001839FF00C929FF00C1124F1
:100D80002F2DA60FB72FB11D2C93CBCF0F931F93F1
:100D9000CF93DF93EC01162F072F8981882339F039
:100DA0008E819F8197FD03C060E00E94D6051E835F
:100DB0000F838981882341F061E0812F0E94D6054D
:100DC00060E0812F0E948A05812F902FFC01E45260
:100DD000FA4FE491F0E0EE0FFF1FEE52FA4F25912B
:100DE00034913C8B2B8BFC01E051FA4FE491ED8B5D
:100DF000DF91CF911F910F910895CF92DF92EF92E3
:100E0000FF920F931F93CF93DF93CDB7DEB7299750
:100E10000FB6F894DEBF0FBECDBF8C01DC01199672
:100E20008D919C91892B09F473C00E940706F801EB
:100E3000C784D088E188F2886C157D058E059F05F2
:100E400020F46787708B818B928BF801C784D088E0
:100E5000E188F2886C197D098E099F096C32714016
:100E60008105910510F3F894D80114968D919C9109
:100E700015979A8389831996ED91FC917F01BFEFB5
:100E8000EB1AFB0A80818987F80190810388F48935
:100E9000E02DD80155968C91992309F448C0908192
:100EA000982B98879081809589238F838F818C835D
:100EB00088E08B8358856F8149853B812C818981AE
:100EC0009A81D701508347FD252F3A952083262FFD
:100ED00039F0441F00C000006083000000C0F2CF62
:100EE00038E04D9160830000019761F7D801549676
:100EF000FC93EE93539749873B832C839A83898392
:100F000078940E940706F8016787708B818B928B1B
:100F100029960FB6F894DEBF0FBECDBFDF91CF91FB
:100F20001F910F91FF90EF90DF90CF9008959081E7
:100F3000982B98879081809589238F838F818E83CA
:100F400088E08D8358856F8149853D812E81898117
:100F50009A81D701508347FD252F00C000C0208310
:100F600000C000C000C000C000C060830000262F89
:100F70003A9541F0441F000000C000C000C000C00E
:100F800000C0E8CF38E04D9100C0608300C00197F9
:100F900009F7D8015496FC93EE93539749873D8304
:100FA0002E83ACCFCF93DF93EC018E819F8197FD91
:100FB00007C061E00E94D60560E08E810E948A052C
:100FC00081E08983DF91CF910895FC01EF2FFF2706
:100FD000E695E695E695E855FA4F2491FC0135E053
:100FE000F695E7953A95E1F7EF73FF27E859FA4F41
:100FF00064918F719927FC01E855FA4FE49170E0F4
:1010000090E080E0982F872F762F6627822B6E2B1B
:1010100008958F929F92AF92BF92CF92DF92EF92FC
:10102000FF920F931F93CF93DF938C01CB01F801B5
:1010300024AD2223F1F080AC91ACA2ACB3ACF801AA
:10104000E58CF68CD0E0C0E06801FBE1CF0ED11C4E
:10105000CE15DF0599F0F801858D968DC817D90753
:1010600030F4A5019401BE01C6010E945F062196DD
:10107000EFCF0E94E5074B015C01E1CFDF91CF91FB
:101080001F910F91FF90EF90DF90CF90BF90AF90A6
:101090009F908F9008955F926F927F928F929F9210
:1010A000AF92BF92CF92DF92EF92FF920F931F9376
:1010B000CF93DF938C01EB017A01690177FD31C198
:1010C00057FD2FC1DC0118968D919C9119976817D7
:1010D00079070CF026C11A968D919C911B974817A1
:1010E00059070CF01EC156968C915697823009F420
:1010F00042C0833009F44FC0813041F414968D9181
:101100009C910197841B950B7B01EC01D801D6962D
:10111000ED91FC91D797309709F446C0B701CE0105
:101120000995EC01B12CA12CF80184AD882309F4B8
:10113000F2C020AD31AD42AD53ADB5016C0F7D1F96
:10114000D8015D968D919C916817790708F0E9C0E8
:10115000C8014B96DF91CF911F910F91FF90EF90B7
:10116000DF90CF90BF90AF909F908F907F906F90C7
:101170005F900C945F06F8018481958101979C0132
:10118000261B370BE901868197810197DC01A41B9F
:10119000B50B7D01BBCFF801868197810197861B36
:1011A000970BEA017C01B2CFF80181A8F82DF3700A
:1011B0007F2ED4969C90D497B12CA12C992009F421
:1011C0006BC0D2966C90A62CB12CCE01B5010E94BA
:1011D00039219B01F80153A8E52DF0E0C701BF01BB
:1011E0000E943921CB01A29EA001A39E500DB29E68
:1011F000500D1124C41BD50BE69FA001E79F500D95
:10120000F69F500D1124E41AF50A85FE07C0A92D9A
:10121000A150BB0BFD01E21BF30B9F0184FE07C035
:10122000D801D5968C918150990B861B970B86FC23
:1012300011C0492D50E0782F692FC901272F362F73
:1012400087FC0DC0249FB001259F700D349F700D49
:10125000112416C0F80195A8492D50E0F1CF20FFC8
:10126000F1CF682D60956370762E2F5F3F4F249FDE
:10127000B001259F700D349F700D112480959095BD
:10128000680F791F659CC0011124869F5001879FBC
:10129000B00C969FB00C1124B701872D827049F0D5
:1012A000D801D2968C918150990BFC01EC1BFD0B5F
:1012B000EF0170FE07C0D801D3966C916150770B97
:1012C0006E197F0982FC12C0F80182A990E0362FC6
:1012D000272FBE01C32FD22F83FC0DC0C89F9001C2
:1012E000C99F300DD89F300D112411C0D801D3965D
:1012F0008C9190E0F1CFC0FFF1CF2196C89F900173
:10130000C99F300DD89F300D112460957095E9016B
:10131000C60FD71F09CFC6010E94E5079B01AC018C
:101320000CCFDF91CF911F910F91FF90EF90DF9045
:10133000CF90BF90AF909F908F907F906F905F9075
:1013400008950895FC016370668B848195812681E0
:101350003781613039F0633029F091878087338796
:1013600022870895318720879387828708952F9257
:101370003F924F925F926F927F928F929F92AF9225
:10138000BF92CF92DF92EF92FF920F931F93CF9372
:10139000DF93CDB7DEB76A970FB6F894DEBF0FBE06
:1013A000CDBF9A8F898F7A8369834A01D22E18879D
:1013B0000F833701BC2CDC0159962D913C915A9733
:1013C0002115310509F015C118968D919C91199739
:1013D000681779070CF0D7C11A968D919C91481720
:1013E00059070CF0D0C14C2C512CB6E0CB9E600DAF
:1013F000711D11247C876B87161617060CF0C3C16C
:10140000EA2DF0E0FA87E98793E0EE0FFF1F9A9547
:10141000E1F7F88BEF87CF01840F951F1816190697
:101420000CF0B1C1A98DBA8D58968C91811104C070
:10143000BFEABD1508F4D394A98DBA8DED91FC9146
:1014400011970284F385E02DCD010995B5E0DB9E6F
:10145000C0011124E981FA81FC83EB83312C212C1A
:101460009C0128593F4F388F2F8B4A2D50E05E8BBF
:101470004D8BEF89F88DE20DF31D44919E828D8294
:10148000D12CC12C69817A81620D731D7A8B698B95
:10149000842F90E09C8B8B8BE98DFA8DA081B1819C
:1014A00040FF82C0F1E0BF126FC0AF126DC01C964A
:1014B000ED91FC912F813885A4014C0D5D1D69894A
:1014C0007A89898D9A8D0995EB89FC89F595E7953F
:1014D0004E2F5FEFC51AD50A6D817E818D899E8959
:1014E000680F791F7E836D8398E0C916D10481F659
:1014F000AFEF2A1A3A0AEB81FC81E40DF51DFC835B
:10150000EB83F5E02F16310409F0B3CF2F81388536
:1015100026153705B9F0A98DBA8DED91FC91B1E092
:10152000BB1257C0AB1255C069817A816B5F7F4F88
:101530000088F189E02D830128E030E0A401898D45
:101540009A8D0995A98DBA8DED91FC911197068818
:10155000F789E02DCD016A960FB6F894DEBF0FBE75
:10156000CDBFDF91CF911F910F91FF90EF90DF9052
:10157000CF90BF90AF909F908F907F906F905F9033
:101580004F903F902F9009941E96ED91FC91EF8023
:10159000F88409851A8592014D815E816B817C8179
:1015A000898D9A8D099590CF2F813885261537051D
:1015B00009F48ACF31E0B31207C0A31205C01C960C
:1015C000ED91FC91930178CF1E96ED91FC91730102
:1015D000E0CF6B857C85641975090684F785E02D5D
:1015E00073010F8518899201A401898D9A8D09953F
:1015F000A9CFF90134969491329745915491D91A13
:10160000B7E0DB9E400D511D1124F9012591349165
:101610003C8B2B8BFA0125903490FA013296749012
:1016200031963491398B329664903196449041E0F2
:101630004C1518F04A1508F07FC0662D062C000CDA
:10164000770B7C836B83842D042C000C990B9E8379
:101650008D83A98DBA8DED91FC9111970284F3854C
:10166000E02DCD010995512CD12CC12CEA2DF0E0B3
:10167000FA87E9872B2D30E03C872B87A401440DA6
:10168000511D47FC5A95588F4F8B69817A81660DA1
:10169000711D67FC7A957E876D877989C71608F07A
:1016A00051CF2C2D30E04D815E81420F531FA98513
:1016B000BA854A9FC0014B9F900D5A9F900D1124EF
:1016C000FC01E80DF91DF88BEF87852D612C4F8902
:1016D000588D420F531F5E8B4D8B671408F050C01E
:1016E00044244394480E877041F4C1010196EB896C
:1016F000FC89E20DF31DD4901C01D7FE19C0A98D01
:10170000BA8DED91FC91662D70E0B1E0BB1219C06D
:10171000AB1217C02D853E85620F731F0484F585BB
:10172000E02D2F8138854D895E89898D9A8D0995A7
:10173000DD0C6394842DD1CF1E821D821C821B82FE
:1017400088CF4B815C81640F751FAB85BC856A9F18
:10175000C0016B9F900D7A9F900D112469817A8151
:10176000680F791F0684F785E02DEF80F8840985DE
:101770001A859D014F855889898D9A8D0995D8CFF5
:10178000570CC3948ACF6A960FB6F894DEBF0FBE8B
:10179000CDBFDF91CF911F910F91FF90EF90DF9020
:1017A000CF90BF90AF909F908F907F906F905F9001
:1017B0004F903F902F9008958F929F92AF92CF922B
:1017C000EF92FF920F931F93CF93DF93EC01262F9D
:1017D000898D9A8D009709F051C06A30D1F41D8629
:1017E0001C868D8948E0849F900111248E859F85F9
:1017F000820F931F9F878E8781E090E0DF91CF91CA
:101800001F910F91FF90EF90CF90AF909F908F908E
:1018100008956D3089F3CC88AD888F898823C1F015
:101820008C859D8536E0C39E800D911D11244885D1
:1018300059854817590764F44E855F851D861C86B7
:1018400038E0A39EC0011124840F951F9F878E87C7
:10185000EA88FB88088919894E855F856C857D85B6
:10186000CE010E94B7092C898C859D8546E0249F76
:10187000800D911D11249D878C87BECF6A3069F43D
:101880001D861C86FC013896E4912D898E859F85E6
:10189000E29F800D911D1124ADCF6D3009F4ACCFC6
:1018A000FC0134963491631708F4A6CF3296E49184
:1018B000E61708F4A1CFFC01329685909490462F4C
:1018C000431B342F47E0349F800C911C1124F401FA
:1018D000329634913196E4913323A9F1EE2399F1B4
:1018E000CC88F4013596E491AD884F89442301F109
:1018F0000E2E000CFF0BE30FF11DCE9EA001CF9E1C
:10190000500D11246C857D85460F571F688579859C
:10191000641775076CF44E855F851D861C86FC0177
:101920003896E491AE9E400D511D11245F874E877D
:10193000EA88FB88088919894E855F856C857D85D5
:10194000CE010E94B709F4013496E4912C898C856C
:101950009D85E29F800D911D11248DCF6F927F9206
:101960008F929F92AF92BF92CF92DF92EF92FF92AF
:101970000F931F93CF93DF93EC016B015A01390151
:101980004801E881F9810284F385E02D0995E88119
:10199000F9810288F389E02D87019301A501B60141
:1019A000CE010995A501480D591D41505109E88105
:1019B000F9810288F389E02D9301B601CE010995E2
:1019C000E881F9810088F189E02D9401A501B60133
:1019D000CE010995C60CD71CB60161507109E8818A
:1019E000F9810088F189E02D9401A501CE010995C6
:1019F000E881F9810688F789E02DCE01DF91CF914A
:101A00001F910F91FF90EF90DF90CF90BF90AF901C
:101A10009F908F907F906F9009946F927F928F929A
:101A20009F92AF92BF92CF92DF92EF92FF920F936D
:101A30001F93CF93DF935C01EB016A0149013801E9
:101A40008701DC01ED91FC916217730719F56416AB
:101A500075062CF0962D872D3A01C92ED82E9601A9
:101A6000261937092F5F3F4F048CF58DE02DA30118
:101A7000BE01C5010995DF91CF911F910F91FF9094
:101A8000EF90DF90CF90BF90AF909F908F907F901E
:101A90006F9008954615570591F42617370724F0DF
:101AA000892D4B01C22FD82F9E01281939092F5F8C
:101AB0003F4F068CF78DE02DA601B401DACF0284EA
:101AC000F385E02D0995D501ED91FC910488F58908
:101AD000E02D83019401A601BE01C5010995D50140
:101AE000ED91FC910688F789E02DC501DF91CF913A
:101AF0001F910F91FF90EF90DF90CF90BF90AF902C
:101B00009F908F907F906F900994EF92FF920F9328
:101B10001F93DC011A960D911C911B9718962D911D
:101B20003C911997ED91FC9100A0F1A1E02D7B0172
:101B300050E040E070E060E009951F910F91FF9048
:101B4000EF9008954F925F926F927F928F929F9243
:101B5000AF92BF92CF92DF92EF92FF920F931F93BB
:101B6000CF93DF936C012B015A0139014801DC014D
:101B7000ED91FC910284F385E02D0995E201640C5E
:101B8000751CD601ED91FC91C615D7055CF4008853
:101B9000F189E02D87019401A501BE01C6010995D7
:101BA0002196EFCF0688F789E02DC601DF91CF910E
:101BB0001F910F91FF90EF90DF90CF90BF90AF906B
:101BC0009F908F907F906F905F904F9009948F922D
:101BD0009F92AF92BF92CF92DF92EF92FF920F93BC
:101BE0001F93CF93DF93EC015B014A016901E88108
:101BF000F9810284F385E02D099595012C0D3D1D99
:101C000021503109E881F9810488F589E02D7801B6
:101C10008401A401B501CE010995E881F981068806
:101C2000F789E02DCE01DF91CF911F910F91FF90A9
:101C3000EF90DF90CF90BF90AF909F908F900994DE
:101C40008F929F92AF92BF92CF92DF92EF92FF92CC
:101C50000F931F93CF93DF93EC015B014A0169015E
:101C60007801E881F9810284F385E02D0995C80C9B
:101C7000D91C860101501109E881F9810488F58990
:101C8000E02D9501A401B501CE010995E881F98106
:101C90000688F789E02DCE01DF91CF911F910F913A
:101CA000FF90EF90DF90CF90BF90AF909F908F907C
:101CB00009940895EF92FF920F931F93DC01ED9129
:101CC000FC9100A0F1A1E02D09951F910F91FF90CB
:101CD000EF9008950F931F93DC01ED91FC91068C1A
:101CE000F78DE02D09951F910F9108950F931F9384
:101CF000DC01ED91FC91048CF58DE02D09951F918F
:101D00000F910895DC01ED91FC910084F185E02DA7
:101D100009942F923F924F925F926F927F928F928F
:101D20009F92AF92BF92CF92DF92EF92FF920F936A
:101D30001F93CF93DF9300D000D000D0CDB7DEB794
:101D40003C016A013E832D83FC82EB825801A41A78
:101D5000B50AB7FE03C0B194A194B1088D809E80EE
:101D6000861A970A97FE03C09194819491088A1469
:101D70009B045CF0902F812F0D811E819D838E83AB
:101D80009C2D8D2D6B01692F782F0C151D055CF096
:101D90009D818E817E836D83692F782F902F812F77
:101DA0008601C92ED82E1601201A310A2B012D8149
:101DB0003E81421A530A57FE03C051944194510880
:101DC000710137FE03C03FEFE31AF30AF594E7947D
:101DD0008D819E81861797075CF5A1E0B0E0BA83FC
:101DE000A983C016D1064CF1D301ED91FC91048476
:101DF000F585E02D2B813C81A8016D817E818A14BF
:101E00009B041CF04D815E81B801C3010995E41863
:101E1000F508F7FE0AC02D813E8189819A81280F3D
:101E2000391F3E832D83E20CF31C0F5F1F4FD9CF68
:101E30002FEF3FEF3A832983D4CF26960FB6F8943D
:101E4000DEBF0FBECDBFDF91CF911F910F91FF90ED
:101E5000EF90DF90CF90BF90AF909F908F907F904A
:101E60006F905F904F903F902F9008952091F902CE
:101E7000260F3327331F21323105ECF420918403E0
:101E8000FC0190E080E0243069F082E00895A091A8
:101E9000F9022191AC0149525D4FA40FB52FB11D3C
:101EA0002C930196861798F38091F902680F60933E
:101EB000F90280E0089581E008951092840381E0A2
:101EC0008093830310925E0361E082E10E948A05A1
:101ED00061E083E10E948A05E9EBF0E080818E7F7A
:101EE000808380818D7F808388E48093B80085E43F
:101EF0008093BC000895CF93DF9391E09093D60236
:101F00008823B9F0C091B800D091BA008091BC008C
:101F10008A7B8093BC0060E082E10E948A0560E0D9
:101F200083E10E948A050E945D0FD093BA00C0939E
:101F3000B800DF91CF910895CF92DF92EF92FF9298
:101F40000F931F93CF93DF93D091AD0381E0D132F4
:101F500008F09CC0C091AC030E9407066B017C0195
:101F60008091840381116CC082E08093840381E0BE
:101F7000809383038FEF8093820310928103D09329
:101F80008003ACE8B3E0E0E6F3E080E0D8138DC076
:101F900010925F0380915F03CC0FC82BC0935F0347
:101FA00080915E03813009F084C010925E030E942C
:101FB00007066B017C0180915F038093BB008091D9
:101FC000860390918703A0918803B0918903892BA0
:101FD0008A2B8B2BA1F00E9407060091860310919B
:101FE000870320918803309189036C197D098E093C
:101FF0009F09061717072807390708F442C0809180
:10200000BC0083FDD8CF85EC8093BC000E940706FE
:102010006B017C0180918403823009F44CC0809173
:1020200082038F3F09F469C080918203803209F4F2
:1020300066C080918203803309F463C084E026C0C7
:102040008091860390918703A0918803B0918903C2
:10205000892B8A2B8B2B09F483CF0E9407060091D2
:1020600086031091870320918803309189036C19AE
:102070007D098E099F09061717072807390708F0F9
:102080006FCF809185030E947B0F85E010928B03B8
:102090001092AD0310928A03DF91CF911F910F919F
:1020A000FF90EF90DF90CF9008959D9191938F5F77
:1020B0006DCF85EEA9CF8091860390918703A09183
:1020C0008803B0918903892B8A2B8B2B09F4A2CF2B
:1020D0000E940706009186031091870320918803D0
:1020E000309189036C197D098E099F09061717071E
:1020F0002807390708F08ECFC4CF80E0C7CF82E031
:10210000C5CF83E0C3CF08950895E091D5028091B3
:10211000D402E81730F4F0E0EC54FD4F808190E0F9
:1021200008958FEF9FEF08959091D5028091D4028A
:102130002FEF3FEF981748F4E92FF0E0EC54FD4FF4
:10214000208130E09F5F9093D502C901089580916E
:10215000D4029091D502891B990B0895CF92DF92FA
:10216000EF92FF920F931F93CF93DF937C01CB01EC
:102170008A0120918A03222389F0EB016B01C40EAE
:10218000D51ECC15DD0569F06991D701ED91FC9163
:102190000190F081E02DC7010995F3CF642F0E94D3
:1021A000360FC801DF91CF911F910F91FF90EF90F3
:1021B000DF90CF900895CF93DF931F92CDB7DEB716
:1021C000698320918A032223F9F02091AD03203204
:1021D00058F021E030E0FC013383228390E080E07E
:1021E0000F90DF91CF91089580918B03E82FF0E05D
:1021F000E457FC4F998190838F5F80938B0380938A
:10220000AD0381E090E0ECCF61E0CE0101960E9449
:10221000360FF7CFFC018081282F30E0F901EE0F57
:10222000FF1FE20FF31FE350FB4F90819F7B9083D2
:102230002CE0622F0E942D21829FC001112430E0EA
:1022400020E0AC01420F531FFA01EE0FFF1FE40F15
:10225000F51FE350FB4F408146FD11C02F5F3F4FFC
:102260002C30310571F71092810082E0809381005B
:1022700081E0809381008093800010926F00089528
:10228000DF92EF92FF920F931F93CF93DF93EC01B6
:10229000D62E7A01890188818C3008F067C061E010
:1022A0008D2D0E94D6058881282F30E0F901EE0F90
:1022B000FF1FE20FF31FE350FB4F9D2D9F736081C3
:1022C000607C692B608320E232E02E193F0937FFE2
:1022D00002C02D5F3F4F359527953595279529836A
:1022E00020E639E0201B310B37FF02C02D5F3F4F46
:1022F00035952795359527952A832CE0622F0E94E6
:102300002D21829FB001112430E020E0AB01420F6B
:10231000531FFA01EE0FFF1FE40FF51FE350FB4FB1
:10232000908196FD16C02F5F3F4F2C30310571F71D
:1023300081110FC01092800082E080938100109282
:10234000850010928400B19A80916F008260809322
:102350006F00E8818E2F90E0FC01EE0FFF1FE80F69
:10236000F91FE350FB4F8081806480838881DF9177
:10237000CF911F910F91FF90EF90DF9008958630DD
:10238000B8F421E030E0A90102C0440F551F8A953E
:10239000E2F7CA012091440330914503672B49F4C9
:1023A00080959095822393239093450380934403D3
:1023B0000895822B932BF8CF8330B0F521E0280FBE
:1023C000220F220F220F722F253108F074E12850BE
:1023D00030E090E041E02717E8F45EEF520F523111
:1023E000A8F4F901EA5BFC4F5081523078F4942B49
:1023F000F901EE0FFF1FE857FD4FA1E0B0E0542FA9
:10240000562311F4B0E0A0E0B183A083440F2F5F06
:102410003F4FE1CF811109C0F8948BB168276C7FE1
:10242000962398279BB9789408958130D1F4692335
:10243000F89425B1892F8F7380958223262F2F73CF
:10244000822B85B928B1892F8295869586958370D0
:10245000809582236295669566956370862B88B910
:10246000E2CF9F70F89428B1892F880F880F80954C
:1024700082239623990F990F982B98B9D4CF8F92D6
:102480009F92AF92BF92CF92DF92EF92FF920F9303
:102490001F93CF93DF93EB01843108F097C0082F8F
:1024A00010E0F801EA5BFC4F9081933009F49BC087
:1024B000943009F08BC082508C3008F080C06801E5
:1024C00082E0C81AD1087601EE0CFF1C4B01603285
:1024D00082E078070CF03EC0F701EC0DFD1DEE5DCB
:1024E000FA4F8181A8E88A2E912C881A910887FDDD
:1024F0009394880C991C880C991C092C000CAA0830
:10250000BB08828128E532E0281B310987FD33951D
:10251000220F331F220F331F032E000C440B550BC9
:10252000281939094A095B09DB01653B710514F07B
:10253000A4EBB0E0B7FF02C0B0E0A0E00E94F4203E
:1025400024EB30E040E050E00E94CA20820E931E4F
:10255000A41EB51EF701EC0DFD1DEE5DFA4F2081A6
:102560002C3068F5318188E890E0831B910937FDB4
:102570009395880F991F880F991F881699067CF0EC
:10258000328188E592E0831B910937FD9395880F8E
:10259000991F880F991F881699060CF4C401029799
:1025A000880F991F4FB7F89430E0F901EE0FFF1F25
:1025B000E20FF31FE350FB4F928381834FBF000F65
:1025C000111FF801E857FD4FD183C083DF91CF91F0
:1025D0001F910F91FF90EF90DF90CF90BF90AF9041
:1025E0009F908F9008957B01D82F833041F08BEF1F
:1025F000800F823020F087EF800F833058F461E045
:102600008D2F0E94D605E114F10461F460E08D2F56
:102610000E948A05000F111FF801E857FD4FF18253
:10262000E082D4CF8FEFE816F10411F461E0EFCF30
:10263000F801EC5FF94FE491E33021F148F4E13027
:10264000B9F0E230D1F080E8E816F1047CF7DECF93
:10265000E73011F1E83041F1E430A9F780918000D2
:10266000806280938000F0928B00E0928A00D2CF4B
:1026700084B5806884BDE7BCCDCF84B5806284BD5D
:10268000E8BCC8CF80918000806880938000F09281
:102690008900E0928800BECF8091B000806880936E
:1026A000B000E092B300B6CF8091B000806280931A
:1026B000B000E092B400AECF089590E080E00895BD
:1026C000FC0101900020E9F73197BF01681B790BED
:1026D000AC0181E70C94B8038F929F92AF92BF92A6
:1026E000EF92FF920F931F93CF93DF93CDB7DEB797
:1026F000A1970FB6F894DEBF0FBECDBF7C01FA01E3
:10270000CB0119A2223008F42AE08E010F5D1F4F81
:10271000822E912CB12CA12CBF01A50194010E9405
:10272000FC20F901CA016A3074F5605DD8016E932E
:102730008D01232B242B252B79F790E080E0109737
:1027400089F0FD0101900020E9F73197AF014A1BA4
:102750005B0BD701ED91FC910280F381E02DB80174
:10276000C7010995A1960FB6F894DEBF0FBECDBF85
:10277000DF91CF911F910F91FF90EF90BF90AF909D
:102780009F908F900895695CD1CFCF93DF93EC0138
:1027900089E391E0998388838CA19DA10E94032203
:1027A00089A19AA197FD05C060E0DF91CF910C94BB
:1027B000D605DF91CF910895CF93DF93EC010E946E
:1027C000C513CE01DF91CF910C9403220E948C227D
:1027D0008F929F92AF92BF92CF92DF92EF92FF9231
:1027E0000F931F93CF93DF937C01EB016C0182E089
:1027F000C80ED11C4701E5E08E0E911C10E000E0F0
:10280000F60141916F0150E070E060E02AE0CE01F6
:102810000E946C135C01E881F9810190F081E02D48
:102820006EE2CE0109958A0D9B1D080F191FC81471
:10283000D90431F7F701458150E070E060E02AE00B
:10284000CE010E946C13800F911FDF91CF911F91D9
:102850000F91FF90EF90DF90CF90BF90AF909F903F
:102860008F900895BF92CF92DF92EF92FF920F93D5
:102870001F93CF93DF93C82F8B01C82ED12CC60195
:102880008A5B9C4F7C01DC018C91863061F48091E5
:10289000B202882341F06630710529F01092B2022D
:1028A0008FEF80930001DEEFDC0FDC30E0F40430CA
:1028B0001105C9F0960122503109C901880F991FED
:1028C000820F931F8E5D9A4FDC01EC912E2F30E02A
:1028D000F901EE0FFF1FE20FF31FE350FB4F2081C2
:1028E00026FD0E940A1172EFB72EBC0EB5E0BB1593
:1028F00050F061E070E00230110511F070E060E02E
:102900008B2D0E94BF11D231A8F4EC2FE695E695ED
:10291000E695F0E0EF54FC4F20813C2F377081E0CA
:1029200090E001C0880F3A95EAF70115110509F505
:10293000822B8083F601EE0FFF1FE857FD4F1182B7
:1029400010820230110529F1BCF40115110591F135
:102950000130110509F444C08FE891E0DF91CF9177
:102960001F910F91FF90EF90DF90CF90BF900C944C
:10297000601380958223DDCF0430110509F456C021
:10298000DCF10630110541F7C251C230F8F486E09F
:102990004AC0E5E0EB15D0F0D23140F460E08C2F76
:1029A0000E94D60560E08C2F0E948A0582E0D70144
:1029B0008C930CC0D23150F460E08C2F0E94D6056D
:1029C00060E08C2F0E948A05F7011082DF91CF9181
:1029D0001F910F91FF90EF90DF90CF90BF900895DF
:1029E000D231A0F760E08C2F0E948A0561E08C2F25
:1029F0000E94D60581E0DBCFC33041F08BEF8C0F16
:102A0000823020F087EF8C0F833000F761E08C2F4D
:102A10000E94D60561E08C2F0E94D60560E08C2FC5
:102A20000E948A0583E0F7018083D0CFDC3070F606
:102A300084E0D7018C93960122503109C901880F97
:102A4000991F820F931F8E5D9A4FDC01EC912E2F00
:102A500030E0F901EE0FFF1FE20FF31FE350FB4FD1
:102A6000208126FDB3CF20E639E040E252E0B601F6
:102A7000DF91CF911F910F91FF90EF90DF90CF905A
:102A8000BF900C944011CF938091B202882329F01B
:102A90001092B2028FEF80930001109225031092E2
:102AA000B1031092AE03109226031092B20310925B
:102AB000AF03109227031092B3031092B003C0E04B
:102AC00082EF8C0F62E070E0863010F061E070E021
:102AD0008C2F0E943214CF5FC43191F710924503BE
:102AE00010924403CF9108954F925F926F927F921C
:102AF0008F929F92AF92BF92DF92EF92FF920F93CD
:102B00001F93CF93DF93D82E8B01D42F6F3F76077F
:102B100009F48FC081E080938A03D092AC031092B5
:102B20008B031092AD0381EF94E00E94DB100E94B2
:102B30009C0F8091B0029091B1028230910538F0E3
:102B4000880F991F880F991F05970197F1F70E9429
:102B500007064B015C018091840381116CC0CD2F6D
:102B6000D13208F0C0E281E0809384038093830334
:102B70009FEF90938203109281039C0F90938003A8
:102B800080935F0390915F038D2D880F892B809335
:102B90005F0380915E03813009F093C010925E0361
:102BA0000E9407064B015C0180915F038093BB008C
:102BB0008091860390918703A0918803B091890347
:102BC000892B8A2B8B2BA1F00E940706409086034D
:102BD0005090870360908803709089036819790981
:102BE0008A099B09461657066806790608F444C008
:102BF0008091BC0083FDD8CF85EC8093BC000E94FF
:102C000007064B015C0180918403813009F45BC0AD
:102C1000809181038C1710F4C0918103A0E6B3E08A
:102C2000E4EBF2E080E08C1761F19D9191938F5F6E
:102C3000FACF00E08CCF8091860390918703A0911A
:102C40008803B0918903892B8A2B8B2B09F483CFBE
:102C50000E94070640908603509087036090880387
:102C600070908903681979098A099B0946165706E5
:102C70006806790608F06FCF809185030E947B0F6C
:102C8000C0E01092D502C093D402ED2EF12C8C2F0F
:102C900090E0E816F906C9F5D09264020093650247
:102CA00004E612E0C801845692408E159F05A4F5F3
:102CB00081EF94E00E949410F80182830F5F1F4F10
:102CC000F1CF85EE9ACF8091860390918703A091F2
:102CD0008803B0918903892B8A2B8B2B09F493CF1E
:102CE0000E940706409086035090870360908803F7
:102CF00070908903681979098A099B094616570655
:102D00006806790608F07FCFB7CF8E159F05D4F4FB
:102D100080EA91E00E94601362E06D0F44E652E0A9
:102D200087E7DF91CF911F910F91FF90EF90DF9098
:102D3000BF90AF909F908F907F906F905F904F90DB
:102D40000C94B80388EC91E0E5CFEF92FF920F93DB
:102D50001F93CF93DF93EC017B0189859A850E94B5
:102D600003229E858B85981701F184E090E08E9D6B
:102D700080018F9D100D9E9D100D11241D830C83CD
:102D8000C8010E9467219A878987009789F0A80166
:102D900070E060E00E949122FB82EA82DF91CF9195
:102DA0001F910F91FF90EF90089583E090E0DFCFA7
:102DB0001D821C821B821A82F1CFAF92BF92CF92EA
:102DC000DF92EF92FF920F931F93CF93DF93895679
:102DD000823108F033C0EA01162FE82FF0E0ED5001
:102DE000F94E0C944D212D191E1796181E17EC182C
:102DF0001E17701812181E178319131A3E19AB19D3
:102E000005171E17D8171E175918998195FF0EC060
:102E10008FEE91E0DF91CF911F910F91FF90EF9096
:102E2000DF90CF90BF90AF900C9460138881987121
:102E3000983009F43EC068F49923C9F0DF91CF912E
:102E40001F910F91FF90EF90DF90CF90BF90AF90C8
:102E50000895903109F44CC0983181F790910001A8
:102E600019160CF469C08FEF80930001E7CF91E051
:102E700090938A038093AC0310928B031092AD035E
:102E800002E0011778F4FE01E00FF11D6181679502
:102E9000662767958081680F81EF94E00E94DB10C0
:102EA0000E5FEFCF0E949C0F83E191E00197F1F755
:102EB000C5CF6B816795662767954A81640F163089
:102EC00099F44D814795442747959C81490F70E0BF
:102ED000DF91CF911F910F91FF90EF90DF90CF90F6
:102EE000BF90AF900C947415462F6FEF7FEFF0CF2B
:102EF0002091000127301CF08BE192E08BCF2F5FF7
:102F000020930001022E000C330BF901EE0FFF1F7E
:102F1000E20FF31FE45DFC4F80838B818795882748
:102F200087959A81890F81838D81879588278795D9
:102F30009C81890F828382CF30E0492F092E000CBB
:102F4000550B632F70E04617570714F5622F70E09A
:102F5000461757074CF12830B8F4FB013196DF01D2
:102F6000AA0FBB1FAE0FBF1FA45DBC4F8C91FB010E
:102F7000EE0FFF1FE60FF71FE45DFC4F80838C917F
:102F8000818312968C9182832F5FE0CF232FDECF37
:102F9000FB01EE0FFF1FE60FF71FE45DFC4F808380
:102FA0008111F4CF3F5FCDCF91509093000146CF78
:102FB000898160E8869F900111248881820F932F78
:102FC000911D009721F09093B1028093B0028091FF
:102FD000B202811133CFC0E08EEE8C0F823028F424
:102FE00066E070E08C2F0E943214CF5FC431A1F7ED
:102FF00081E08093B2021092D5021092D402109216
:103000008B031092AD030E945D0F83E890E19093D3
:10301000F8028093F70284E890E19093FC02809399
:10302000FB020CCF653008F409CFF8808EEF8F0DCE
:103030008C3008F003CFE980CA80DB80BC800F2D84
:1030400010E0C8010297EC01CC0FDD1FC80FD91F9B
:10305000CE5DDA4FE8818E2F90E0FC01EE0FFF1F6E
:10306000E80FF91FE350FB4F808186FF03C0CE01BC
:103070000E940A1180E8B89E900111242D0D311D87
:1030800090E8C99EA00111244E0D511DB801CE013A
:103090000E94401164E070E08F2DDF91CF911F916D
:1030A0000F91FF90EF90DF90CF90BF90AF900C9476
:1030B0003214623008F4C2CE8981A0E88A9F900160
:1030C00011248881820F932F911D8A3091052CF055
:1030D0009093020180930101B1CE8AE090E0F8CF95
:1030E000623008F4ABCE698170E0123091F08A81D1
:1030F000B0E88B9FC0011124682B792B133049F065
:103100008B8190E090E4899F902D88271124682B73
:10311000792B8881DF91CF911F910F91FF90EF90D4
:10312000DF90CF90BF90AF900C943F1280EF0E9441
:103130004D048CE60E944D04CEEF84EF8C0F863058
:10314000F0F482E00E944D048AE00E944D048DEF6D
:103150008C0F8230B0F089EF8C0F8330C0F411C037
:10316000C23158F780E00E944D0481E00E944D0476
:1031700081E00E944D0481E00E944D04DECFC13009
:1031800031F783E00E944D0488E00E944D04CC306A
:1031900030F484E00E944D048EE00E944D0480EFE4
:1031A0008C0F823030F486E00E944D0481E00E9452
:1031B0004D048FE70E944D04CF5FC23189F687EF3F
:1031C000DF91CF911F910F91FF90EF90DF90CF9003
:1031D000BF90AF900C944D04662309F42FCEC881A4
:1031E00080EF0E944D048EE60E944D048C2F0E94B9
:1031F0004D04C43120F7D0E0FE01EA5BFC4F808132
:103200000E944D04CC0FDD1F8E0108571D4FF801A1
:1032100080818F770E944D04D8018D919C919C01F3
:103220002078232B39F0880F892F881F990B8F77EF
:103230000E944D04C857DD4F888199819C01222747
:10324000307C232B09F4BBCF990F880B990F982F53
:10325000881F8F770E944D04B2CF80EF0E944D04EB
:103260008AE60E944D04C2EF8FE7C63008F48C2F27
:103270000E944D04CF5FC630B9F7A1CF088110E09E
:10328000F980C0918602D0918702209771F08985DC
:103290009A850E9403228E819F8197FD03C060E082
:1032A0000E94D605CE010E94032286E190E00E9492
:1032B0006721EC01198218861A8619861F86188ADA
:1032C000198A1A8A81E08E878B871C8692E09D87F7
:1032D00088836F2D70E0CE010E94A516B801CE0143
:1032E0000E94C606D0938702C0938602CE01DF916A
:1032F000CF911F910F91FF90EF90DF90CF90BF90F3
:10330000AF900C94D20700918602109187026881D9
:1033100070E0F801828193816817790778F48981D8
:103320002A8130E050E040E0542F432F322F2227F3
:10333000482B8B81282BC8010E945F06C801DF91B2
:10334000CF911F910F91FF90EF90DF90CF90BF90A2
:10335000AF900C94FD06D880E9800E2D10E0FA8025
:10336000AF2CB12C8091840290918502009739F0A6
:10337000DC01ED91FC9102A4F3A5E02D09958DE30C
:1033800090E00E946721EC011B821A828DE091E09F
:10339000998388831D830C83BF82AE821987088737
:1033A000BB86AA861E8A1D861C861F861E8681E015
:1033B0008D8B8C8B2FEF3FEF3B8B2A8B398B288BA0
:1033C0008F8B188E1A8E198E8E01055E1F4F1C8EE4
:1033D0001BA21DA21CA21AA61BA61CA61DA689A77D
:1033E0008EA31FA292E098A78B8FEF9CB0011124AF
:1033F000C8010E94A5166D2D70E0C8010E94C60686
:1034000089E391E09983888386E089ABEAAAFBAAE5
:103410001CAA1DAA1FAA1EAA1CAED0938502C09387
:103420008402C80164CF80918402909185022A8130
:1034300030E0322F22272227387F4B81B8E04B9F84
:10344000A0011124407E5770242B352B4C8150E075
:1034500063E0559547956A95E1F7242B352B498113
:1034600050E0688170E0DC01ED91FC910084F18511
:10347000E02D099580918402909185024B965FCF53
:1034800085ED8093BC008091860390918703A09185
:103490008803B09189030796A11DB11D23E0B6955D
:1034A000A795979587952A95D1F72091BC0024FD83
:1034B00003C01092840308954091860350918703BE
:1034C0006091880370918903452B462B472B69F344
:1034D0000097A105B10541F025E32A95F1F7000019
:1034E0000197A109B109E1CF809185030C947B0F6D
:1034F0001F920F920FB60F9211242F933F934F9369
:103500005F936F937F938F939F93AF93BF93EF934B
:10351000FF9384EB93E00E94FB04FF91EF91BF9136
:10352000AF919F918F917F916F915F914F913F915B
:103530002F910F900FBE0F901F9018951F920F9212
:103540000FB60F9211242F938F939F93EF93FF93B6
:10355000E091C403F091C5038081E091CA03F0912A
:10356000CB0382FD1BC090818091CD038F5F8F7351
:103570002091CE03821741F0E091CD03F0E0EC54AE
:10358000FC4F958F8093CD03FF91EF919F918F9189
:103590002F910F900FBE0F901F9018958081F4CF40
:1035A0001F920F920FB60F9211242F933F938F9378
:1035B0009F93AF93BF938091280390912903A0918B
:1035C0002A03B0912B033091200323E0230F2D37E2
:1035D00058F50196A11DB11D209320038093280367
:1035E00090932903A0932A03B0932B038091210386
:1035F00090912203A0912303B09124030196A11D71
:10360000B11D8093210390932203A0932303B093D1
:103610002403BF91AF919F918F913F912F910F9074
:103620000FBE0F901F90189526E8230F0296A11D3C
:10363000B11DD2CF1F920F920FB60F9211240F908F
:103640000FBE0F901F9018951F920F920FB60F92FA
:1036500011242F933F934F935F936F937F938F9397
:103660009F93AF93BF93EF93FF938091B900887FAF
:10367000803609F44AC0F0F5883209F4A7C018F57D
:10368000803109F49BC0B8F4882309F4F9C088306C
:1036900009F494C0FF91EF91BF91AF919F918F91E9
:1036A0007F916F915F914F913F912F910F900FBE3E
:1036B0000F901F901895883109F488C0803251F717
:1036C0008093820314C0803409F49DC040F4803399
:1036D000B9F38833F9F68093820385ECB0C0803566
:1036E00009F485C0883509F496C0883499F60E949B
:1036F000401AD0CF883909F48CC038F5883729F0C2
:1037000050F4883611F0803729F683E080938403E3
:1037100010921D0357C0883809F47BC0803919F016
:10372000803809F0B7CF80911D03803208F071C056
:10373000E0911D0381E08E0F80931D038091BB00FB
:10374000F0E0E350FD4F80833DC0803B39F0E0F472
:10375000803A09F479C0883A09F09CCF84E08093DC
:1037600084031092FA021092F902E091F702F091AC
:10377000F80209958091F90281110FC081E08093D0
:10378000F9021092D70209C0803C09F4A6CF883C08
:1037900009F4A3CF883B09F07DCFE091FA0281E0E4
:1037A0008E0F8093FA02F0E0E952FD4F8081809302
:1037B000BB009091FA028091F90229C080915F03C9
:1037C0008093BB0085EC8093BC0064CF9091810313
:1037D00080918003981758F5E091810381E08E0F66
:1037E00080938103F0E0E05AFC4F8081E9CFE091C3
:1037F000810381E08E0F809381038091BB00F0E014
:10380000E05AFC4F80839091810380918003981748
:10381000C8F285E8D8CFE091810381E08E0F8093D4
:1038200081038091BB00F0E0E05AFC4F80838091DF
:10383000830381115CCF81E080935E0384EA8093EF
:10384000BC001092840326CF85EC8093BC001092BC
:10385000840380911D03803230F4E0911D03F0E079
:10386000E350FD4F108260911D0370E0E091FB0278
:10387000F091FC028DEF92E0099510921D030ACFA2
:103880001092820334CF1F920F920FB60F92112421
:103890002F933F934F935F936F937F938F939F9358
:1038A000AF93BF93CF93DF93EF93FF938091B302D6
:1038B000C0912105D0E087FF24C0109285001092AE
:1038C00084008091B3028F5F8093B3028091B30232
:1038D000082E000C990B8C179D0724F48091B302DD
:1038E0008C30C4F1809184009091850004968034DE
:1038F0009C4908F47AC080918400909185000496D8
:1039000076C08091B302082E000C990B8C179D078E
:10391000C4F6E091B3028E2FEE0F990BFC01EE0F6F
:10392000FF1FE80FF91FE350FB4F808186FFC9CFCF
:10393000E091B3028E2FEE0F990BFC01EE0FFF1FEB
:10394000E80FF91FE350FB4F808160E08F730E9406
:103950008A05B7CF2091840030918500E091B302B1
:103960008E2FEE0F990BFC01EE0FFF1FE80FF91FD2
:10397000E350FB4F81819281820F931F90938900C6
:1039800080938800E091B3028E2FEE0F990BFC011B
:10399000EE0FFF1FE80FF91FE350FB4F808186FFFA
:1039A00011C0E091B3028E2FEE0F990BFC01EE0FC8
:1039B000FF1FE80FF91FE350FB4F808161E08F7319
:1039C0000E948A05FF91EF91DF91CF91BF91AF9156
:1039D0009F918F917F916F915F914F913F912F9127
:1039E0000F900FBE0F901F90189580E49CE9909364
:1039F0008900809388008FEF8093B302E3CFCF924A
:103A0000DF92EF92FF921092B7031092B60368EE26
:103A1000C62E63E0D62EE12CF12CC092B803D092D2
:103A2000B903E092BA03F092BB0389E691E0909368
:103A3000B5038093B40385EC90E09093C103809329
:103A4000C00384EC90E09093C3038093C20380ECA6
:103A500090E09093C5038093C40381EC90E0909331
:103A6000C7038093C60382EC90E09093C9038093D0
:103A7000C80386EC90E09093CB038093CA03109226
:103A8000CD031092CE031092CF031092D0038BE798
:103A900091E0909352048093510410925304109239
:103AA000540410925504109256041092F00410928F
:103AB000590410925B0410925A040E945A04109206
:103AC000F4041092F304C092F504D092F604E0924C
:103AD000F704F092F80481E891E09093F204809367
:103AE000F104E2E2F5E026E435E04FEF68EB7BE03D
:103AF000809121058C30D0F491E0980F90932105AE
:103B0000808390E0DC01AA0FBB1FA80FB91FA35050
:103B1000BB4F12967C936E93119733962E173F07E7
:103B200039F7FF90EF90DF90CF9008954083F5CF65
:103B3000789484B5826084BD84B5816084BD85B588
:103B4000826085BD85B5816085BD80916E00816094
:103B500080936E001092810080918100826080933A
:103B6000810080918100816080938100809180003C
:103B70008160809380008091B10084608093B10067
:103B80008091B00081608093B00080917A00846061
:103B900080937A0080917A00826080937A0080918D
:103BA0007A00816080937A0080917A0080688093A7
:103BB0007A001092C10083E18093590480915A04E5
:103BC00090915B040E940322C0915904D0E0CE0181
:103BD00001960E94672190935B0480935A04FC0134
:103BE000EC0FFD1F108212E0DC011C9325E0119602
:103BF0002C93AE014250510961E572E002960E9499
:103C000098228FE392E19093DF048093DE048CEDA1
:103C100091E19093E1048093E0048FEB91E1909324
:103C2000E3048093E20485E794E09093E5048093B5
:103C3000E40482E394E19093E7048093E6048DED3D
:103C400096E19093EF048093EE0483E495E19093E2
:103C5000EB048093EA04E091C403F091C503108360
:103C6000E091C403F091C5031082E091C003F0918C
:103C7000C1031082E091C203F091C30380E180830D
:103C80001092CC03E091C803F091C90386E08083D1
:103C9000E091C603F091C703808180618083E09149
:103CA000C603F091C703808188608083E091C603DA
:103CB000F091C703808180688083E091C603F09112
:103CC000C70380818F7D808384EB93E090935804B9
:103CD000809357048091F00481114FC061E08DE022
:103CE0000E94D60562ED70E080E090E00E942C0614
:103CF00061E08DE00E948A0568E270E080E090E07B
:103D00000E942C0660E08DE00E948A0562ED70E062
:103D100080E090E00E942C0661E08DE00E948A0520
:103D200068E270E080E090E00E942C0660E08DE0A8
:103D30000E948A056AEF70E080E090E00E942C0605
:103D4000C5E062ED70E080E090E00E942C0661E04A
:103D50008DE00E948A0568E270E080E090E00E94B9
:103D60002C0660E08DE00E948A05C15051F76DE796
:103D700070E080E090E00E942C060E94290480916F
:103D8000590481110E94E3030E94431550E0652EFF
:103D900050E0752E11E062E0962E80912503882375
:103DA00041F069B18091B10368236C7F80E00E948B
:103DB000370380912603882371F063B186B16F7356
:103DC000B0E48B9FC0011124682B8091B20368235B
:103DD00081E00E94370380912703882351F066B168
:103DE0008091B3038F7066956695682382E00E9488
:103DF00037038091570490915804EC01E881F981D0
:103E00000084F185E02D0995892B09F428C1809162
:103E1000570490915804DC01ED91FC910284F385E4
:103E2000E02D09958F3F980721F3382F20919F04AB
:103E3000222309F468C0873F09F056C010929F04FE
:103E400080915F04813751F0893709F03FC080913C
:103E50005904882371F20E94E303CBCFE091EC0474
:103E6000F091ED04309729F22091A0043091A10443
:103E7000C901019797FDC90195958795782F47E569
:103E800054E0DA0130E04E5F5F4F1196371778F457
:103E9000EA016F8117966C9317972885279522273B
:103EA0002795260F17962C9317973F5FECCF9927EE
:103EB000DC01A95ABB4F17968C911797882311F0F4
:103EC00018961C928FE594E0099593CFE091EE044B
:103ED000F091EF04309709F48CCF6091A004615009
:103EE00040E654E0099585CF2091A0043091A104CB
:103EF000F901E95AFB4F80872F5F3F4F3093A104B0
:103F00002093A00476CF20915C04222309F466C09C
:103F100087FD64C09FEF920F90935C04E92FF0E05F
:103F2000E95AFB4F8087911164CF80915D0488230B
:103F300009F45FCF803D09F446C060F4803921F177
:103F4000E091E204F091E304803C09F440C0109257
:103F50005D044FCF843F29F1853F81F1803EB9F761
:103F6000E091DE04F091DF04309789F360915F0403
:103F7000D0E86D9FC001112460916004680F792F13
:103F8000711D80915E0418C0E091E004F091E1049D
:103F90003097E9F260915F0420E8629FC00111242C
:103FA000EBCFE091E604F091E70460915F0470E0EC
:103FB00080916004309759F20995C9CFE091E804E7
:103FC000F091E904F2CFE091E404F091E504309738
:103FD00009F4BDCF60915F0470E0D3CF303FB8F4F7
:103FE000282F207F30E08F7080935E04203F3105C2
:103FF00061F1BCF4203C310529F164F4203931052C
:1040000009F0F7CE90925C0420935D04F2CE9C01FF
:104010003327ECCF203D3105A9F0203E310591F347
:10402000E8CE293F3105C1F034F4C901845F91091C
:10403000029740F3DECE2F3F310509F0DACE0E9421
:104040005A04D7CE10935C04DFCF10939F041092D4
:10405000A1041092A004CDCE0E942904CACE8FB72D
:10406000F894C0902803D0902903E0902A03F090A0
:104070002B038FBF80915A0390915B03A0915C0347
:10408000B0915D034091010150910201052E000C99
:10409000660B770BC81AD90AEA0AFB0A4C155D05AC
:1040A0006E057F0508F06AC0840F951FA61FB71F15
:1040B00080935A0390935B03A0935C03B0935D03DA
:1040C00036E4C32E33E0D32E02EF063098F5D60146
:1040D0008C91823079F58091440390914503002EB4
:1040E00002C0959587950A94E2F780FF23C0802F40
:1040F000806480937C0080917A00806480937A0051
:1041000080917A0086FDFCCF80917800A0907900A4
:10411000BA2CA82E8091570490915804EC01E881A4
:10412000F9810190F081E02D602F606E0995C50145
:104130000E9485030F5FDFEFCD1ADD0A063029F6F6
:104140008091000187FD1AC0F12C8F2D90E0209105
:104150000001022E000C330B281739077CF0FC01FC
:10416000EE0FFF1FE80FF91FE45DFC4F618170E067
:10417000428180810E947415F394E7CF6114710429
:1041800009F40BCE0E94E704882309F406CE0E94AE
:10419000000003CE052E97FB1EF400940E94E12040
:1041A00057FD07D00E94FC2007FC03D04EF40C946E
:1041B000E12050954095309521953F4F4F4F5F4FEF
:1041C000089590958095709561957F4F8F4F9F4F83
:1041D00008950E941E21A59F900DB49F900DA49F4D
:1041E000800D911D11240895B7FF0C94E9200E94C1
:1041F000E920821B930B0895A1E21A2EAA1BBB1B78
:10420000FD010DC0AA1FBB1FEE1FFF1FA217B307A2
:10421000E407F50720F0A21BB30BE40BF50B661FB8
:10422000771F881F991F1A9469F76095709580957C
:1042300090959B01AC01BD01CF010895A29FB001F3
:10424000B39FC001A39F700D811D1124911DB29FCA
:10425000700D811D1124911D0895991B79E004C0F2
:10426000991F961708F0961B881F7A95C9F78095B5
:10427000089597FB072E16F4009407D077FD09D018
:104280000E94532107FC05D03EF4909581959F4FE5
:104290000895709561957F4F0895EE0FFF1F05906B
:1042A000F491E02D0994AA1BBB1B51E107C0AA1F82
:1042B000BB1FA617B70710F0A61BB70B881F991FC7
:1042C0005A95A9F780959095BC01CD0108950F935B
:1042D0001F93CF93DF938230910510F482E090E03A
:1042E000E0914805F091490530E020E0B0E0A0E021
:1042F000309799F42115310509F44AC0281B390B70
:1043000024303105D8F58A819B816115710589F1C9
:10431000FB0193838283FE0111C0408151810281A0
:10432000138148175907E0F04817590799F4109777
:1043300061F012960C93129713961C933296CF014C
:10434000DF91CF911F910F9108950093480510932D
:104350004905F4CF2115310551F04217530738F0C4
:10436000A901DB019A01BD01DF01F801C1CFEF0115
:10437000F9CF9093490580934805CDCFFE01E20F18
:10438000F31F819391932250310939832883D7CF2A
:104390002091460530914705232B41F420910501DA
:1043A0003091060130934705209346052091030183
:1043B000309104012115310541F42DB73EB74091EC
:1043C000070150910801241B350BE0914605F0913F
:1043D0004705E217F307A0F42E1B3F0B28173907F8
:1043E00078F0AC014E5F5F4F2417350748F04E0F51
:1043F0005F1F5093470540934605819391939FCF4C
:10440000F0E0E0E09CCFCF93DF930097E9F0FC0170
:10441000329713821282A0914805B0914905ED01AF
:1044200030E020E01097A1F420813181820F931FAA
:1044300020914605309147052817390709F061C0DA
:10444000F0934705E0934605DF91CF910895EA0187
:10445000CE17DF07E8F54A815B819E0141155105C2
:10446000B1F7E901FB83EA8349915991C40FD51F44
:10447000EC17FD0761F4808191810296840F951FEE
:10448000E90199838883828193819B838A83F0E009
:10449000E0E012968D919C9113970097B9F52D91BC
:1044A0003C911197CD010296820F931F20914605F2
:1044B000309147052817390739F6309751F5109292
:1044C000490510924805B0934705A0934605BCCF17
:1044D000D383C28340815181840F951FC817D907A8
:1044E00061F44E5F5F4F88819981480F591F518356
:1044F00040838A819B81938382832115310509F052
:10450000B0CFF0934905E09348059ECFFD01DC0153
:10451000C0CF13821282D7CF81E090E0F8940C9440
:10452000A722DC0101C06D9341505040E0F708958F
:10453000FB01DC014150504048F001900D920020F9
:10454000C9F701C01D9241505040E0F70895F8941A
:02455000FFCF9B
:10455200FF130000004A05800000000000DC0B7D14
:10456200045D135C13E613590E820E5A0E760E6A20
:104572000E890E590EA209A109200EE70DA20D8582
:104582000D0D0DAE0C00000000DC0B7D045D135C14
:10459200134B08590E820E5A0E760E6A0E890E5968
:1045A2000EA209A109200EE70DA20D09080D0DAEFC
:1045B2000CC513DC13000000001D057D04AA046A6B
:1045C20005DB04B904CD0400000000E8130000007C
:1045D20000DB10AE105D13590EA710941085105514
:1045E2006E6B6E6F776E2070696E206D6F64650002
:1045F2004932432052656164204572726F723A20DB
:10460200546F6F206D616E792062797465732072C8
:104612006563656976656400493243205265616469
:10462200204572726F723A20546F6F206665772050
:1046320062797465732072656365697665640031B9
:10464200302D6269742061646472657373696E6788
:10465200206D6F6465206973206E6F7420796574B4
:1046620020737570706F7274656400746F6F206D63
:10467200616E792071756572696573002F686F6D5F
:10468200652F6A6775696C6C65322F417264756952
:104692006E6F2F6E656F7069784669726D617461B5
:1046A2002F6E656F7069784669726D6174612E69EB
:0446B2006E6F000027
:00000001FF
