:100000000C9463000C948B000C948B000C94881857
:100010000C9488180C9488180C948B000C948A17F4
:100020000C948B000C948B000C948B000C94B119E5
:100030000C948B000C948B000C948B000C948B0014
:100040000C943E180C948B000C940C180C94E6172E
:100050000C948B000C948B000C948B000C948B00F4
:100060000C9492180C948B000000000024002700D0
:100070002A0000000008000201000003040700003D
:1000800000000000000000000000230026002900FE
:10009000010204081020408001020408102001021F
:1000A0000408102000000000250028002B00040494
:1000B0000404040404040202020202020303030310
:1000C00003030200B21A11241FBECFEFD8E0DEBF37
:1000D000CDBF12E0A0E0B1E0ECE6F0E402C0059094
:1000E0000D92AC30B107D9F725E0ACE0B2E001C029
:1000F0001D92A430B207E1F710E0C3E6D0E004C0DF
:100100002197FE010E94FA1EC236D107C9F70E944C
:100110004B1B0C9434200C9400000F931F93CF932F
:10012000DF93EC0101E114E0D8018D919C916C2FDB
:100130006F77DC01ED91FC910190F081E02D099544
:10014000F80180819181CC0FCD2FCC1FDD0B6C2F5E
:100150006F77DC01ED91FC910190F081E02DDF9152
:10016000CF911F910F910994CF93DF93EB01A09151
:100170001104B09112048F70682F606EED91FC91A4
:1001800011970190F081E02DCD010995CE01DF910D
:10019000CF910C948D008091110490911204DC0198
:1001A000ED91FC910190F081E02D67EF0994809131
:1001B000110490911204DC01ED91FC910190F08109
:1001C000E02D60EF0994FF920F931F93CF93DF937D
:1001D000C82F062FF42E152F0E94D70080911104EE
:1001E00090911204DC01ED91FC910190F081E02DE1
:1001F0006C2F0995CF2DD12F0C0F1D2F111DC0175E
:10020000D10729F0899190E00E948D00F8CFDF910D
:10021000CF911F910F91FF900C94CB008091EE0233
:100220009091EF02891B990B0895CF93DF930E9461
:10023000D7008091110490911204DC01ED91FC91A2
:100240000190F081E02D69E709958091110490916A
:100250001204A0911404B0911504EC01E881F98115
:100260000190F081E02D6C9109958091110490919D
:100270001204A0911404B0911504EC01E881F981F5
:100280000190F081E02D11966C910995C2E080916A
:100290001304C81760F4E0911404F0911504EC0FF6
:1002A000F11D808190E00E948D00CF5FF0CFDF9143
:1002B000CF910C94CB00CF93DF93C1E1D4E0888140
:1002C0009981DC01ED91FC910190F081E02D69EFC5
:1002D000099588819981DC01ED91FC910190F08173
:1002E000E02D62E0099588819981DC01ED91FC9116
:1002F0000190F081E02D65E0DF91CF910994A0910C
:100300001104B0911204ED91FC9111970190F081CC
:10031000E02D682FCD010994109216041092170455
:1003200010921804E9E1F4E0119284E0E935F8074D
:10033000D9F71092590410925B0410925A04E0917C
:10034000A404F091A504309709F009940895089544
:100350000895AF92BF92CF92DF92EF92FF920F93E8
:100360001F93CF93DF936C017B018B01040F151F4B
:10037000EB015E01AE18BF08C017D10759F06991B3
:10038000D601ED91FC910190F081E02DC601099517
:10039000892B79F7C501DF91CF911F910F91FF90C4
:1003A000EF90DF90CF90BF90AF900895FC01538DF8
:1003B000448D252F30E0842F90E0821B930B54173F
:1003C00010F0CF96089501970895FC01918D828DCC
:1003D000981761F0A28DAE0FBF2FB11D5D968C9165
:1003E000928D9F5F9F73928F90E008958FEF9FEFA4
:1003F0000895FC01918D828D981731F0828DE80F60
:10040000F11D858D90E008958FEF9FEF0895FC0119
:10041000918D228D892F90E0805C9F4F821B9109E6
:100420008F73992708958EE693E00E94070221E0DA
:10043000892B09F420E0822F089580E090E0892B39
:1004400029F00E94130281110C9400000895FC0110
:10045000A48DA80FB92FB11DA35ABF4F2C91848D25
:1004600090E001968F739927848FA689B7892C9382
:10047000A089B1898C91837080648C93938D848DD5
:10048000981306C00288F389E02D80818F7D8083D8
:100490000895EF92FF920F931F93CF93DF93EC0198
:1004A00081E0888F9B8D8C8D98131AC0E889F9891B
:1004B000808185FF15C09FB7F894EE89FF8960831E
:1004C000E889F98980818370806480839FBF81E09F
:1004D00090E0DF91CF911F910F91FF90EF900895E1
:1004E000F62E0B8D10E00F5F1F4F0F731127E02EBC
:1004F0008C8D8E110CC00FB607FCFACFE889F989F4
:10050000808185FFF5CFCE010E942702F1CFEB8DD0
:10051000EC0FFD2FF11DE35AFF4FF0829FB7F894C7
:100520000B8FEA89FB8980818062CFCF8EE693E0D2
:100530000C944902682F8EE693E00C944902682FD0
:100540008EE693E00C944902CF93DF93EC01888D03
:100550008823B9F0AA89BB89E889F9898C9185FD3E
:1005600003C0808186FD0DC00FB607FCF7CF8C91CC
:1005700085FFF2CF808185FFEDCFCE010E9427025B
:10058000E9CFDF91CF910895833081F028F4813055
:1005900099F08230A9F008958730A9F08830C9F029
:1005A0008430B1F4809180008F7D03C08091800001
:1005B0008F7780938000089584B58F7784BD0895E8
:1005C00084B58F7DFBCF8091B0008F778093B00092
:1005D00008958091B0008F7DF9CFCF93DF93282FBE
:1005E00030E0F901EE58FF4F8491F901E057FF4FD9
:1005F000D491F901E255FF4FC491CC23A1F08111B0
:100600000E94C402EC2FF0E0EE0FFF1FEA57FF4FED
:10061000A591B491EC91ED2381E090E009F480E0A4
:10062000DF91CF91089580E090E0FACF1F93CF93B0
:10063000DF93282F30E0F901EE58FF4F8491F90144
:10064000E057FF4FD491F901E255FF4FC491CC23FD
:10065000A9F0162F81110E94C402EC2FF0E0EE0FDA
:10066000FF1FEC55FF4FA591B4918FB7F894EC9113
:10067000111108C0D095DE23DC938FBFDF91CF919D
:100680001F910895DE2BF8CF9091000189130BC0C4
:10069000E2ECF0E0E4919FEF90930001E13049F04B
:1006A00028F0E23061F060E00C94160310926E00C6
:1006B000FACF90916F009D7F90936F00F4CF90914F
:1006C00070009D7F9093700091E09093B0009091A6
:1006D000B100987F94609093B1001092B300E3CF83
:1006E000CF93DF9390E0FC01E057FF4F24918255B8
:1006F0009F4FFC0184918823C9F090E0880F991FD7
:10070000FC01E859FF4FA591B491FC01EC55FF4F56
:10071000C591D49161110DC09FB7F8948C9120952B
:1007200082238C938881282328839FBFDF91CF91D8
:100730000895623051F49FB7F8943C91822F8095D0
:1007400083238C93E8812E2BEFCF8FB7F894EC9115
:100750002E2B2C938FBFEACF4F925F926F927F9296
:100760008F929F92AF92BF92CF92DF92EF92FF92C1
:100770000F931F93CF93DF9300D000D01F92CDB77C
:10078000DEB78B0129013A01909100018917C9F068
:100790009F3F09F47EC00F900F900F900F900F9025
:1007A000DF91CF911F910F91FF90EF90DF90CF904D
:1007B000BF90AF909F908F907F906F905F904F9081
:1007C0000895E2ECF0E094919D8397FDE4CF61E021
:1007D0000E9470038D81882321F09D81923009F061
:1007E0004AC14801B12CA12C60E072E18AE790E097
:1007F000A50198010E948B1E29833A834B835C8359
:1008000069017A0181E0C81AD108E108F1089FEF77
:10081000C916D104E104F10409F00CF401C160E44B
:1008200072E48FE090E0A50198010E948B1E69019F
:100830007A0181E0C81AD108E108F1089D8192305F
:1008400009F0A2C08FEFC816D104E104F10409F049
:100850000CF4E6C160E970ED83E090E0A501980139
:100860000E948B1E69017A0191E0C91AD108E10842
:10087000F1088FEFC816D104E104F10411F00CF077
:100880007FC183E09091B100987F892B8093B10064
:10089000CFC080930001E2ECF0E094919D839F3FF4
:1008A00009F479CF913041F150F0923009F446C00B
:1008B0009D8197FD70CF61E00E9470038ECF14BCC4
:1008C00015BC94B5926094BD95B5916095BD282FE7
:1008D00030E0F901E255FF4FE491F0E0EE0FFF1F29
:1008E000EC55FF4F45915491F901E057FF4FE491CA
:1008F000E093A2021D826BCF1092800010928100C3
:100900009091810098609093810090918100916016
:1009100090938100282F30E0F901E255FF4FE491D8
:10092000F0E0EE0FFF1FEC55FF4F45915491F90198
:10093000E057FF4FE491E093A10249CF1092B0003D
:100940001092B1009091B00092609093B00090919D
:10095000B10091609093B100282F30E0F901E25589
:10096000FF4FE491F0E0EE0FFF1FEC55FF4F459174
:1009700054915093AC024093AB02F901E057FF4F02
:10098000E491E093AD0223CF9FEFC916D104E104B7
:10099000F10409F00CF46DC068E478EE81E090E0B9
:1009A000A50198010E948B1E69017A0181E0C81A95
:1009B000D108E108F1089D81992309F4FAC08FEF6D
:1009C000C816D104E104F10411F00CF0FBC0EFC033
:1009D00064E274EF80E090E0A50194010E948B1E18
:1009E00069017A0181E0C81AD108E108F10885E0BF
:1009F0009FEFC916D104E104F10409F008F442CFD5
:100A000062E17AE780E090E0A50194010E948B1EEC
:100A100069017A0181E0C81AD108E108F108E5C04E
:100A200081E09D8191112ECF95B5987F892B85BD51
:100A30002FEF3FEFA901411451046104710409F043
:100A400043C09D81913009F45EC0923009F46DC0BD
:100A50009111A1CEC7BC2093A7023093A802409366
:100A6000A9025093AA0280916E00826080936E006A
:100A700092CE82E0D6CFB12CA12C60E072E18AE761
:100A800090E0A50198010E948B1E69017A0181E026
:100A9000C81AD108E108F108C114D10491E0E906AF
:100AA000F10404F591E08D81813011F6809181008F
:100AB000887F892B809381002FEF3FEFA90141149C
:100AC000510461047104F9F0D801AA0FBB1FA301FE
:100AD00092010E94AA1E28EE33E040E050E00E94FE
:100AE000BD1EAFCF68E478EE81E090E0A5019801EB
:100AF0000E948B1E69017A0181E0C81AD108E108C1
:100B0000F10893E0D0CFD0928900C0928800209362
:100B1000A3023093A4024093A5025093A6028091B1
:100B20006F00826080936F0036CEC092B300209336
:100B3000AE023093AF024093B0025093B102809165
:100B4000700082608093700026CE84E09FEFC9160B
:100B5000D104E104F10409F008F466CFC980DA8019
:100B6000EB80FC808AE0F594E794D794C7948A954B
:100B7000D1F781E0C81AD108E108F10885E054CF27
:100B800068E478EE81E090E0A50198010E948B1E58
:100B900069017A0181E0C81AD108E108F1089FEFE4
:100BA000C916D104E104F10411F00CF011CF84E076
:100BB00069CE83E09FEFC916D104E104F10409F086
:100BC0000CF432CF62E17AE780E090E0A501940175
:100BD0000E948B1E69017A0181E0C81AD108E108E0
:100BE000F1089D81992309F4B0CF86E09FEFC916E3
:100BF000D104E104F10409F008F444CEC980DA809C
:100C0000EB80FC809AE0F594E794D794C7949A958A
:100C1000D1F781E0C81AD108E108F10887E032CEA7
:100C200082E030CE8E3008F08E50877080648093E2
:100C30007C0080917A00806480937A0080917A00B1
:100C400086FDFCCF809178009091790008958230E4
:100C5000910538F0880F991F880F991F0597019704
:100C6000F1F708953FB7F89480919D0290919E020C
:100C7000A0919F02B091A00226B5A89B05C02F3F6E
:100C800019F00196A11DB11D3FBFBA2FA92F982FB2
:100C90008827BC01CD01620F711D811D911D42E0AD
:100CA000660F771F881F991F4A95D1F708958F9275
:100CB0009F92AF92BF92CF92DF92EF92FF926B0121
:100CC0007C010E9432064B015C01C114D104E10495
:100CD000F104B9F00E943206681979098A099B0962
:100CE000683E73408105910580F321E0C21AD10866
:100CF000E108F10888EE880E83E0981EA11CB11C63
:100D0000E4CFFF90EF90DF90CF90BF90AF909F9097
:100D10008F90089520917702260F3327331F2132B9
:100D20003105ECF420914403FC0190E080E0243094
:100D300069F082E00895A09177022191AC01495AAF
:100D40005D4FA40FB52FB11D2C930196861798F314
:100D500080917702680F6093770280E0089581E0C8
:100D600008951092440381E08093430310921E0380
:100D700061E082E10E94160361E083E10E941603B4
:100D8000E9EBF0E080818E7F808380818D7F80839E
:100D900088E48093B80085E48093BC000895CF93E5
:100DA000DF9391E0909356028823B9F0C091B80088
:100DB000D091BA008091BC008A7B8093BC0060E037
:100DC00082E10E94160360E083E10E9416030E9404
:100DD000B106D093BA00C093B800DF91CF910895C7
:100DE0008F929F92AF92BF92CF92DF92EF92FF923B
:100DF0000F931F93CF93DF93D0916D03D13208F0FF
:100E0000D7C0182FC0916C030E9432066B017C0181
:100E10008091440381116BC082E08093440310935E
:100E200043038FEF8093420310924103D09340031A
:100E3000ACE4B3E0E0E2F3E080E0D81391C01092BC
:100E40001F0380911F03CC0FC82BC0931F038091F9
:100E50001E03813009F088C010921E030E943206E2
:100E60006B017C0180911F038093BB00809146033E
:100E700090914703A0914803B0914903892B8A2B95
:100E80008B2BA1F00E94320600914603109147037C
:100E900020914803309149036C197D098E099F09FF
:100EA000061717072807390708F442C08091BC00CD
:100EB00083FDD8CF85EC8093BC000E9432066B0185
:100EC0007C0180914403823009F450C08091420338
:100ED0008F3F09F46FC080914203803209F46CC0E7
:100EE00080914203803309F469C084E026C0809178
:100EF000460390914703A0914803B0914903892B81
:100F00008A2B8B2B09F484CF0E94320680904603F3
:100F100090904703A0904803B09049036C197D0955
:100F20008E099F0986169706A806B90608F070CFA5
:100F3000809145030E94CF0685E010924B031092EA
:100F40006D0310924A03DF91CF911F910F91FF9093
:100F5000EF90DF90CF90BF90AF909F908F900895CB
:100F60009D9191938F5F69CF85EEA5CF80914603C8
:100F700090914703A0914803B0914903892B8A2B94
:100F80008B2B09F49ECF0E943206009146031091EC
:100F9000470320914803309149036C197D098E095C
:100FA0009F09061717072807390708F08ACFC0CF0F
:100FB00081E0C3CF80E0C1CF82E0BFCF83E0BDCF6F
:100FC000CF92DF92EF92FF920F931F93CF93DF9315
:100FD000D82FC62F613208F098C00E9432066B01EC
:100FE0007C018091440381116BC081E080934403B4
:100FF000809343039FEF90934203109241039C0F11
:101000009093400380931F0380911F03DD0FD82B23
:10101000D0931F0380911E03813009F078C0109295
:101020001E030E9432066B017C0180911F03809396
:10103000BB008091460390914703A0914803B09173
:101040004903892B8A2B8B2BA1F00E943206009139
:1010500046031091470320914803309149036C19CE
:101060007D098E099F09061717072807390708F415
:1010700048C08091BC0083FDD8CF85EC8093BC0034
:101080000E9432066B017C0180914403813009F497
:1010900040C0809141038C1710F4C0914103E0E2FD
:1010A000F3E0A0EFB2E080E08C1355C08C2FDF910D
:1010B000CF911F910F91FF90EF90DF90CF90089507
:1010C0008091460390914703A0914803B091490352
:1010D000892B8A2B8B2B09F484CF0E943206009136
:1010E00046031091470320914803309149036C193E
:1010F0007D098E099F09061717072807390708F089
:1011000070CF809145030E94CF06C0E0CFCF85EE1F
:10111000B5CF8091460390914703A0914803B091C9
:101120004903892B8A2B8B2B09F4AECF0E94320600
:1011300000914603109147032091480330914903E1
:101140006C197D098E099F090617170728073907AB
:1011500008F09ACFD6CF91919D938F5FA5CF089538
:10116000E091EF028091EE02E81730F4F0E0E051F8
:10117000FD4F808190E008958FEF9FEF089590914B
:10118000EF028091EE022FEF3FEF981748F4E92F1E
:10119000F0E0E051FD4F208130E09F5F9093EF023F
:1011A000C9010895CF92DF92EF92FF920F931F93A0
:1011B000CF93DF937C01CB018A0120914A03222344
:1011C00089F0EB016B01C40ED51ECC15DD0569F06D
:1011D0006991D701ED91FC910190F081E02DC7015B
:1011E0000995F3CF642F0E948A06C801DF91CF9141
:1011F0001F910F91FF90EF90DF90CF900895CF93C4
:10120000DF931F92CDB7DEB7698320914A03222373
:10121000F9F020916D03203258F021E030E0FC011C
:101220003383228390E080E00F90DF91CF91089587
:1012300080914B03E82FF0E0E45BFC4F99819083B1
:101240008F5F80934B0380936D0381E090E0ECCF40
:1012500061E0CE0101960E948A06F7CFCF93C82F96
:1012600081E080934A0382E580936C0310924B03E4
:1012700010926D038BEA94E00E94FF086C2F8BEABA
:1012800094E00E94FF0881E00E94F0066AE070E0AE
:1012900080E090E0CF910C94570690E080E00895B4
:1012A000DF92EF92FF920F931F93CF93DF93EC01A6
:1012B000D62E7A01890188818C3008F067C061E000
:1012C0008D2D0E9470038881282F30E0F901EE0FE8
:1012D000FF1FE20FF31FE954FB4F9D2D9F736081A9
:1012E000607C692B608320E232E02E193F0937FFD2
:1012F00002C02D5F3F4F359527953595279529835A
:1013000020E639E0201B310B37FF02C02D5F3F4F35
:1013100035952795359527952A832CE0622F0E94D5
:10132000EE1E829FB001112430E020E0AB01420F9D
:10133000531FFA01EE0FFF1FE40FF51FE954FB4F97
:10134000908196FD16C02F5F3F4F2C30310571F70D
:1013500081110FC01092800082E080938100109272
:10136000850010928400B19A80916F008260809312
:101370006F00E8818E2F90E0FC01EE0FFF1FE80F59
:10138000F91FE954FB4F8081806480838881DF915D
:10139000CF911F910F91FF90EF90DF900895CF9321
:1013A0008630B0F421E030E0082E02C0220F331F57
:1013B0000A94E2F74091E8025091E902672B51F458
:1013C00020953095242335233093E9022093E802B9
:1013D000CF910895242B352B3093E9022093E80216
:1013E000909154029111F4CFC82F0E941206BC01B3
:1013F0008C2FCF910C94B4005F926F927F928F925A
:101400009F92AF92BF92CF92DF92EF92FF920F9393
:101410001F93CF93DF93833008F061C0D1E0D80FE2
:10142000DD0FDD0FDD0F5D2ED53110F044E1542EC0
:10143000C62F082FD8508D2E912CC401880F991FCC
:101440009C012F5E3B4F5901D12CC12C10E0772419
:101450007394D515C8F58EEF8D0F8231F8F4F6012F
:10146000E80DF91DE45AFB4F90819230B8F48C2FAF
:10147000872166246394811101C0612C7601EE0CF2
:10148000FF1C913089F417293FE5E30EF11CF501AB
:10149000EE0DFF1D862D90E091838083770CDF5F3A
:1014A0008FEFC81AD80AD5CF882371F3F701E15A14
:1014B000FF4FEA0DFB1D80819181019729F362E0C6
:1014C0008D2F0E947003E0CF011119C0F8948BB1E9
:1014D0006C2F68276C7F612368276BB97894DF9144
:1014E000CF911F910F91FF90EF90DF90CF90BF9021
:1014F000AF909F908F907F906F905F900895013094
:10150000D1F4C123F89495B1812F8F7380958923ED
:101510009C2F9F73892B85B988B1612F6295669541
:101520006695637060956823C295C695C695C3702D
:10153000C62BC8B9D3CF1F70F89498B1812F880FEC
:10154000880F80958923C123CC0FCC0FC82BF1CFF6
:101550008F929F92AF92BF92CF92DF92EF92FF92C3
:101560000F931F93CF93DF93EB01843108F098C062
:10157000082F10E0F801E45AFB4F9081933009F4F2
:101580009CC0943009F08CC08250823108F081C038
:10159000F801E45CFD4FC080D12C7601EE0CFF1CFD
:1015A0004B01603282E078070CF03EC0F701EC0D91
:1015B000FD1DE452FB4F8181A8E88A2E912C881AE8
:1015C000910887FD9394880C991C880C991C092C10
:1015D000000CAA08BB08828128E532E0281B3109EB
:1015E00087FD3395220F331F220F331F032E000C6C
:1015F000440B550B281939094A095B09DB01653B86
:10160000710514F0A4EBB0E0B7FF02C0B0E0A0E0B9
:101610000E94B51E24EB30E040E050E00E948B1E9B
:10162000820E931EA41EB51EF701EC0DFD1DE452A3
:10163000FB4F20812C3068F5318188E890E0831BD6
:10164000910937FD9395880F991F880F991F881668
:1016500099067CF0328188E592E0831B910937FD81
:101660009395880F991F880F991F881699060CF477
:10167000C4010297880F991F4FB7F89430E0F90121
:10168000EE0FFF1FE20FF31FE954FB4F928381839C
:101690004FBF000F111FF801E059FB4FD183C083EA
:1016A000DF91CF911F910F91FF90EF90DF90CF903E
:1016B000BF90AF909F908F9008957B01D82F83307B
:1016C00041F08BEF800F823020F087EF800F833066
:1016D00058F461E08D2F0E947003E114F10461F46D
:1016E00060E08D2F0E941603000F111FF801E059D2
:1016F000FB4FF182E082D4CF8FEFE816F10411F4B2
:1017000061E0EFCFF801EE58FF4FE491E33021F1B3
:1017100048F4E130B9F0E230D1F080E8E816F104A5
:101720007CF7DECFE73011F1E83041F1E430A9F782
:1017300080918000806280938000F0928B00E09224
:101740008A00D2CF84B5806884BDE7BCCDCF84B594
:10175000806284BDE8BCC8CF80918000806880939F
:101760008000F0928900E0928800BECF8091B000A6
:1017700080688093B000E092B300B6CF8091B00053
:1017800080628093B000E092B400AECF9EEF980FDD
:10179000923180F4E82FF0E0DF01A45ABB4F9C9116
:1017A000913041F4EE0FFF1FE059FB4F60837183CE
:1017B0000C94160308950F931F93CF93082F10E0F6
:1017C000F801EA54FD4F9081C62FC923005B1D4FDD
:1017D000411104C0D8019C919C1771F1682F809130
:1017E0001104909112046F706069DC01ED91FC911D
:1017F0000190F081E02D09958091110490911204DF
:101800006C2F6F77DC01ED91FC910190F081E02D60
:10181000099580911104909112046C2F70E0660F6D
:10182000672F661F770BDC01ED91FC910190F08131
:10183000E02D0995F801C083CF911F910F91089574
:10184000833040F5282F30E0F901E754FD4F6083E5
:10185000672B01F12A543D4FF9016081811106C0C7
:1018600099B19C7F692341E00C94DB0B813049F4F2
:1018700093B126B19F73F0E42F9F90011124922B16
:10188000F1CF26B130E035952795359527952F7006
:101890006223E9CF0895A82FB0E0A45CBD4FEC917E
:1018A0008E2F90E0FC01EE0FFF1FE80FF91FE452AE
:1018B000FB4F8081282F30E0F901EE0FFF1FE20F70
:1018C000F31FE954FB4F90819F7B90832CE0622FA4
:1018D0000E94EE1E829FC001112430E020E0AC0186
:1018E000420F531FFA01EE0FFF1FE40FF51FE954DB
:1018F000FB4F408146FD11C02F5F3F4F2C3031051B
:1019000071F71092810082E08093810081E08093E2
:1019100081008093800010926F008C9190913A0228
:10192000891308C0882319F0815080933A028FEF01
:101930008C9308959923D9F3E0913B02EF5FE093F4
:101940003B02F0E0E55FFD4F8083F1CFFC010190A9
:101950000020E9F73197BF01681B790BAC0181E7E3
:101960000C94E300CF93DF93DB0190913A029C301B
:1019700078F530913B02682F70E0FB01E45CFD4F8D
:101980003323E1F0C32FD0E0C55FDD4F8881808332
:10199000315030933B02808123E0829FC0011124AB
:1019A00084529B4F1A161B0674F4141615065CF429
:1019B0009A01AD01DF91CF910C94500990839F5F04
:1019C00090933A02E8CF20E639E040E252E0F2CFCD
:1019D00084E391E0DF91CF910C94A60C8F929F92BB
:1019E000AF92BF92EF92FF920F931F93CF93DF932B
:1019F000CDB7DEB7A1970FB6F894DEBF0FBECDBF4F
:101A00007C01FA01CB0119A2223008F42AE08E01F0
:101A10000F5D1F4F822E912CB12CA12CBF01A5016F
:101A200094010E94BD1EF901CA016A3074F5605D1F
:101A3000D8016E938D01232B242B252B79F790E071
:101A400080E0109789F0FD0101900020E9F73197BF
:101A5000AF014A1B5B0BD701ED91FC910280F38132
:101A6000E02DB801C7010995A1960FB6F894DEBF25
:101A70000FBECDBFDF91CF911F910F91FF90EF90DF
:101A8000BF90AF909F908F900895695CD1CFEF92F7
:101A9000FF920F931F93CF93DF93D82F8B01C42F07
:101AA000F22E6F3F760709F448C081E080934A0325
:101AB000D0936C0310924B0310926D038BEA94E069
:101AC0000E94FF088F2D0E94F006809138029091AD
:101AD0003902009711F00E9427066C2FC13208F0DE
:101AE00060E28D2F0E94E0071092EF028093EE02D9
:101AF000EC2EF12C90E0E816F9060CF588E491E064
:101B00000E94A60CD09318020093190208E112E07B
:101B1000C801885192408E159F05BCF40F5F1F4F7E
:101B20009091EE028091EF02981779F08BEA94E0A1
:101B30000E94BF08F8018183EBCF00E0CECF8E1565
:101B40009F0504F785E691E0DBCF62E06C0F48E18A
:101B500052E087E7DF91CF911F910F91FF90EF90B7
:101B60000C94E300FF920F931F93CF93DF93CDB7B5
:101B7000DEB72C970FB6F894DEBF0FBECDBF66E080
:101B800082E50E94E007F82E1092EF028093EE02A9
:101B90008E010F5F1F4F8091EF02F81649F08BEA1C
:101BA00094E00E94BF08F801819391938F01F3CFD5
:101BB00089819A8190931103809310038B819C817A
:101BC00090931303809312038B859C852D813E8116
:101BD000220F331F220F331FAC01559547955595A2
:101BE000479543705527242B352B309315032093AD
:101BF00014032F813885220F331F220F331FAC01AE
:101C0000E4E055954795EA95E1F743705527242B75
:101C1000352B309317032093160329853A85220F1D
:101C2000331F220F331FAC01A6E055954795AA95A7
:101C3000E1F743705527242B352B3093190320935C
:101C400018039C01209530952170332730931B0396
:101C500020931A0321E030E081FF02C030E020E051
:101C600030931D0320931C0360E080E02C960FB698
:101C7000F894DEBF0FBECDBFDF91CF911F910F91C2
:101C8000FF900C942E098F929F92AF92BF92CF92A9
:101C9000DF92EF92FF920F931F93CF93DF937C011C
:101CA000EB016C0182E0C80ED11C4701E5E08E0E0D
:101CB000911C10E000E0F60141916F0150E070E0EE
:101CC00060E02AE0CE010E94EE0C5C01E881F9811F
:101CD0000190F081E02D6EE2CE0109958A0D9B1DE9
:101CE000080F191FC814D90431F7F701458150E0D6
:101CF00070E060E02AE0CE010E94EE0C800F911FA0
:101D0000DF91CF911F910F91FF90EF90DF90CF90D7
:101D1000BF90AF909F908F9008959F92AF92BF9287
:101D2000CF92DF92EF92FF920F931F93CF93DF93A7
:101D3000C82ED12CE601CF5EDB4FFE01E55BFF4FE5
:101D400090819F3709F49FC0963061F490915302BF
:101D5000992341F06630710529F0109253029FEFEC
:101D6000909301017B01182F0EEF080F023108F547
:101D700064307105F1F0F601E45CFD4F80818C3038
:101D8000C0F490E0FC01EE0FFF1FE80FF91FE452D2
:101D9000FB4FE0818E2F90E0FC01EE0FFF1FE80F5C
:101DA000F91FE954FB4F808186FF03C0812F0E94F9
:101DB0004B0C52EF952E910E85E0891558F061E09D
:101DC00070E032E0E316F10411F070E060E0892D7C
:101DD0000E94CF090231C8F4E12FE695E695E69519
:101DE000F0E0EA54FD4F2081312F377081E090E020
:101DF00001C0880F3A95EAF7E114F10421F03BE0C5
:101E0000E316F10401F5822B80835601AA0CBB1C5A
:101E1000F501E059FB4F118210828CE0E816F104C5
:101E200008F0C4C0F701E95EF04F0C94FA1E370FBA
:101E3000640F260F750F930FD60FCA0FD60FD60F4C
:101E4000D60F430F4F0F80958223DECF35E0391533
:101E5000D0F0023120F460E0812F0E947003C55B56
:101E6000DF4F88818F3779F082E088830CC00231A0
:101E700050F460E0812F0E947003C55BDF4F8881C2
:101E80008F3709F01882DF91CF911F910F91FF904A
:101E9000EF90DF90CF90BF90AF909F900895023168
:101EA00090F762E0812F0E947003C55BDF4F88814D
:101EB0008F3711F08BE08883F501E059FB4F81E00B
:101EC00090E091838083DFCF0231E8F660E0812FDC
:101ED0000E94160361E0812F0E947003C55BDF4FF3
:101EE00088818F3781F281E0C0CF133041F08BEFD2
:101EF000810F823020F087EF810F833020F661E080
:101F0000812F0E94700361E0812F0E94700360E0C6
:101F1000812F0E941603C55BDF4F88818F3709F43C
:101F2000B2CF83E0A2CF023108F0ADCFC55BDF4F67
:101F300088818F3711F084E08883F601E45CFD4FDF
:101F400080818F3FA9F090E0FC01EE0FFF1FE80FAA
:101F5000F91FE452FB4FE0818E2F90E0FC01EE0F61
:101F6000FF1FE80FF91FE954FB4F808186FD8BCFDF
:101F70004FEF5FEF6FEF7FEF812FDF91CF911F91D9
:101F80000F91FF90EF90DF90CF90BF90AF909F9018
:101F90000C94B20C1251123008F075CFC55BDF4FB4
:101FA00088818F3709F46FCF86E05FCF81E891E0B9
:101FB000DF91CF911F910F91FF90EF90DF90CF9025
:101FC000BF90AF909F900C94A60C0F931F93CF934C
:101FD000DF9381E08093540280915302882329F09B
:101FE000109253028FEF809301011092B902109268
:101FF000B602109250021092BA021092B7021092DA
:1020000051021092BB021092B802109252020CE3DD
:1020100012E0C0E0DFEF82EF8C0F62E070E086300C
:1020200030F08EEF8C0F823128F461E070E08C2F5D
:102030000E948D0EF801D1938F01CF5FC43159F703
:102040001092E9021092E80210923B0210923A02BA
:1020500010925402DF91CF911F910F9108950F9329
:102060001F9390E0FC01E057FF4F7491FC01E25593
:10207000FF4FE4916111672FF0E0EE0FFF1FEA5769
:10208000FF4F8591949189019A013F70462F672FE8
:102090000E946D1A611571058105910529F06F5F28
:1020A0007F4F8F4F9F4F9F701F910F9108953F92C9
:1020B0004F925F926F927F928F929F92AF92BF9258
:1020C000CF92DF92EF92FF920F931F93CF93DF9304
:1020D00000D000D01F92CDB7DEB7F62E8A01813C2A
:1020E00009F456C408F0A8C0803709F417C308F0F3
:1020F0005DC08B3609F484C3D0F4893609F437C443
:102100000F900F900F900F900F90DF91CF911F9134
:102110000F91FF90EF90DF90CF90BF90AF909F9086
:102120008F907F906F905F904F903F9008958D3685
:1021300009F4DAC38F3621F7F1E0F61708F7DA0170
:1021400011966C9170E0B2E0FB16B1F0FA01828159
:10215000F0E88F9FC0011124682B792B23E0F21641
:1021600059F0DA0113968C9190E090E4899F902DBC
:1021700088271124682B792BF80180810F900F900C
:102180000F900F900F90DF91CF911F910F91FF90C3
:10219000EF90DF90CF90BF90AF909F908F907F9007
:1021A0006F905F904F903F900C94A80A883709F485
:1021B00079C218F5863709F0A3CFDA0111969C9100
:1021C000119795FF7DC182E991E00F900F900F90DC
:1021D0000F900F90DF91CF911F910F91FF90EF9093
:1021E000DF90CF90BF90AF909F908F907F906F9037
:1021F0005F904F903F900C94A60C8A3709F4E6C28A
:10220000803C09F07DCF0E94B20D00911003109127
:10221000110380EF90E00E949F0280EC90E00E940A
:102220009F02C8018F7799270E949F02001F0027F5
:10223000001F802F90E0CAC3863C09F40EC4C0F48E
:10224000833C09F4C6C308F4B0C3843C09F4CEC38C
:10225000853C09F055CF0E94B20D009116031091F4
:10226000170380EF90E00E949F0285EC90E0CAC3C4
:10227000893C09F4A2C408F0D2C0873C09F4FAC32F
:10228000883C09F03DCFDA0114962C911497CC903C
:10229000D12CF12CE12C59E1CC0CDD1CEE1CFF1CE7
:1022A0005A95D1F711968C9190E0B0E0A0E062E1F0
:1022B000880F991FAA1FBB1F6A95D1F7C82AD92A70
:1022C000EA2AFB2AF801828190E0B0E0A0E07BE0FE
:1022D000880F991FAA1FBB1F7A95D1F7C82AD92A40
:1022E000EA2AFB2A838190E0B0E0A0E0E4E0880FD6
:1022F000991FAA1FBB1FEA95D1F7C82AD92AEA2A33
:10230000FB2A822F90E0B0E0A0E0F3E0B695A7951D
:1023100097958795FA95D1F7C82AD92AEA2AFB2AF0
:1023200030E0B9017595679575956795F62FF17051
:10233000BF2ED80115961C911F73B6E0220F331FD4
:10234000BA95E1F7122B60E0812F0E94700320E420
:1023500032E44FE050E0C114D104E104F10411F083
:10236000A70196016B2D812F0E942F106B017C011C
:1023700080EF90E00E949F0288EC90E00E949F0214
:10238000C701B601B9E19695879577956795BA9596
:10239000D1F70E949602C701B60102E19695879592
:1023A000779567950A95D1F76F77772788279927CB
:1023B0000E949602C701B6012BE096958795779506
:1023C00067952A95D1F76F777727882799270E94F5
:1023D0009602C701B60134E0969587957795679583
:1023E0003A95D1F76F777727882799270E94960229
:1023F00043E0CC0CDD1CEE1CFF1C4A95D1F7C70155
:10240000B6016877772788279927212F2295269567
:102410002770622B0E9496021F71812F0BCF8A3C7E
:1024200009F440C48F3C09F06BCEDA012C91822F65
:1024300090E095958795182F1F732170322E198281
:102440001A821B821C821D8262E0812F0E9470030F
:1024500061E0812F0E9416036AEF70E080E090E057
:102460000E94570661E0812F0E94700360E0812F77
:102470000E94160364E170E080E090E00E9457063D
:1024800061E0812F0E9416038BE990E00197F1F73C
:1024900062E0812F0E94700383E290E00197F1F7E0
:1024A000B1E1EB2EB7E2FB2E812F0E94ED02892BCA
:1024B00009F05DC4B1E0EB1AF108B1F701E066C4C0
:1024C000FA01808196FB332730F921E023279871A8
:1024D0009830B9F1F8F4911113CE91E090934A033A
:1024E00080936C0310924B0310926D0382E0E82EF0
:1024F000EF14F8F4F801EE0DF11D61816795662780
:1025000067958081680F8BEA94E00E94FF08E3944E
:10251000E394EECF903109F44BC0983109F0F0CD3F
:102520002091010112160CF478C08FEF8093010105
:10253000E7CD81E00E94F00683E191E00197F1F799
:10254000DFCD12969C91129713964C91B6E06B13C7
:1025500028C0E0E84E9FB0011124690F711DD80119
:1025600015964C91159747954427479514969C913D
:10257000490F0F900F900F900F900F90DF91CF9118
:102580001F910F91FF90EF90DF90CF90BF90AF9091
:102590009F908F907F906F905F904F903F900C94A2
:1025A000470D479544274795490F6FEF7FEFE1CFE0
:1025B000E0910101E7301CF082EB91E006CE12962B
:1025C0003C91129713969C91B6E06B131FC0F0E8F4
:1025D0009F9FA0011124430F511DD80115969C9176
:1025E000159797959927979514963C91930FEF5FC0
:1025F000E0930101B5E0EB02F0011124E054FD4F3E
:10260000808352834183938324837ACD979599273E
:102610009795930F4FEF5FEFEACF90E0622F022E76
:10262000000C770B35E0492F50E06417750764F014
:10263000349FF001359FF00D1124E054FD4F40818F
:10264000481719F09F5FEFCF90E085E0492F50E0E9
:10265000641775071CF19830F8F4FA0131968E9FD3
:10266000D0018F9FB00D1124A054BD4F3C91849F89
:10267000F001859FF00D1124E054FD4F3083119639
:102680004D915C9112975283418313963C9113971D
:10269000338314963C9134839F5FD8CF215020938D
:1026A00001012ECDFA018181F0E88F9F9001112464
:1026B000DA018C91820F932F911D009721F0909356
:1026C00039028093380280915302811119CD10E0B4
:1026D0008EEE810F823028F466E070E0812F0E9438
:1026E0008D0E1F5F1431A1F781E080935302109289
:1026F000EF021092EE0210924B0310926D030E94B3
:10270000B10687EA91E09093B3028093B20288EA1F
:1027100091E09093B5028093B402F2CCB4E0B61786
:1027200008F0EECCFA01F0808EEF8F0D823108F0C8
:10273000E7CCE180C280D3801481EF2DF0E0E45C2F
:10274000FD4F80818C30C0F490E0FC01EE0FFF1F44
:10275000E80FF91FE452FB4FE0818E2F90E0FC015F
:10276000EE0FFF1FE80FF91FE954FB4F808186FF32
:1027700003C08F2D0E944B0CF0E81F9FA001112475
:102780004D0D511D20E8C29EB00111246E0D711D2A
:102790008F2D0E94B20C64E070E08F2D0F900F908F
:1027A0000F900F900F90DF91CF911F910F91FF909D
:1027B000EF90DF90CF90BF90AF909F908F907F90E1
:1027C0006F905F904F903F900C948D0E31E03617D4
:1027D00008F096CCDA0111968C91B0E88B9F9001AD
:1027E0001124FA018081820F932F911D009729F007
:1027F000909303018093020183CC81E090E0F8CFB5
:1028000080EF0E947F018CE60E947F011EEF123153
:10281000F0F480E00E947F0181E00E947F018BE064
:102820000E947F0181E00E947F0181E00E947F0180
:1028300081E00E947F0182E0810F823011F08530BB
:1028400031F485E00E947F0181E00E947F0184EFE6
:10285000810F863078F482E00E947F018AE00E9436
:102860007F018DEF810F823038F089EF810F833047
:1028700048F402C01130A9F783E00E947F0188E08C
:102880000E947F01123130F484E00E947F018EE0CB
:102890000E947F0180EF810F823030F486E00E9439
:1028A0007F0181E00E947F018FE70E947F011F5F0F
:1028B000123109F0ACCF87EF0F900F900F900F906F
:1028C0000F90DF91CF911F910F91FF90EF90DF90CC
:1028D000CF90BF90AF909F908F907F906F905F90C0
:1028E0004F903F900C947F01662309F409CCDA01E4
:1028F0000C9180EF0E947F018EE60E947F01802F65
:102900000E947F010431B8F610E0F801E45AFB4F51
:1029100080810E947F01000F111FF801E059FB4FD9
:102920007F0180818F770E947F01D7018D919C91DB
:102930009C012078232B39F0880F892F881F990B51
:102940008F770E947F01F801E059FB4F80819181D0
:102950009C012227307C232B09F4ADCF990F880BE3
:10296000990F982F881F8F770E947F01A4CF80EF47
:102970000E947F018AE60E947F0112EF8FE71630E6
:1029800008F4812F0E947F011F5F1630B9F793CFA3
:102990000E94B20D009112031091130380EF90E09A
:1029A0000E949F0281EC90E03ACC0E94B20D00910F
:1029B0001A0310911B0380EF90E00E949F0282ECAB
:1029C00090E00E949F02C8018F7799270E949F0282
:1029D0002AC00E94B20D00911C0310911D0380EFCC
:1029E00090E00E949F0283EC90E0EBCF0E94B20D3A
:1029F000009114031091150380EF90E00E949F0254
:102A000084EC90E00E949F02C8018F7799270E9472
:102A10009A02C801880F892F881F990B91958F778B
:102A200099270E949A0287EF90E00F900F900F90E5
:102A30000F900F90DF91CF911F910F91FF90EF902A
:102A4000DF90CF90BF90AF909F908F907F906F90CE
:102A50005F904F903F900C949F020E94B20D0091A6
:102A600018031091190380EF90E00E949F0286ECFA
:102A700090E0C8CFFA01C48086816581F0E46F9F41
:102A8000B00111242C2D30E0322F22273295330F44
:102A9000307E622B732B90E09C0136952795622B3C
:102AA000732B9695982F882797958795D801179619
:102AB0009C91892B60327105C0F40F900F900F909C
:102AC0000F900F90DF91CF911F910F91FF90EF909A
:102AD000DF90CF90BF90AF909F908F907F906F903E
:102AE0005F904F903F900C944403F8019381292FFD
:102AF00030E050E040E014E0220F331F441F551F28
:102B00001A95D1F7D12CF12CE12C03E0F694E7943F
:102B1000D794C7940A95D1F72C293D294E295F29CE
:102B2000C280D12CF12CE12C9BE0CC0CDD1CEE1CE6
:102B3000FF1C9A95D1F72C293D294E295F29C18088
:102B4000D12CF12CE12CA2E1CC0CDD1CEE1CFF1CE5
:102B5000AA95D1F72C293D294E295F29C080D12C77
:102B6000F12CE12CB9E1CC0CDD1CEE1CFF1CBA955C
:102B7000D1F72C293D294E295F2921153105410521
:102B8000510519F420E030E0A9010F900F900F904B
:102B90000F900F90DF91CF911F910F91FF90EF90C9
:102BA000DF90CF90BF90AF909F908F907F906F906D
:102BB0005F904F903F900C94AC03FA018181282FD5
:102BC00030E0C080F0E1CF9E60011124C90143E0F4
:102BD000969587954A95E1F7C82AD92AD801139680
:102BE000AC901397B12C12969C911297E92EF12C70
:102BF000EE0CFF1C322F2227E22AF32AC50176E0D1
:102C0000969587957A95E1F7E82AF92A14968C909B
:102C10001497E5E0AA0CBB1CEA95E1F7912CC401DE
:102C20009695879596958795A82AB92A15961C9109
:102C300080FA17F961E0812F0E94700395948794C0
:102C40009924939400E080FC02C0912C01E0602F55
:102C5000812F0E941603C6010E942706692D812F2D
:102C60000E941603C7010E942706602F812F0E9431
:102C70001603C5010F900F900F900F900F90DF91EA
:102C8000CF911F910F91FF90EF90DF90CF90BF9069
:102C9000AF909F908F907F906F905F904F903F90FC
:102CA0000C942706FA01D180F0808F2D880FFD2C1F
:102CB000F294F694F69413E0F122F82AE3808281EC
:102CC000880F1E2D1295169516951370182B61E01E
:102CD0008F2D0E94700360E08F2D0E9416038D2DB2
:102CE0008F7190E00E94270661E08F2D0E941603ED
:102CF0008E2D8F7190E00E94270660E08F2D0E943C
:102D0000160360E0812F0E9470032FEF3FEF40E039
:102D100050E061E0812F0E942F106B0180EF90E066
:102D20000E949F028AEC90E00E949F028D2D869562
:102D300090E00E949A02C601969587959695879590
:102D40008F7799270E949A0285E0CC0CDD1C8A952A
:102D5000E1F7F0E6CF22DD24812F869586958695D2
:102D60009601282BC9010E949A02177056CBF1E1F7
:102D7000EF2EF7E2FF2E812F0E94ED02019709F05E
:102D800067C0E1E0EE1AF108B1F702E068E2C62E92
:102D9000D12CE12C77E0F72E88248394912C01111B
:102DA0000AC051E1A52E57E2B52E812F0E94ED02F7
:102DB000892B09F44FC00E9432062B013C0141E1EE
:102DC000A42E47E2B42E002309F44BC00E94320621
:102DD00064197509860997096F3171058105910597
:102DE00008F04BC0F11059C0E39437E0F32E31E006
:102DF000C31AD108A1F6F9809B818F2D890F2A81F2
:102E0000820F2C81820F2D81281349C0011147C0E8
:102E10003110F92E64E170E080E090E00E945706E6
:102E200080EF90E00E949F028FEC90E00E949F0252
:102E30008F2D869590E00E949F028F2D817090E0EB
:102E40000E949F02812F90E0880F991F8329BECD99
:102E500000E09CCFF1E0AF1AB10809F0A6CF03E083
:102E6000AACF812F0E94ED02019709F0AFCF21E098
:102E7000A21AB108B1F704E0A9CFE1E0F0E0EC0F4D
:102E8000FD1FEE0DF11D808194010F2C01C0220F5A
:102E90000A94EAF7822B8083A5CFFA94A8CFFF2467
:102EA000FA94B8CF85ED8093BC0080914603909151
:102EB0004703A0914803B09149030796A11DB11D96
:102EC00023E0B695A795979587952A95D1F72091F8
:102ED000BC0024FD03C010924403089540914603B2
:102EE000509147036091480370914903452B462B4D
:102EF000472B69F30097A105B10541F025E32A9519
:102F0000F1F700000197A109B109E1CF80914503D4
:102F10000C94CF061F920F920FB60F9211242F938D
:102F20003F934F935F936F937F938F939F93AF9351
:102F3000BF93EF93FF938091AE029091AF02A09167
:102F4000B002B091B102892B8A2B8B2BD1F19091D9
:102F5000AD02E091AB02F091AC02808189278083C1
:102F60008091AE029091AF02A091B002B091B102F7
:102F7000181619061A061B069CF48091AE02909151
:102F8000AF02A091B002B091B1020197A109B109BD
:102F90008093AE029093AF02A093B002B093B102BF
:102FA000FF91EF91BF91AF919F918F917F916F9121
:102FB0005F914F913F912F910F900FBE0F901F90F7
:102FC0001895809100010E944403EACF1F920F924E
:102FD0000FB60F9211242F933F934F935F936F93EC
:102FE0007F938F939F93AF93BF93EF93FF938EE65F
:102FF00093E00E942702FF91EF91BF91AF919F91C3
:103000008F917F916F915F914F913F912F910F9091
:103010000FBE0F901F9018951F920F920FB60F9230
:1030200011242F938F939F93EF93FF93E0917E034F
:10303000F0917F038081E0918403F091850382FD0C
:103040001BC09081809187038F5F8F7320918803CD
:10305000821741F0E0918703F0E0E259FC4F958F31
:1030600080938703FF91EF919F918F912F910F9004
:103070000FBE0F901F9018958081F4CF1F920F9272
:103080000FB60F9211242F933F938F939F93AF937B
:10309000BF938091BC029091BD02A091BE02B091FD
:1030A000BF0230919C0223E0230F2D3758F5019683
:1030B000A11DB11D20939C028093BC029093BD0280
:1030C000A093BE02B093BF0280919D0290919E0298
:1030D000A0919F02B091A0020196A11DB11D809305
:1030E0009D0290939E02A0939F02B093A002BF9175
:1030F000AF919F918F913F912F910F900FBE0F90A5
:103100001F90189526E8230F0296A11DB11DD2CF5E
:103110001F920F920FB60F9211240F900FBE0F90B7
:103120001F9018951F920F920FB60F9211242F9394
:103130003F934F935F936F937F938F939F93AF933F
:10314000BF93EF93FF938091B900887F803609F495
:103150004AC0F0F5883209F4A7C018F5803109F4A7
:103160009BC0B8F4882309F4F9C0883009F494C0EE
:10317000FF91EF91BF91AF919F918F917F916F914F
:103180005F914F913F912F910F900FBE0F901F9025
:103190001895883109F488C0803251F78093420332
:1031A00014C0803409F49DC040F48033B9F38833EF
:1031B000F9F68093420385ECB0C0803509F485C0F0
:1031C000883509F496C0883499F60E945217D0CFFA
:1031D000883909F48CC038F5883729F050F48836DE
:1031E00011F0803729F683E080934403109299020E
:1031F00057C0883809F47BC0803919F0803809F04D
:10320000B7CF80919902803208F071C0E0919902A5
:1032100081E08E0F809399028091BB00F0E0E75827
:10322000FD4F80833DC0803B39F0E0F4803A09F4E3
:1032300079C0883A09F09CCF84E0809344031092CF
:10324000780210927702E091B202F091B3020995F0
:103250008091770281110FC081E0809377021092F4
:10326000570209C0803C09F4A6CF883C09F4A3CFDB
:10327000883B09F07DCFE091780281E08E0F80934A
:103280007802F0E0E95AFD4F80818093BB00909175
:1032900078028091770229C080911F038093BB0040
:1032A00085EC8093BC0064CF9091410380914003F2
:1032B000981758F5E091410381E08E0F8093410308
:1032C000F0E0E05EFC4F8081E9CFE091410381E0D6
:1032D0008E0F809341038091BB00F0E0E05EFC4FD5
:1032E000808390914103809140039817C8F285E84C
:1032F000D8CFE091410381E08E0F8093410380910C
:10330000BB00F0E0E05EFC4F8083809143038111BD
:103310005CCF81E080931E0384EA8093BC0010920E
:10332000440326CF85EC8093BC0010924403809127
:103330009902803230F4E0919902F0E0E758FD4FB5
:1033400010826091990270E0E091B402F091B502B0
:1033500089E792E00995109299020ACF10924203F0
:1033600034CF1F920F920FB60F9211242F933F93D9
:103370004F935F936F937F938F939F93AF93BF937D
:10338000CF93DF93EF93FF9380915502C091DB04BD
:10339000D0E087FF24C010928500109284008091B5
:1033A00055028F5F8093550280915502082E000CC4
:1033B000990B8C179D0724F4809155028C30C4F131
:1033C0008091840090918500049680349C4908F493
:1033D0007AC08091840090918500049676C0809197
:1033E0005502082E000C990B8C179D07C4F6E0912E
:1033F00055028E2FEE0F990BFC01EE0FFF1FE80F09
:10340000F91FE954FB4F808186FFC9CFE091550237
:103410008E2FEE0F990BFC01EE0FFF1FE80FF91F27
:10342000E954FB4F808160E08F730E941603B7CF91
:103430002091840030918500E09155028E2FEE0F8F
:10344000990BFC01EE0FFF1FE80FF91FE954FB4F2A
:1034500081819281820F931F9093890080938800CD
:10346000E09155028E2FEE0F990BFC01EE0FFF1F1E
:10347000E80FF91FE954FB4F808186FF11C0E091EE
:1034800055028E2FEE0F990BFC01EE0FFF1FE80F78
:10349000F91FE954FB4F808161E08F730E9416038E
:1034A000FF91EF91DF91CF91BF91AF919F918F915C
:1034B0007F916F915F914F913F912F910F900FBE30
:1034C0000F901F90189580E49CE990938900809359
:1034D00088008FEF80935502E3CFCF92DF92EF9277
:1034E000FF920F931F93E82FF92F05C00150110988
:1034F0002109310961F1908196239417B9F305C030
:10350000015011092109310911F190819623941379
:10351000F7CFC12CD12CE12CF12C0AC08FEFC81AA7
:10352000D80AE80AF80A0C151D052E053F0579F0A2
:1035300080818623841791F36C2D7D2D8E2D9F2DF8
:103540001F910F91FF90EF90DF90CF90089560E072
:1035500070E080E090E01F910F91FF90EF90DF907E
:10356000CF900895CF92DF92EF92FF921092710365
:103570001092700368EEC62E63E0D62EE12CF12C7B
:10358000C0927203D0927303E0927403F0927503B9
:103590008EE091E090936F0380936E0385EC90E052
:1035A00090937B0380937A0384EC90E090937D0367
:1035B00080937C0380EC90E090937F0380937E0364
:1035C00081EC90E0909381038093800382EC90E003
:1035D000909383038093820386EC90E0909385031D
:1035E00080938403109287031092880310928903BA
:1035F00010928A0380E291E090930C0480930B0474
:1036000010920D0410920E0410920F0410921004E8
:103610001092AA041092130410921504109214042C
:103620000E948C011092AE041092AD04C092AF04BF
:10363000D092B004E092B104F092B20486E291E03C
:103640009093AC048093AB04ECEDF4E020E035E023
:103650004FEF68EB7BE08091DB048C30D0F491E09D
:10366000980F9093DB04808390E0DC01AA0FBB1FCE
:10367000A80FB91FA954BB4F12967C936E93119754
:1036800033962E173F0739F7FF90EF90DF90CF90DA
:1036900008954083F5CF789484B5826084BD84B565
:1036A000816084BD85B5826085BD85B5816085BD3D
:1036B00080916E00816080936E00109281008091F5
:1036C000810082608093810080918100816080937D
:1036D0008100809180008160809380008091B100A2
:1036E00084608093B1008091B00081608093B000CD
:1036F00080917A00846080937A0080917A00826061
:1037000080937A0080917A00816080937A00809122
:103710007A00806880937A001092C10085E18093DE
:10372000130480911404909115040E949C1FC09171
:103730001304D0E0CE0101960E94001F909315045F
:1037400080931404FC01EC0FFD1F108212E0DC01D9
:103750001C9325E011962C93AE014250510967EF5E
:1037600071E002960E94252088EA9AE090939904DD
:10377000809398048CEF99E090939B0480939A0433
:103780008FEC99E090939D0480939C0480E29CE0F0
:1037900090939F0480939E048DE89EE09093A104F3
:1037A0008093A00486EC9BE09093A3048093A204F2
:1037B00087E590E19093A9048093A80485EE9FE0AB
:1037C0009093A5048093A404E0917E03F0917F037D
:1037D0001083E0917E03F0917F031082E0917A03E1
:1037E000F0917B031082E0917C03F0917D0380E1F6
:1037F000808310928603E0918203F091830386E038
:103800008083E0918003F0918103808180618083D7
:10381000E0918003F0918103808188608083E09152
:103820008003F0918103808180688083E091800330
:10383000F091810380818F7D80838EE693E0909369
:103840001204809311048091AA0481114FC061E099
:103850008DE00E94700362ED70E080E090E00E94D5
:10386000570661E08DE00E94160368E270E080E098
:1038700090E00E94570660E08DE00E94160362ED22
:1038800070E080E090E00E94570661E08DE00E94C9
:10389000160368E270E080E090E00E94570660E066
:1038A0008DE00E9416036AEF70E080E090E00E94D5
:1038B0005706C5E062ED70E080E090E00E94570698
:1038C00061E08DE00E94160368E270E080E090E025
:1038D0000E94570660E08DE00E941603C15051F728
:1038E0006DE770E080E090E00E9457060E945B0167
:1038F0008091130481110E9415010E94E50F10921E
:10390000EF021092EE0210924B0310926D030E9490
:10391000B10687EA91E09093B3028093B20288EAFD
:1039200091E09093B5028093B40260EF85E50E9428
:103930002E096BEF80E00E942E090E94B20D25E057
:10394000F22E00E010E07724739432E0E32E8091B1
:10395000B902882349F069B18091B60268236C7F6F
:1039600040E080E00E94DB0B8091BA02882379F06E
:1039700063B186B16F73B0E48B9FC0011124682BD3
:103980008091B702682340E081E00E94DB0B8091C8
:10399000BB02882359F066B18091B8028F7066959A
:1039A0006695682340E082E00E94DB0B8091110461
:1039B00090911204EC01E881F9810084F185E02DF9
:1039C0000995892B09F427C1809111049091120463
:1039D000DC01ED91FC910284F385E02D09958F3F88
:1039E000980721F3382F20915904222309F467C046
:1039F000873F09F055C0109259048091190481370E
:103A000051F0893709F03EC080911304882371F288
:103A10000E941501CBCFE091A604F091A704309746
:103A200029F280915A0490915B04DC011197B7FD53
:103A3000DC01B595A7957A2F41E154E09A0190E019
:103A40004E5F5F4F2F5F3F4F971770F4EA016F8112
:103A5000E9016F83EA018885879588278795860F16
:103A6000E9018F839F5FECCFBB27AF5EBB4F1796FB
:103A70008C911797882311F018961C9289E194E095
:103A8000099594CFE091A804F091A904309709F426
:103A90008DCF60915A0461504AE154E0099586CF78
:103AA00020915A0430915B04F901EF5EFB4F80874F
:103AB0002F5F3F4F30935B0420935A0477CF2091C0
:103AC0001604222309F466C087FD64C09FEF920F9D
:103AD00090931604E92FF0E0EF5EFB4F8087911181
:103AE00065CF80911704882309F460CF803D09F4E5
:103AF00046C060F4803921F1E0919C04F0919D046E
:103B0000803C09F440C01092170450CF843F29F143
:103B1000853F81F1803EB9F7E0919804F0919904D6
:103B2000309789F360911904D0E86D9FC00111248A
:103B300060911A04680F792F711D8091180418C0C4
:103B4000E0919A04F0919B043097E9F26091190496
:103B500020E8629FC0011124EBCFE091A004F09116
:103B6000A1046091190470E080911A04309759F211
:103B70000995C9CFE091A204F091A304F2CFE0919E
:103B80009E04F0919F04309709F4BDCF6091190411
:103B900070E0D3CF303FB8F4282F207F30E08F7013
:103BA00080931804203F310561F1BCF4203C3105BD
:103BB00029F164F42039310509F0F8CEE0921604B9
:103BC00020931704F3CE9C013327ECCF203D310521
:103BD000A9F0203E310591F3E9CE293F3105C1F02E
:103BE00034F4C901845F9109029740F3DFCE2F3F7F
:103BF000310509F0DBCE0E948C01D8CE70921604FC
:103C0000DFCF7092590410925B0410925A04CECE0A
:103C10000E945B01CBCE8FB7F8948090BC0290904D
:103C2000BD02A090BE02B090BF028FBF8091EA0299
:103C30009091EB02A091EC02B091ED024091020153
:103C40005091030170E060E0881A990AAA0ABB0A41
:103C5000481559056A057B0508F051C0840F951F6A
:103C6000A61FB71F8093EA029093EB02A093EC0289
:103C7000B093ED0281E1C82E84E0D82EC2EFC630A9
:103C8000C8F4F601E55BFF4F8081823099F48091A2
:103C9000E8029091E9020C2E02C0959587950A944E
:103CA000E2F780FF07C08C2F0E941206BC018C2F08
:103CB0000E94B400CF5F8FEFC81AD80AC630F9F659
:103CC0008091010187FD1BC0C0E02C2F30E0809166
:103CD0000101082E000C990B8217930784F0F29EC5
:103CE000F001F39EF00D1124E054FD4F61817281CB
:103CF0002481438180810E94470DCF5FE6CF01156B
:103D0000110509F424CE0E941302882309F41FCE62
:103D10000E9400001CCE052E97FB1EF400940E940A
:103D2000A21E57FD07D00E94BD1E07FC03D04EF413
:103D30000C94A21E50954095309521953F4F4F4FC2
:103D40005F4F089590958095709561957F4F8F4F47
:103D50009F4F08950E94DF1EA59F900DB49F900D68
:103D6000A49F800D911D11240895B7FF0C94AA1EE5
:103D70000E94AA1E821B930B0895A1E21A2EAA1B71
:103D8000BB1BFD010DC0AA1FBB1FEE1FFF1FA2170B
:103D9000B307E407F50720F0A21BB30BE40BF50B08
:103DA000661F771F881F991F1A9469F76095709591
:103DB000809590959B01AC01BD01CF010895A29F14
:103DC000B001B39FC001A39F700D811D1124911DEF
:103DD000B29F700D811D1124911D0895991B79E0EA
:103DE00004C0991F961708F0961B881F7A95C9F78B
:103DF00080950895EE0FFF1F0590F491E02D099432
:103E00000F931F93CF93DF938230910510F482E0DC
:103E100090E0E0910205F091030530E020E0B0E091
:103E2000A0E0309799F42115310509F44AC0281B08
:103E3000390B24303105D8F58A819B8161157105D4
:103E400089F1FB0193838283FE0111C0408151817E
:103E50000281138148175907E0F04817590799F470
:103E6000109761F012960C93129713961C9332964A
:103E7000CF01DF91CF911F910F910895009302051B
:103E800010930305F4CF2115310551F04217530764
:103E900038F0A901DB019A01BD01DF01F801C1CFB2
:103EA000EF01F9CF9093030580930205CDCFFE017A
:103EB000E20FF31F819391932250310939832883B4
:103EC000D7CF2091000530910105232B41F420919B
:103ED00006013091070130930105209300052091E0
:103EE0000401309105012115310541F42DB73EB78C
:103EF0004091080150910901241B350BE091000508
:103F0000F0910105E217F307A0F42E1B3F0B2817D1
:103F1000390778F0AC014E5F5F4F2417350748F042
:103F20004E0F5F1F509301054093000581939193BD
:103F30009FCFF0E0E0E09CCFCF93DF930097E9F0D4
:103F4000FC01329713821282A0910205B091030501
:103F5000ED0130E020E01097A1F420813181820F43
:103F6000931F20910005309101052817390709F0AA
:103F700061C0F0930105E0930005DF91CF910895B2
:103F8000EA01CE17DF07E8F54A815B819E01411502
:103F90005105B1F7E901FB83EA8349915991C40FB7
:103FA000D51FEC17FD0761F4808191810296840F83
:103FB000951FE90199838883828193819B838A83FA
:103FC000F0E0E0E012968D919C9113970097B9F57F
:103FD0002D913C911197CD010296820F931F209154
:103FE0000005309101052817390739F6309751F54A
:103FF0001092030510920205B0930105A0930005ED
:10400000BCCFD383C28340815181840F951FC817D1
:10401000D90761F44E5F5F4F88819981480F591F1E
:10402000518340838A819B8193838283211531054B
:1040300009F0B0CFF0930305E09302059ECFFD0198
:10404000DC01C0CF13821282D7CFFB01DC014150CB
:10405000504048F001900D920020C9F701C01D9218
:0C40600041505040E0F70895F894FFCF65
:10406C00FFFF13000000040580000000000049025F
:10407C00A901D601A4020702E501F9010000000024
:10408C00430E00000000FF08D2084D09AF080E01D6
:10409C00BF08B0084D617820736572766F7320612C
:1040AC0074746163686564004932433A20546F6FDD
:1040BC00206D616E79206279746573207265636519
:1040CC0069766564004932433A20546F6F20666507
:1040DC0077206279746573207265636569766564AF
:1040EC0000556E6B6E6F776E2070696E206D6F640D
:1040FC00650031302D62697420616464726573737C
:10410C00696E67206E6F7420737570706F72746552
:10411C006400746F6F206D616E79207175657269C2
:10412C006573002F686F6D652F6A6775696C6C65B8
:10413C00322F41726475696E6F2F6669726D61748E
:10414C00615F746F6E652F5341354669726D617492
:10415C00615F746F6E652F5341354669726D617482
:0C416C00615F746F6E652E696E6F00005D
:00000001FF
